:020000040000FA
:100000000508A3000B2883129F01073083169F0069
:1000100007309C0008002310230885008316051074
:100020000320831223142308850083120313A730AF
:10003000A0000930A100A530A2000A128A11A20B6B
:100040001D280A128A11A10B1B280A128A11A00B63
:1000500019280000000023102308850083120313D1
:10006000A730A0000930A100A530A2000A128A1111
:10007000A20B36280A128A11A10B34280A128A11FF
:0A008000A00B322800000000112838
:02400E007A3FF7
:00000001FF
