:020000040000FA
:100000000508A3000A289F01073083169F000730C8
:100010009C00080003208316051083122314230874
:10002000850083120313A730A0000930A100A5307A
:10003000A2000A128A11A20B19280A128A11A10B16
:1000400017280A128A11A00B15280000000023109F
:100050002308850083120313A730A0000930A100F4
:10006000A530A2000A128A11A20B32280A128A11A4
:10007000A10B30280A128A11A00B2E2800000000C4
:020080000D2849
:02400E00FF3F72
:00000001FF
