:020000040000FA
:060000000A128A11C1285A
:08000800FF00030E8301B000AC
:100010000A08B1008A010408B6008A11F92B820788
:100020005634633478346F342034563430342E34BC
:1000300031340A3482074534723472346F34723486
:1000400020348207473450344734533456348207BF
:1000500047345034473447344134820747345034AE
:100060005634543447348207473450344734533479
:10007000413482074734503447344C344C3482077F
:100080004734503452344D34433482074D34733442
:10009000673420340030A31F5928A009A109A20900
:1000A000A309A00A0319A10A0319A20A0319A30AA2
:1000B0000130B3000030AB1F6928A809A909AA09BB
:1000C000AB09A80A0319A90A0319AA0A0319AB0A5A
:1000D0000130B3066C28B3012030B200A401A501A1
:1000E000A601A7010310AC0DAD0DAE0DAF0D0310B1
:1000F000A00DA10DA20DA30DA40DA50DA60DA70D7C
:1001000027082B02031D8E2826082A02031D8E288D
:1001100025082902031D8E28240828020319922885
:100120000318A1282808A4022908031C290FA502E6
:100130002A08031C2A0FA6022B08031C2B0FA70258
:100140002C14B20B7228330803190800AC09AD094E
:10015000AE09AF09AC0A0319AD0A0319AE0A0319B7
:10016000AF0AA409A509A609A709A40A0319A50AA3
:100170000319A60A0319A70A08008A000313340802
:1001800082000508C10083160511831203179E0122
:100190009F0103139F0183169F0183120317990187
:1001A0009A0183168113043003139500F2299B15DD
:1001B00018150830990002309A0008003A100C1AFD
:1001C0003A1483160C1AE7288312BA10E92883120E
:1001D000BA143A153A18BA1C3A113A1D0A294F08AE
:1001E0004E0203190A29A0304F0784008313000828
:1001F000B900CF0A50304F0203190029031C01290E
:10020000CF014F084E02031D072983160C128312DB
:10021000390899003608840031088A00300E8300BE
:10022000FF0E7F0E09008C1EDE28BB109818BB1431
:100230003B1118193B15BB11BB1C3B19BB15BB1D52
:1002400030291A08B900981C2C29181218161A08F7
:10025000B9001A08B9002329D101D0016A10DE289B
:1002600042305007840083131A088000500AB900F6
:100270000C30390203193E29031C3F29B901390802
:100280005102031945293908D0006A18DE285008A0
:10029000510203195529031855295009BA000D3088
:1002A000BA0751083A07B900582950085102B90055
:1002B0001130390203196029031860296A14DE28F5
:1002C000DE288312031351085002031D69292010F0
:1002D000982942305107840083130008ED00D10AA9
:1002E0000C30510203197629031C7729D1016A1CAD
:1002F00096295008510203198A2903188A2950099E
:100300000317A2000D30A207031351080317220799
:10031000A0008E29500851020317A00011302002BE
:1003200003199429031C962903136A10031320143C
:100330006D080800BE00EA144E084F024010031971
:100340004014C0100C1AC01440154018C01C4011B5
:10035000401DB02983160C1283123E089900CE2945
:10036000A0304E07840083133E0880004E0ABF0071
:1003700050303F020319BE29031CBF29BF013F08AB
:100380004F020319C6293F08CE00CC293F084F026F
:100390000319C6293F08CE0083160C1683123E08A7
:1003A00008008312CE01CF01D001D1019801981726
:1003B0001816831698019816D720831603138C16E7
:1003C0000B178B1783126A1008008312031320087F
:1003D000BD00EA1083120313EA18F1293D089A219F
:1003E000EA290800D1210C2B0D30A0006D08B400C3
:1003F0006E08BD200A3083120313A0006D08B400FC
:100400006E08BD282208AC002308AD000313EF01DD
:10041000212A031727080313B5006F0803172607BF
:100420000313B4000318B50A35133508BD20831231
:100430000313A0006D08B4006E08BD2083120313DF
:10044000EF0A6F0803172C020313A00003172D08EF
:1004500003132004031D092A08000317A200031335
:100460006D080317A40003136E080317A5002208E4
:10047000A800A901AA01AB016430AE00AF01B00130
:10048000B1010330432AB200280829042A042B04AE
:10049000031D542A30300313A0000317240803134C
:1004A000B40003172508BD2835143108803A03131A
:1004B000A00080302002031D682A0030031730029C
:1004C000031D682A00302F02031D682A00302E0207
:1004D0000319E92A031CE92A03172E080313A800AD
:1004E00003172F080313A900031730080313AA00EA
:1004F000031731080313AB00031728080313A000E8
:10050000031729080313A10003172A080313A200E5
:1005100003172B080313A3006B20831203132C086B
:100520000317B300031324080317A80003132508B7
:100530000317A900031326080317AA0003132708AB
:100540000317AB000A300313A800A901AA01AB01ED
:1005500003172E080313A00003172F080313A1008D
:10056000031730080313A200031731080313A30075
:100570004A20831203132C080317AE0003132D081F
:100580000317AF0003132E080317B00003132F083F
:100590000317B1003308B5150319B5113512351C11
:1005A0003516B512B51D351AB516B51EE72A303009
:1005B0003304B40034080313A00003172408031302
:1005C000B40003172508BD20831203173510B203AA
:1005D000552A08000317A201A301002B831203135D
:1005E0002330A0000D30A1000A128A11A10BF42AB9
:1005F0000A128A11A00BF22A0317A20A0319A30AEE
:10060000220803136D02A0000317230803136E02D0
:100610002004031DEE2A0800013083120313E800B2
:10062000AA2BED002C306D02031D182B201408009E
:100630001330660203191E2B031C212BC930E8005E
:10064000080052306607840083136D088000E60AB4
:100650005230660784008313800120100800A40133
:1006600021080313B5000317240820070313B4005F
:100670000318B50A35133508BD2083120313A000F3
:100680005230031724078400831303132008000249
:1006900003194C2B201008000317A40A053024026C
:1006A000031D302B03132014080028300317A0006B
:1006B00000304038A1002F23831203136D1020183F
:1006C0006D146D1801343A300317A0000030403823
:1006D000A1002F2383120313ED102018ED14ED1841
:1006E000023434300317A00000304038A1002F231B
:1006F000831203136D1120186D156D190334223008
:100700000317A00000304038A1002F2383120313E9
:10071000ED112018ED15ED19043440300317A00039
:1007200000304038A1002F23831203136D122018CC
:100730006D166D1A05342E300317A00000304038B6
:10074000A1002F2383120313ED122018ED16ED1ACA
:100750000634003487309205FC3092051215F930CA
:10076000831692003F3083129705F03017050C383E
:100770009700831687128C148B170B178312B701FF
:10078000B801E530ED000130EE000A300317A20099
:10079000A3011030A60000304038A70002220C2C24
:1007A00003306E02031DD62BE7306D020319E12BD7
:1007B000031CE12BE730ED000330EE004530A000D4
:1007C000E5210310831203136E0CA1006D0CA00031
:1007D0000310A10CA00C2008950003306D05A000AB
:1007E000200EA1003030A105CF301705210497005D
:1007F00008008C1C13298C10B70A0319B80A27307B
:100800003802031D052C0F30370203191329031C6E
:100810001329B701B801132983120313E901051D38
:10082000132C6A11142C6A1541116A1941154108DB
:1008300085003230ED00EE01EA2283120313E90A4B
:1008400008306902031D0F2CF430ED000130EE007A
:10085000D023612183120313EC006A1220186A1658
:100860006A1E292C013068020319592C031C592CCB
:10087000E530ED000130EE0006300317A200A301C1
:100880001B30A60000304038A7000222E53083125A
:100890000313ED000130EE0068082D22E5308312CD
:1008A0000313ED000130EE00F42101308312031335
:1008B000E80024306C02031D612CE701E601E80129
:1008C000292C6808031D292C6C081123831203139B
:1008D0006B1120186B156B1D942C6708031D902C51
:1008E0005523E53083120313ED000130EE00043090
:1008F0000317A200A3014630A60000304038A7002D
:100900000222E53083120313ED000130EE000030C7
:100910002D22E53083120313ED000130EE00F421A7
:0A09200083120313E601E70A292CF5
:02400E00F63F7B
:00000001FF
