:020000040000FA
:0408000006EF04F00B
:08080800D8EF07F023EF04F024
:100810001201000200000008D8040B0001000000D3
:1008200000010902200001010080640904000002A7
:10083000000000000705810240000007050102409A
:10084000000004030904D1EF07F0846F7E51E16ECC
:100850007F51E26E856B43EF04F081518525606F17
:10086000000E5E6E82515E20616F83515E20626F6A
:100870006051F66E6151F76E6251F86EF89C090096
:10088000F550E66E852B8551845DD8A42DEF04F0DC
:100890001200020104BF120000016D516A5DD8B45C
:1008A00057EF04F0D8B057EF04F06A516D6FD8805D
:1008B0006D516B55806F80516C5DD8B465EF04F05D
:1008C000D8B065EF04F06C51806F780E6B25606FC7
:1008D000000E5E6E020E5E20616F60510201066FB7
:1008E000000161510201076F000180510201056F93
:1008F00004AD7FEF04F0880E046F81EF04F0C80EA2
:10090000046F000180516B276B516D5D1200080E62
:100910006C6F6B6B6D6B6A6B0201049D49EF04F0A9
:100920007E6F7E510201786F080E00016C6F6B6B59
:10093000010E6D6F010E6A6F0201049D49EF04F014
:100940000F015489548554835487400E02010C6F63
:10095000400E096F200E0A6F020E0B6F800E086F9B
:100960001200840E020100131200080E0201016F32
:10097000100E026F020E036F030E00016F5DD8A40C
:10098000C8EF04F08C0E7C6F0201046BCAEF04F018
:10099000C80E7C6F00017C510201006F12007C6F59
:1009A000D8907C35806FD8908037D8908037802958
:1009B0007E6F02EE00F07E51E9267D51EF6E02EE71
:1009C00000F08051E926800EEF6E12000CADECEFC6
:1009D00004F0880E0C6F1200C80E0C6F1200550E3A
:1009E000A76EAA0EA76EA68212002451F86E23519C
:1009F000F76E2251F66E12000201F9510001696F83
:100A0000060E695DD8A476EF05F00201FB510001E6
:100A10007C6F0201FA5100017D6F6D6B010E7C5DF0
:100A2000D8A425EF05F0120E6D6F780E7E6F020EC2
:100A30007F6F100E816F080E826F000E4009836F6A
:100A40006D5125EC04F059EF05F0020E7C5DD8A441
:100A50003CEF05F0200E6D6F780E7E6F020E7F6FFB
:100A6000220E816F080E826F000E4009836F6D5158
:100A700025EC04F059EF05F0030E7C5DD8A457EF88
:100A800005F07D51D8A459EF05F0040E6D6F780E76
:100A90007E6F020E7F6F420E816F080E826F000E16
:100AA0004009836F6D5125EC04F059EF05F0220EDB
:100AB0007C5D00016D51D8B474EF05F0080E6C6FC9
:100AC0000201FF51D8A46AEF05F0FE5100016A6FE0
:100AD0006DEF05F0FF0E00016A6F030E6F6F6B6B19
:100AE0000201049D49EF04F0B1EF04F0050E695DC9
:100AF000D8A487EF05F00201FA510001706F010ED2
:100B00006E6F87EC04F0060E00016F6F1200090E85
:100B1000695DD8A492EF05F0060E6F6F87EC04F0C4
:100B2000A0EF04F00A0E695DD8A49CEF05F0030E57
:100B30006F6F010E90EF04F06951D8A4A3EF05F098
:100B4000000E90EF04F01200D8906330736FD890CD
:100B50007333D890733363A4BAEF05F0D8900201D1
:100B600004310001756FD89075330F0E7515746FD1
:100B7000C4EF05F0D890020100310001756FD890E4
:100B800075330F0E7515746F7351D8A44BEF06F0C3
:100B90000D0E745DD8A4F8EF05F0766B02EE10F040
:100BA0007651E926EF50606F02EEF8F07651E926B3
:100BB0006051EF6E762B080E765DD8A4CEEF05F06F
:100BC0006498B5EC04F00201F8390F0B0001756F61
:100BD000D8907533030E7515776F7751D8B4FCEF45
:100BE00004F0010E775DD8B41200100E775D12008C
:100BF000090E745DD8A41AEF06F0030E6F5DD8B429
:100C000049EF04F0060E6F5DD8A413EF06F06F6B8A
:100C1000010E6E5DD8A419EF06F070510F015C6FE4
:100C200000016E6B1200050E6F5DD8B41200040E49
:100C30006F5D1200020E745DD8A42DEF06F0030E56
:100C40006F5DD8B449EF04F0040E6F5DD8B41200A4
:100C5000060E6F5DD8B46F6B1200010E745DD8A4E0
:100C600078EF07F0050E6F5DD8A43AEF06F06F6BD2
:100C7000B5EF04F0020E6F5DD8B4B5EF04F0030ECB
:100C80006F5DD8A449EF06F0B5EC04F000016F6B7E
:100C90001200B5EF04F063B41200D8907335766F8C
:100CA000D8907637D8907637020E7625756F02EE9B
:100CB00000F07551E926EF50776F030E7625756FBA
:100CC00002EE00F07551E926EF50786F7629756FC6
:100CD00002010D6B2051D8A476EF06F0140E226F9E
:100CE000010E236F040E0D6F6DEF07F0040E205DF3
:100CF000D8A498EF06F0A69EA69C00017A6B8DEF13
:100D000006F0225100017A25A96EA68002EE25F098
:100D10007A51E926A850EF6E7A2B7A510201215DB3
:100D2000D8A481EF06F0050E21250D6F6DEF07F0B9
:100D3000010E205DD8B4A2EF06F0060E205DD8A407
:100D4000BCEF06F0F5EC04F000017A6BB1EF06F0B1
:100D5000090002EE25F000017A51E926F550EF6E08
:100D60007A2B7A510201215DD8A4A8EF06F0050E76
:100D700021250D6F6DEF07F0020E205DD8A4EAEF7C
:100D800006F0840EA66EF5EC04F0F00EF6160001E7
:100D9000686BE0EF06F002EE25F000016851E926ED
:100DA000EF50F56E0D000F0E6815796F0F0E795D1F
:100DB000D8A4DEEF06F00A00EFEC04F00001682B87
:100DC00068510201215DD8A4CBEF06F0010E0D6F32
:100DD0006DEF07F0030E205DD8A40AEF07F0940E24
:100DE000A66EF5EC04F000017A6B00EF07F0EFEC73
:100DF00004F0200EF626F650D8B4F72A00017A2B1C
:100E00007A510201215DD8A4F7EF06F0010E0D6FB3
:100E10006DEF07F0050E205DD8A42EEF07F000015E
:100E20007A6B24EF07F0225100017A25A96E02EEB9
:100E300025F07A51E926EF50A86EEFEC04F0A6B247
:100E40001FEF07F000017A2B7A510201215DD8A42F
:100E500013EF07F0010E0D6F6DEF07F0070E205D29
:100E6000D8A452EF07F0840EA66EF5EC04F0000152
:100E70007A6B48EF07F002EE25F000017A51E9267F
:100E8000EF50F56E0C00EFEC04F00D0000017A2B32
:100E90007A510201215DD8A43BEF07F0010E0D6FDE
:100EA0006DEF07F0320E205DD8B46DEF07F0FF0E46
:100EB000205DD8A46DEF07F0FF0E00017A6F7B6F05
:100EC000646A7A517B11D8B46CEF07F07A077A29FB
:100ED000D8B47B0761EF07F0FF0002010D51D8A4E1
:100EE000E6EC04F0400E00017D6F7351CFEF04F08B
:100EF00012000F015F6B626A0001706B0F01546B8F
:100F0000556B566B576B586B596B5A6B160E536F6C
:100F100062A68EEF07F0629688EF07F000016F6B14
:100F20006E6B6498080E0201056F180E066F020EB4
:100F3000076F046B080E016F100E026F020E036F35
:100F40008C0E006F1200A1A4C6EF07F0A19400015F
:100F5000726B62A6AFEF07F0A4EC05F06296000199
:100F6000722B040E725DD8A4A9EF07F062A0BCEF4B
:100F700007F079EC07F0629062BA629A62B8629800
:100F800062BC629C62A2C6EF07F062921200646AC1
:100F9000140E616E606A608A60866080608CA094C6
:100FA0001200F29E94847E50716F7E6ADBEF07F030
:100FB00004EF04F0110082A4E2EF07F071517E6E9D
:100FC00000EF04F0C7EC07F0626A646A6486200EE2
:100FD00002010E6F020E0F6FA3EC07F0ECEF07F0AB
:00000001FF
