:020000040000FA
:100000000A128A11E42A00008A0030080A3E031806
:100010008A0A820000340034003400340034003492
:1000200000342F34003400340034073400340734F3
:10003000003414347F3414347F34143424342A3498
:100040007F342A341234C434C8341034263446344D
:1000500036344934553422345034003405340334B2
:100060000034003400341C34223441340034003471
:10007000413422341C340034143408343E340834FF
:100080001434083408343E3408340834003400345E
:1000900050343034003410341034103410341034F0
:1000A00000346034603400340034203410340834B8
:1000B000043402343E345134493445343E3400343F
:1000C00042347F3440340034423461345134493452
:1000D00046342134413445344B34313418341434EB
:1000E00012347F34103427344534453445343934A0
:1000F0003C344A344934493430340134713409349D
:1001000005340334363449344934493436340634FA
:100110004934493429341E340034363436340034FA
:100120000034003456343634003400340834143487
:100130002234413400341434143414341434143458
:10014000003441342234143408340234013451343C
:100150000934063432344934593451343E347E340F
:100160001134113411347E347F34493449344934E4
:1001700036343E3441344134413422347F344134C6
:10018000413422341C347F344934493449344134B5
:100190007F3409340934093401343E34413449345C
:1001A00049347A347F340834083408347F340034D6
:1001B00041347F34413400342034403441343F34BE
:1001C00001347F3408341434223441347F344034D1
:1001D0004034403440347F3402340C3402347F34B1
:1001E0007F340434083410347F343E344134413495
:1001F00041343E347F3409340934093406343E3402
:100200004134513421345E347F3409341934293473
:1002100046344634493449344934313401340134A4
:100220007F34013401343F344034403440343F346F
:100230001F342034403420341F343F3440343834A9
:1002400040343F3463341434083414346334073492
:100250000834703408340734613451344934453437
:10026000433400347F3441344134003455342A342B
:1002700055342A3455340034413441347F34003409
:100280000434023401340234043440344034403401
:100290004034403400340134023404340034203417
:1002A00054345434543478347F34483444344434EB
:1002B00038343834443444344434203438344434C6
:1002C000443448347F343834543454345434183437
:1002D00008347E340934013402340C34523452343C
:1002E00052343E347F3408340434043478340034D7
:1002F00044347D34403400342034403444343D347C
:1003000000347F3410342834443400340034413411
:100310007F34403400347C3404341834043478346A
:100320007C34083404340434783438344434443469
:10033000443438347C3414341434143408340834D9
:100340001434143418347C347C34083404340434C5
:1003500008344834543454345434203404343F344E
:100360004434403420343C344034403420347C34F1
:100370001C342034403420341C343C344034303479
:1003800040343C34443428341034283444340C345D
:100390005034503450343C344434643454344C3449
:1003A00044340034083436344134003400340034EA
:1003B0007F3400340034003441343634083400349F
:1003C0000834043408341034083400347F344134A1
:1003D0007F34003414343E345534413422340034F4
:1003E00000340034003400340034503430340034ED
:1003F000003455342A3455342A34553455342A348B
:1004000055342A3455342034003420340034203418
:10041000043404347F340434043482076F34703479
:100420007134723473347434753476347734783488
:1004300079347A34303431343234333434343534FA
:1004400036343734820741344234433444344534FB
:1004500046344734483449344A344B344C344D34B0
:100460004E344F3450345134523453345434820760
:10047000553456345734583459345A34613462340C
:1004800063346434653466346734683469346A3498
:100490006B346C346D346E34820738343934213423
:1004A00040342334243425345E3426342A3428342A
:1004B000293480347E343C343E342F34820748342F
:1004C00065346C346C346F34203457346F34723488
:1004D0006C34643421340A3482077C345B345D34F8
:1004E0007B347D342A342D342B342C342E343A345E
:1004F0003B343F3482074C34693463346834743499
:10050000733465346E3473346F3472343A34820722
:10051000563430342E3430342E3436340A34820794
:1005200044346F346E34653421340A341030B000F2
:100530000310A40DA50D0310A00DA10D031CA62AE8
:100540002308A5072208A4070318A50AB00B982AB8
:1005500008002030B000A401A501A601A7010310E6
:10056000AC0DAD0DAE0DAF0D0310A00DA10DA20D84
:10057000A30DA40DA50DA60DA70D27082B02031D85
:10058000CB2A26082A02031DCB2A25082902031D8F
:10059000CB2A240828020319CF2A0318DE2A2808A8
:1005A000A4022908031C290FA5022A08031C2A0FEC
:1005B000A6022B08031C2B0FA7022C14B00BAF2A8A
:1005C00008008A00320882000508B7000608B80053
:1005D0000708B900831603178801890183120313E2
:1005E0009F0183169F018312031787018801EE2B59
:1005F000EF006F080319080001306F02031D092B7B
:10060000831203130A30A0000A128A11A00B062BD2
:100610000800EF03831203130630A0000A128A11A8
:10062000A00B102B000000008316A201222B8312C6
:1006300003130D30A0000A128A11A00B1D2B00001D
:100640008316A20A220883126F02031D172B0800CB
:10065000E801E9013D2B831203130630A000A53009
:10066000A1000A128A11A10B312B0A128A11A00BC8
:100670002F2B0000E80A0319E90A68086202A000AB
:10068000690863022004031D2B2B08000800E20008
:100690006208031D502B8316031708140313051457
:1006A000013083126202031D5A2B8316031788142C
:1006B00003138514023083126202031D642B831618
:1006C0000317081503130515033083126202031D77
:1006D0006E2B8316031788150313851504308312B8
:1006E0006202031D782B8316031708160313851661
:1006F000083083126202031D812B8316031709142D
:1007000006150930831203136202031D8B2B831617
:100710000317891486150A30831203136202031D1E
:10072000952B83160317091586140B3083120313B8
:100730006202031D9F2B83160317891506160C30C2
:10074000831203136202031DA92B831603170916D4
:1007500006140D30831203136202031DB32B83169C
:1007600003178916861608006B106208A00063083C
:10077000A1000A30A200A3019622831203132408C9
:10078000E8002508E9001430A800A901AA01AB017E
:100790006808A0006908A100A201A3018A110A1239
:1007A000A922831203132C08BA0010303A02EB106E
:1007B000031D0318EB143C303A026B118A110A1224
:1007C0000319E42B031C6B15EB15EB186B1DEB11D8
:1007D000EB196B1420106B18201408000313B401DC
:1007E0004D2CEB006B0DA000A00D3C30A005C330DC
:1007F0001F0520049F001F143B08F82283120313D7
:100800009F148A110A129F1C062C012C1E088316A5
:10081000A000263083123A020319102C031C1A2C54
:1008200083120313C630A0000A128A11A00B162CE3
:100830000000242C831203133330A0000A128A1103
:10084000A00B202C000000001F10831620080800B9
:1008500083120313E2006208F12383120313E500FD
:1008600083161E088312E4006408A0006508A10036
:100870000800E2006208F12383120313E9008316E3
:100880001E088312E8000310E90CE80C0310E90CC1
:10089000E80C6808E40064080800D401540EA000C5
:1008A0003030A005CF3083161F0583122004831635
:1008B0009F009F177F308312D205FC30D305203074
:1008C000E200E301B42383120313531120185315DC
:1008D0008A110A12531D732C7F30D205FC30530548
:1008E0000138D300982C0830E200E301B4238312CE
:1008F00003135312201853168A110A12531E872C01
:100900007F3052058038D200FC30D305982C02305D
:10091000E200E301B4238312031353132018531787
:100920008A110A12531F982C7F30D205FC30D30550
:10093000530CA200520CA1000630A300A20CA10C83
:10094000A30B9E2C2108A0000330A005200CA100C1
:10095000A10C210CA100C030A1053F301F052104CE
:100960009F001030BB00003047238316031307118C
:100970008312B5010130B6008A110A12E52CE2009B
:10098000B5010130B60035038316920001308312A1
:100990006202031DCF2CFC309205121508000430B2
:1009A0006202031DD92CFC30120501389200121589
:1009B000080010306202031DE32CFC3012050238DF
:1009C00092001215080012110800BE01BF01302D5F
:1009D000F030831203133F050C38BF003E0895002A
:1009E0003F089700080003302102031DF92CFF3057
:1009F00020020319012D031C012DFF30A00003303C
:100A0000A1000310210C8312A1008316200C831275
:100A1000A0000310A10CA00C2008BE000330831618
:100A200020058312A000200EA1003030A105CF3098
:100A30003F052104BF00E82CE2006208E400E50164
:100A40000310640DE600650DE7000310E60DE70DE9
:100A500066088316A000831267088316A100F32C92
:100A60000130BF248A110A12E8248A110A12002ECA
:100A700083160317871503131815033099000130E7
:100A80009A0008003825831603138C120C1298164E
:100A9000903083129800080083160313CA00831253
:100AA0000C1A532D4F2D83164A0883129900080003
:100AB0006208EB008316A0016F2D6908B30083164E
:100AC000200883126807B2000318B30A33133308EF
:100AD000E1228A110A124C2583160313A00A20086A
:100AE00083126B028A110A12031D5D2D0800430850
:100AF000C70064308312A800A901AA01AB018316C4
:100B000043088312A000831644088312A100A201A7
:100B1000A301A922831203132C088316C600643094
:100B200047028A110A120319972D031C9F2D30309A
:100B30004607C80048084C258A110A12A12D20300A
:100B40004C258316031346088312A000A1016430CC
:100B5000A200A3018A110A12962283120313240809
:100B60008316C8004808C302031CC4030A3083125A
:100B7000A800A901AA01AB01831643088312A000B3
:100B8000831644088312A100A201A3018A110A124C
:100B9000A922831203132C088316C6000A304702C9
:100BA0008A110A120319D62D031CDE2D3030460798
:100BB000C80048084C258A110A12E02D20304C2527
:100BC0008316031346088312A000A1010A30A20075
:100BD000A3018A110A129622831203132408831692
:100BE000C8004808C302031CC4034408C9003030CD
:100BF0004307C8000318C90A48088A110A124C2D75
:100C000042250D3083120313E200E3015F30E80058
:100C100002304038E9008A110A1258250730831241
:100C20000313E200E3018830E80002304038E900B5
:100C30008A110A12582583120313C001FF30831250
:100C4000031340028A150A120319AB2D40088A11BA
:100C50001C2583120313C00A0A30E200E3018A1143
:100C60000A1228238A110A121E2E8316C700013089
:100C70004702031D402E8312391439088700442E81
:100C80008312B91439088700B9113908870083160F
:100C900048088312B80038088600831686010000D1
:100CA00000008312B716370885000000000000001E
:100CB0000000000000000000000000000000B7126B
:100CC00037088500B91039088700391039088700BE
:100CD0000000000000000000000000000000000014
:100CE000000000000800C000FF3086000130400214
:100CF000031D7F2E8312391439088700832E831237
:100D0000B91439088700B9153908870000000000B8
:100D1000B716370885000000000000000000000042
:100D20000000000000000000000006088316C1005B
:100D30008312B71237088500B910390887003910B7
:100D400039088700000000000000000000000000DB
:100D500000000000000000008316410808003F303A
:100D600083160313C800003035263F308316031363
:100D7000C80001308A110A12352E83120313B912EA
:100D800039088700080083120313B9163908870051
:100D90000800C000C3013F3040020319D52E031CD8
:100DA000D52E4030C0020130C300BD26403083162E
:100DB00003134004C6004608C80043088A110A12FB
:100DC0003526031083160313410CC5000310C50C10
:100DD0000310C50CB8304504C6004608C8004308D7
:100DE0008A110A1235268A110A12C32683160313A2
:100DF0004208C80043088A110A12352E83120313D1
:100E0000E200E401E801BD2683120313EB01B830D0
:100E100064048316A0002008C80083126B088A119E
:100E20000A123526013083120313EB00B830640434
:100E30008316A0002008C80083126B088A110A12CA
:100E4000352683120313EB018316A00140302004E2
:100E50008312EF006F088316C80083126B088A1193
:100E60000A123526013083120313EB008316A0010A
:100E7000403020048312EF006F088316C8008312ED
:100E80006B088A110A1235268A110A12C3268312A8
:100E90000313EA0162088316C80000308A110A129F
:100EA00035268312031362088316C80001308A11A5
:100EB0000A12352683120313EA0A40306A028A11A5
:100EC0000A12031D4A2FE40AE80A08306802031DCB
:100ED000032F0800E2006208EB0064088316A000FC
:100EE0008312680862020319772F03187B2F6208A8
:100EF0006802EF007E2F68086202EF006A08640251
:100F00000319842F0318892F64086A028316A2002C
:100F10008D2F6A0864028316A20083126F0883165D
:100F200022020319952F03189A2F83126F08831634
:100F3000A3009C2F2208A300A401A5018A154B2819
:100F400083126B088316A800AE013F3028020319F4
:100F5000AF2F031CAF2F4030A8020130AE00BD26DA
:100F60004030831603132804B5003508C8002E0846
:100F70008A110A123526031083160313200CB400BD
:100F80000310B40C0310B40CB8303404B5003508A9
:100F9000C8002E088A110A1235268A110A12C326A1
:100FA000831603132E088A110A127326831603135D
:100FB000AA002E088A110A12732683160313AA00A8
:100FC0008A110A12271CF62F07302005AB002B08C8
:100FD000FE000130AF007E08F02F0310AF0DFE03BE
:100FE000031DED2F2F08AA048A150A2807302005B3
:100FF000AB002B08FE000130AF007E088A150328E5
:101000000310AF0DFE038A15031D00282F09B00041
:101010003008AA058A11BD26403083160313280420
:10102000B5003508C8002E088A110A1235268A1123
:101030000A12C326831603132A08C8002E088A1131
:101040000A12352683160313240883126F028A15A9
:101050000A1203193628031C36286808620203198D
:10106000332803183528EB0A3628EB0383162408A7
:10107000220203194928031C492883126A086402C2
:1010800003194428031847288316A00A4928831601
:10109000A003A40AA50A250823028A11031DA02F74
:1010A0000800E20062086802EF0064086A02831622
:1010B000A200A301A40183126F08A000A10183165E
:1010C00022088312A200A3018A119622831203131D
:1010D00024088316A500831225088316A600A801FC
:1010E000A9018A150A129B298316240822022B11B2
:1010F00003192B15230883126F028316AB110319F2
:10110000AB152B162B19AB1D2B122B1E8928AB14DC
:101110008A28AB10230883126207EB008316240889
:1011200083126407EC006C088316B30083126B080B
:101130008316B40083124408831634022C13031957
:101140002C172C1B2C112C1F2C150310330CB50045
:101150000310B50C0310B50C831245088316350235
:101160002D1003192D142D18AC122D1CAC16831242
:1011700043088316AC150319AC112C122C1DAC1AA4
:101180002C162D162C1AAC1D2D122D1EDE28031028
:101190008312450D8316B5000310B50D0310B50D70
:1011A0003508C100831243088316C20034088A112F
:1011B000C92683120313C301C401C5018316BD01EF
:1011C0003F3034028A150A120319EC28031CEC285C
:1011D0004030B4020130BD0083124308031D2529AD
:1011E0008A11BD264030831603133404BF003F0824
:1011F000C8003D088A110A1235260310831603130E
:10120000330CBE000310BE0C0310BE0CB8303E04FD
:10121000BF003F08C8003D088A110A1235268A110E
:101220000A12C326831603133D088A110A12732675
:1012300083160313BB003D088A110A127326831616
:101240000313BB008A150A12282943088316BB0022
:101250002B1C3B2907303305BC003C08FE00013045
:10126000B5007E0836290310B50DFE03031D332992
:101270003508BB044D2907303305BC003C08FE008F
:101280000130B5007E0847290310B50DFE03031D8C
:1012900044293509B6003608BB05AB1C6A298A11FA
:1012A000BD264030831603133404BE003E08C80038
:1012B0003D088A110A1235268A110A12C32683169E
:1012C00003133B08C8003D088A110A1235268A1507
:1012D0000A127A293B088312C3008316340883124A
:1012E000C40003108316330C8312C5000310C50C11
:1012F0000310C50C83160313A40A24082202031D3D
:101300008329A401A30A240822022B1303192B17F3
:10131000230883126F028316AB130319AB172C1427
:101320002B1BAB1F2C102C1C9729AB149829AB102E
:10133000A80A0319A90A280825028312A000831607
:101340002908260283122004031D74280800003097
:101350008A11FE2EE2006430A800A901AA01AB01A7
:101360006808A0006908A100A201A3018A11A922AE
:10137000831203132C088316A30023088312A000F2
:10138000A1016430A200A3018A110A1296228312DD
:1013900003132408EB006908ED006B086802EC00F9
:1013A000031CED030A30A800A901AA01AB016C08D7
:1013B000A0006D08A100A201A3018A110A12A922AE
:1013C000831203132C088316A40023088312A000A1
:1013D000A1016430A200A3018A110A12962283128D
:1013E00003132408EB006908ED006B086802EC00A9
:1013F000031CED03831624088312A000A1010A3008
:10140000A200A3018A110A12962283120313240850
:10141000EE006E086C028316A50030302307A7008B
:10142000831262088316AE002B10AF01B001AA3000
:10143000B4000530B5001F3027028A150A120319BF
:10144000242A0318242AE62A8730270203192B2A84
:10145000031C2B2AE62A20302702B700B8013708E0
:101460008312A000831638088312A1000530A20061
:10147000A3018A1196228312031324088316B9004C
:10148000831225088316BA003A08B0073908AF0757
:101490000318B00ABE018A150A12E02A2F08831227
:1014A000B000831630088A11042083160313B40099
:1014B0008A150A122B1C6E2A2F08C3003008C4009C
:1014C0008A117725831603133408C300C4018A11D7
:1014D0000A1277250A308A110A124C258A110A123B
:1014E000BD264030831603132E028A150A120319F3
:1014F000A62A0318A62AC00140302E04C1004108C4
:10150000C80040088A113526031083120313640CA7
:101510008316BF000310BF0C0310BF0CC001B8300E
:101520003F04C1004108C80040088A110A1235264C
:101530008A110A12C326831603133408C800003028
:101540008A110A1235268A150A12D92A80302E02EB
:101550000319D92A0318D92A40302E02BF000130BE
:10156000C10040303F04C2004208C80041088A114F
:101570003526031083120313640C8316C000031076
:10158000C00C0310C00C0130C100B8304004C200D0
:101590004208C80041088A110A1235268A110A1227
:1015A000C326831603133408C80001308A110A12B7
:1015B000352683160313AF0A0319B00AAE0ABE0A12
:1015C0003E0835028A150A12031D4E2A0630831280
:1015D0006207EB003030831624078312EC006C089E
:1015E0008316A80083126B088316AE002B10AF0180
:1015F000B001AA30B4000530B5001F30280203192D
:10160000042B0318042BC62B8730280203190B2B3D
:10161000031C0B2BC62B20302802B700B80137085B
:101620008312A000831638088312A1000530A2009F
:10163000A3018A1196228312031324088316B9008A
:10164000831225088316BA003A08B0073908AF0795
:101650000318B00ABE018A150A12C02B2F08831284
:10166000B000831630088A11042083160313B400D7
:101670008A150A122B1C4E2B2F08C3003008C400F9
:101680008A117725831603133408C300C4018A1115
:101690000A1277250A308A110A124C258A110A1279
:1016A000BD264030831603132E028A150A12031931
:1016B000862B0318862BC00140302E04C100410840
:1016C000C80040088A113526031083120313640CE6
:1016D0008316BF000310BF0C0310BF0CC001B8304D
:1016E0003F04C1004108C80040088A110A1235268B
:1016F0008A110A12C326831603133408C800003067
:101700008A110A1235268A150A12B92B80302E0248
:101710000319B92B0318B92B40302E02BF0001303A
:10172000C10040303F04C2004208C80041088A118D
:101730003526031083120313640C8316C0000310B4
:10174000C00C0310C00C0130C100B8304004C2000E
:101750004208C80041088A110A1235268A110A1265
:10176000C326831603133408C80001308A110A12F5
:10177000352683160313AF0A0319B00AAE0ABE0A50
:101780003E0835028A150A12031D2E2B0C308312D7
:101790006207EB003030831625078312EC006C08DB
:1017A0008316AA0083126B088316AE002B10AF01BC
:1017B000B001AA30B4000530B5001F302A02031969
:1017C000E42B0318E42B080087302A020319EB2BC3
:1017D000031CEB2B080020302A02B700B8013708A1
:1017E0008312A000831638088312A1000530A200DE
:1017F000A3018A1196228312031324088316B900C9
:10180000831225088316BA003A08B0073908AF07D3
:101810000318B00ABE018A150A12A02C2F088312E1
:10182000B000831630088A11042083160313B40015
:101830008A150A122B1C2E2C2F08C3003008C40056
:101840008A117725831603133408C300C4018A1153
:101850000A1277250A308A110A124C258A110A12B7
:10186000BD264030831603132E028A150A1203196F
:10187000662C0318662CC00140302E04C1004108BC
:10188000C80040088A113526031083120313640C24
:101890008316BF000310BF0C0310BF0CC001B8308B
:1018A0003F04C1004108C80040088A110A123526C9
:1018B0008A110A12C326831603133408C8000030A5
:1018C0008A110A1235268A150A12992C80302E02A6
:1018D0000319992C0318992C40302E02BF000130B7
:1018E000C10040303F04C2004208C80041088A11CC
:1018F0003526031083120313640C8316C0000310F3
:10190000C00C0310C00C0130C100B8304004C2004C
:101910004208C80041088A110A1235268A110A12A3
:10192000C326831603133408C80001308A110A1233
:10193000352683160313AF0A0319B00AAE0ABE0A8E
:101940003E0835028A150A12031D0E2C0800E2001B
:10195000EF01A32D62088316A20083126F08A00076
:10196000A1010630A200A3018A119622831203135B
:1019700024088316A3002308A20783126C08B3006F
:101980006F086B07B2000318B30A331333088A11C8
:101990000A12E12283160313A5002208A7002410CF
:1019A000A801A901AA30AB000530AE001F30250206
:1019B0008A150A120319DF2C0318DF2CA12D87309A
:1019C00025020319E62C031CE62CA12D203025024C
:1019D000AF00B0012F088312A000831630088312D5
:1019E000A1000530A200A3018A11962283120313DD
:1019F00024088316B100831225088316B20032082A
:101A0000A9073108A8070318A90AB7018A150A12FD
:101A10009B2D28088312B000831629088A11042000
:101A200083160313AB008A150A12241C292D2808DB
:101A3000C3002908C4008A117725831603132B08D5
:101A4000C300C4018A110A1277250A308A110A12CA
:101A50004C258A110A12BD26403083160313270233
:101A60008A150A120319612D0318612DBC0140303B
:101A70002704BD003D08C8003C088A113526031024
:101A800083120313640C8316BB000310BB0C0310FA
:101A9000BB0CBC01B8303B04BD003D08C8003C088D
:101AA0008A110A1235268A110A12C32683160313D5
:101AB0002B08C80000308A110A1235268A150A122E
:101AC000942D803027020319942D0318942D403053
:101AD0002702BB000130BD0040303B04BE003E0881
:101AE000C8003D088A113526031083120313640CC5
:101AF0008316BC000310BC0C0310BC0C0130BD00ED
:101B0000B8303C04BE003E08C8003D088A110A12E5
:101B100035268A110A12C326831603132B08C80020
:101B200001308A110A12352683160313A80A0319F5
:101B3000A90AA70AB70A37082E028A150A12031D36
:101B4000092D8312EF0A6F086802A00069082004BB
:101B5000031DAA2C0800D4015408B80038088600D8
:101B600083168601871187108512871207120710C6
:101B70008312391639088700B71237088500B9145F
:101B8000390887003910390887008A11BD26C0300E
:101B900083160313C80000308A110A123526C0309C
:101BA00083160313C80001308A110A1235268312E6
:101BB0000313D401D501B8305504D6005608831656
:101BC000C800831254088A110A1235260130831284
:101BD0000313D400D501B8305504D6005608831637
:101BE000C800831254088A110A123526831203137F
:101BF000D401D50140305504D60056088316C800DC
:101C0000831254088A110A123526013083120313F5
:101C1000D400D50140305504D60056088316C800BC
:101C2000831254088A110A1235268A110A12AF2625
:101C300000308A110A12FE2683120313E4010D30CC
:101C4000E800E9015F30EB0002304038EC00003082
:101C50008A150A12A724083083120313E4001430F3
:101C6000E800E9012330EB0002304038EC0000309E
:101C70008A150A12A724103083120313E4001430CB
:101C8000E800E9013830EB0002304038EC00003069
:101C90008A150A12A724183083120313E4001430A3
:101CA000E800E9010E30EB0002304038EC00003073
:101CB0008A150A12A724203083120313E40011307E
:101CC000E800E9014D30EB0002304038EC00003014
:101CD0008A150A12A724283083120313E4000D305A
:101CE000E800E9016D30EB0002304038EC000030D4
:101CF0008A150A12A72483120313C6014609C100DC
:101D00009730C107D4013130D5003630D6004108B4
:101D1000D700D8019630D900DA01D21754085602FC
:101D2000DF005F03DB005708A0005808A100643003
:101D3000A200A3018A110A12962283120313240817
:101D4000DC002508DD005908A8005A08A900AA01EE
:101D5000AB015C08A0005D08A100A201A3018A11EB
:101D60000A12A922831203132C08DC002D08DD00BF
:101D70005C08A0005D08A1005B08A200A3018A1115
:101D80000A129622831203132408DC002508DD00C2
:101D90006430A800A901AA01AB015C08A0005D089D
:101DA000A100A201A3018A110A12A922831203131E
:101DB0002C08DC002D08DD008A150A12D21F0F2F17
:101DC00001305C07DE000030031801305D07DF00E2
:101DD00005305507E0005508E4005E08E80060089B
:101DE000EA0083162B148312540851208312031324
:101DF000550ADE005603DF0005305507E0005E0897
:101E0000E4005F08E8006008EA0083162B108312E4
:101E10005C088A150A1251208A150A123B2F0130DC
:101E20005C07DE000030031801305D07DF0005307D
:101E30005507E0005508E4005E08E8006008EA0085
:101E400083162B1083125408512083120313550A52
:101E5000DE005603DF0005305507E0005E08E400B1
:101E60005F08E8006008EA0083162B1483125C0800
:101E70008A150A1251200530831203135507E10019
:101E80005508E4005608E8005508EA0083162714B0
:101E9000831254088A110A126A2783120313550801
:101EA000E4005608E8006108EA008316271483124C
:101EB00056088A110A126A27831203136108E40084
:101EC0005408E8006108EA008316271483125608B4
:101ED0008A110A126A27831203136108E400540866
:101EE000E8005508EA0083162714831254088A1163
:101EF0000A126A270A3083120313E200E3018A11EF
:101F00000A12282383120313C60A963046028A1542
:101F10000A12031D7E2EA72183120313E4010C3045
:101F2000E800E9017B30EB0002304038EC00003083
:101F30008A150A12A724063083120313E200E30174
:101F40009030E80002304038E9008A110A12582522
:101F5000083083120313CA007E30CB001230CC004D
:101F60003F30CD00CE01CF01D001D1014D08E400BA
:101F70004B08E8004D08EA008316271483124A082C
:101F80008A110A126A27831203134C08E4004A08D4
:101F9000E8004D08EA008316271483124A088A11C4
:101FA0000A126A2700308A110A12282483120313A6
:101FB0002008BC002108BD004808C20003304702C9
:101FC000C100031CC2033D0842028A150A12031D08
:101FD000EB2F3C084102D2120319F02F0318D2163E
:101FE0004808C20003304707C1000318C20A3D0871
:101FF0004202031DFD2F3C08410252138A110A16AA
:1020000003190428031C52175212D21E521B5216D7
:102010008A150A12521ED22F0830E4003C08E8004C
:102020003D08E9000030AA21831203133C08C700D1
:102030003D08C80000308A110A12392483120313A4
:10204000C9004908A000A1016430A200A3018A11BF
:102050000A129622831203132408CE002508CF000B
:10206000D001D101FF30A800A901AA01AB014E089F
:10207000A0004F08A1005008A2005108A3008A1137
:102080000A12A922831203132C08CE002D08CF00B8
:0E2090002E08D0002F08D1008A150A12D22F78
:02400E00F22F8F
:02401000FF3F70
:00000001FF
