:020000040000FA
:100000000A128A11CC2A00008A0028080A3E031826
:100010008A0A820000340034003400340034003492
:1000200000342F34003400340034073400340734F3
:10003000003414347F3414347F34143424342A3498
:100040007F342A341234C434C8341034263446344D
:1000500036344934553422345034003405340334B2
:100060000034003400341C34223441340034003471
:10007000413422341C340034143408343E340834FF
:100080001434083408343E3408340834003400345E
:1000900050343034003410341034103410341034F0
:1000A00000346034603400340034203410340834B8
:1000B000043402343E345134493445343E3400343F
:1000C00042347F3440340034423461345134493452
:1000D00046342134413445344B34313418341434EB
:1000E00012347F34103427344534453445343934A0
:1000F0003C344A344934493430340134713409349D
:1001000005340334363449344934493436340634FA
:100110004934493429341E340034363436340034FA
:100120000034003456343634003400340834143487
:100130002234413400341434143414341434143458
:10014000003441342234143408340234013451343C
:100150000934063432344934593451343E347E340F
:100160001134113411347E347F34493449344934E4
:1001700036343E3441344134413422347F344134C6
:10018000413422341C347F344934493449344134B5
:100190007F3409340934093401343E34413449345C
:1001A00049347A347F340834083408347F340034D6
:1001B00041347F34413400342034403441343F34BE
:1001C00001347F3408341434223441347F344034D1
:1001D0004034403440347F3402340C3402347F34B1
:1001E0007F340434083410347F343E344134413495
:1001F00041343E347F3409340934093406343E3402
:100200004134513421345E347F3409341934293473
:1002100046344634493449344934313401340134A4
:100220007F34013401343F344034403440343F346F
:100230001F342034403420341F343F3440343834A9
:1002400040343F3463341434083414346334073492
:100250000834703408340734613451344934453437
:10026000433400347F3441344134003455342A342B
:1002700055342A3455340034413441347F34003409
:100280000434023401340234043440344034403401
:100290004034403400340134023404340034203417
:1002A00054345434543478347F34483444344434EB
:1002B00038343834443444344434203438344434C6
:1002C000443448347F343834543454345434183437
:1002D00008347E340934013402340C34523452343C
:1002E00052343E347F3408340434043478340034D7
:1002F00044347D34403400342034403444343D347C
:1003000000347F3410342834443400340034413411
:100310007F34403400347C3404341834043478346A
:100320007C34083404340434783438344434443469
:10033000443438347C3414341434143408340834D9
:100340001434143418347C347C34083404340434C5
:1003500008344834543454345434203404343F344E
:100360004434403420343C344034403420347C34F1
:100370001C342034403420341C343C344034303479
:1003800040343C34443428341034283444340C345D
:100390005034503450343C344434643454344C3449
:1003A00044340034083436344134003400340034EA
:1003B0007F3400340034003441343634083400349F
:1003C0000834043408341034083400347F344134A1
:1003D0007F34003414343E345534413422340034F4
:1003E00000340034003400340034503430340034ED
:1003F000003455342A3455342A34553455342A348B
:1004000055342A3455342034003420340034203418
:10041000043404347F340434043482076F34703479
:100420007134723473347434753476347734783488
:1004300079347A34303431343234333434343534FA
:1004400036343734820741344234433444344534FB
:1004500046344734483449344A344B344C344D34B0
:100460004E344F3450345134523453345434820760
:10047000553456345734583459345A34613462340C
:1004800063346434653466346734683469346A3498
:100490006B346C346D346E34820738343934213423
:1004A00040342334243425345E3426342A3428342A
:1004B000293480347E343C343E342F34820748342F
:1004C00065346C346C346F34203457346F34723488
:1004D0006C34643421340A3482077C345B345D34F8
:1004E0007B347D342A342D342B342C342E343A345E
:1004F0003B343F3482074C34693463346834743499
:10050000733465346E3473346F3472343A34820722
:10051000563430342E3430342E3436340A34820794
:1005200044346F346E34653421340A341030A800FA
:100530000310A40DA50D0310A00DA10D031CA62AE8
:100540002308A5072208A4070318A50AA80B982AC0
:1005500008001030A800A201A3010310A60DA70DEA
:100560000310A00DA10DA20DA30D23082502031D4C
:10057000BB2A220824020319BF2A0318C62A250809
:10058000A3022408A202031CA3032614A80BAD2A6D
:1005900008008A002A0882000508AF000608B0009B
:1005A0000708B1008316031788018901831203131A
:1005B0009F0183169F018312031787018801CD2BAA
:1005C000E40064080319080001306402031DF12AE5
:1005D000831203130A30A0000A128A11A00BEE2A1C
:1005E0000800E403831203130630A0000A128A11E4
:1005F000A00BF82A00000000E501082B831203136A
:100600000D30A0000A128A11A00B042B0000E50A8D
:1006100065086402031DFE2A0800DB01DC01222BB1
:10062000831203130630A000A530A1000A128A111C
:10063000A10B162B0A128A11A00B142B0000DB0A47
:100640000319DC0A5B085502A0005C08560220046E
:10065000031D102B08000800D5005508031D352B7D
:10066000831603170814031305140130831255026F
:10067000031D3F2B831603178814031385140230C0
:1006800083125502031D492B831603170815031304
:100690000515033083125502031D532B83160317D0
:1006A000881503138515043083125502031D5D2B35
:1006B0008316031708160313851608308312550294
:1006C000031D662B831603170914061509308312C0
:1006D00003135502031D702B831603178914861507
:1006E0000A30831203135502031D7A2B8316031756
:1006F000091586140B30831203135502031D842B36
:1007000083160317891506160C308312031355023E
:10071000031D8E2B83160317091606140D30831242
:1007200003135502031D982B83160317891686168B
:1007300008005E105508A0005608A1000A30A2006B
:10074000A3019622831203132408DB002508DC0092
:100750001430A400A5015B08A0005C08A1008A1168
:10076000A922831203132608B20010303202DE10D1
:10077000031D0318DE143C3032025E118A11031986
:10078000C32B031C5E15DE15DE185E1DDE11DE199F
:100790005E1420105E18201408000313AC01282CEE
:1007A000DE005E0DA000A00D3C30A005C3301F058B
:1007B00020049F001F143308E022831203139F14A8
:1007C0008A119F1CE42BE02B1E08E2002630320227
:1007D0000319EC2B031CF62B83120313C630A00065
:1007E0000A128A11A00BF22B0000002C83120313B3
:1007F0003330A0000A128A11A00BFC2B000000006D
:100800001F106208080083120313D5005508D02377
:1008100083120313D80083161E088312D7005708CB
:10082000A0005808A1000800D5005508D023831265
:100830000313DC0083161E088312DB000310DC0C9C
:10084000DB0C0310DC0CDB0C5B08D700570808003E
:10085000C701470EA0003030A005CF3083161F051A
:100860008312200483169F009F177F308312C505D3
:10087000FC30C6052030D500D6019923831203131E
:100880004611201846158A11461D4D2C7F30C5058E
:10089000FC3046050138C600702C0830D500D60162
:1008A0009923831203134612201846168A11461EF6
:1008B000602C7F3045058038C500FC30C605702CA3
:1008C0000230D500D6019923831203134613201852
:1008D00046178A11461F702C7F30C505FC30C605AF
:1008E000460CA200450CA1000630A300A20CA10CEE
:1008F000A30B762C2108A0000330A005200CA1003A
:10090000A10C210CA100C030A1053F301F0521041E
:100910009F001030B30000302C23831603130711FF
:100920008312AD010130AE008A11BC2CD500AD019F
:100930000130AE002D038316920001308312550260
:10094000031DA62CFC309205121508000430550238
:10095000031DB02CFC30120501389200121508005E
:1009600010305502031DBA2CFC30120502389200DB
:100970001215080012110800B601B701FF2CF03063
:100980008312031337050C38B70036089500370873
:100990009700080003306302031DD02CFF30620271
:1009A0000319D82C031CD82CFF30E2000330E300DD
:1009B0000310630CA100620CA0000310A10CA00C9A
:1009C0002008B60003306205A000200EA1003030E0
:1009D000A105CF3037052104B700BF2CD50055083D
:1009E000D700D8010310570DD900580DDA000310B5
:1009F000D90DDA0D5908E2005A08E300CA2C01307B
:100A000096248A11BF248A11B72D831603178715E0
:100A1000031318150330990001309A0008000525CA
:100A2000831603138C120C129816903083129800C0
:100A3000080083160313BD0083120C1A202D1C2DF1
:100A400083163D088312990008005508DE00E20174
:100A5000382D5C08AB0062085B07AA000318AB0ADC
:100A60002B132B08C9228A11192583120313E20ABA
:100A700062085E028A11031D292D08003608BA009B
:100A800064308312A400A501831636088312A000E7
:100A9000831637088312A100A922831203132608A4
:100AA0008316B90064303A028A110319592D031CC8
:100AB000602D30303907BB003B0819258A11622DA3
:100AC000203019258316031339088312A000A101D1
:100AD0006430A200A3018A11962283120313240812
:100AE0008316BB003B08B602031CB7030A3083120F
:100AF000A400A501831636088312A00083163708C8
:100B00008312A1008A11A9228312031326088316D7
:100B1000B9000A303A028A110319902D031C972D4F
:100B200030303907BB003B0819258A11992D203038
:100B300019258316031339088312A000A1010A3076
:100B4000A200A3018A11962283120313240883169C
:100B5000BB003B08B602031CB7033708BC003030AB
:100B60003607BB000318BC0A3B088A11192D0F2554
:100B70000D3083120313D500D6015F30DB00023045
:100B80004038DC008A112525073083120313D50075
:100B9000D6018830DB0002304038DC008A11252580
:100BA00083120313B801FF308312031338028A152E
:100BB0000319F32C38088A11EE2483120313B80AA0
:100BC0000A30D500D6018A110D238A11D32D831640
:100BD000BA0001303A02031DF22D8312311431089C
:100BE0008700F62D8312B11431088700B111310846
:100BF000870083163B088312B000300886008316F6
:100C00008601000000008312AF162F088500000047
:100C100000000000000000000000000000000000D4
:100C20000000AF122F088500B11031088700311085
:100C300031088700000000000000000000000000F4
:100C4000000000000000000008008316B300FF3021
:100C5000860001303302031D322E83123114310815
:100C60008700362E8312B11431088700B115310880
:100C7000870000000000AF162F088500000000006C
:100C80000000000000000000000000000000000064
:100C900006088316B4008312AF122F088500B11026
:100CA0003108870031103108870000000000000083
:100CB000000000000000000000000000000083169B
:100CC000340808003F3083160313BB000030E725CB
:100CD0003F3083160313BB0001308A11E72D8312C6
:100CE0000313B11231088700080083120313B116F1
:100CF000310887000800B300B6013F303302031902
:100D0000872E031C872E4030B3020130B6006F26B9
:100D10004030831603133304B9003908BB0036088A
:100D20008A11E725031083160313340CB80003104F
:100D3000B80C0310B80CB8303804B9003908BB003F
:100D400036088A11E7258A1175268316031335089C
:100D5000BB0036088A11E72D83120313D500D70193
:100D6000DB016F2683120313DE01B8305704E20063
:100D700062088316BB0083125E088A11E7250130E2
:100D800083120313DE00B8305704E20062088316B2
:100D9000BB0083125E088A11E72583120313DE016C
:100DA000E20140306204E40064088316BB00831251
:100DB0005E088A11E725013083120313DE00E20189
:100DC00040306204E40064088316BB0083125E08AE
:100DD0008A11E7258A11752683120313DD01550850
:100DE0008316BB0000308A11E725831203135508D0
:100DF0008316BB0001308A11E72583120313DD0A35
:100E000040305D028A11031DEF2ED70ADB0A08303D
:100E10005B02031DB12E0800D5005508DE005708FF
:100E2000E2005B0855020319172F03181B2F550802
:100E30005B02E4001E2F5B085502E4005D085702C8
:100E40000319242F0318282F57085D02E5002B2FC4
:100E50005D085702E500640865020319312F031885
:100E6000342F6408E600362F6508E600E701E80144
:100E7000DB2F5E08EB00EE013F306B020319462FBB
:100E8000031C462F4030EB020130EE006F2640304D
:100E9000831203136B048316A8002808BB00831277
:100EA0006E088A11E725031083120313620C831660
:100EB000A7000310A70C0310A70CB8302704A80044
:100EC0002808BB0083126E088A11E7258A1175264F
:100ED000831203136E088A11252683120313ED0073
:100EE0006E088A11252683120313ED008A116A1CED
:100EF0008C2F073062058316A0002008FE00013009
:100F0000A3007E08862F0310A30DFE03031D832F6D
:100F100023088312ED04A02F073062058316A0007A
:100F20002008FE000130A3007E08992F0310A30DB6
:100F3000FE03031D962F2309A40024088312ED0548
:100F40006F264030831203136B048316A800280811
:100F5000BB0083126E088A11E7258A117526831259
:100F600003136D088316BB0083126E088A11E725F0
:100F700083120313670864028A110319CA2F031C22
:100F8000CA2F5B0855020319C72F0318C92FDE0AA1
:100F9000CA2FDE03670865020319D92F031CD92F56
:100FA0005D0857020319D62F0318D82FE20AD92F4C
:100FB000E203E70AE80A68086602031D392F080001
:100FC000D50055085B02E40057085D02E500E60124
:100FD000E7016408A000A1016508A200A301962210
:100FE000831203132408E8002508E900EB01EC0153
:100FF0008A151A296708650283162011031920151E
:101000008312660864028316A0110319A015201626
:101010002019A01D20128A15201E1028A0141128A6
:10102000A010831266085507DE0067085707DF0027
:101030005F08EF005E088316A70083123C08831642
:101040002702211303192117211B2111211F21150B
:10105000031083126F0C8316A8000310A80C031052
:10106000A80C83123D0883162802221003192214AB
:101070002218A112221CA11683123B088316A11567
:101080000319A1112112211DA11A21162216211ABC
:10109000A11D2212221E6328031083123D0D831608
:1010A000A8000310A80D0310A80D2808B40083128F
:1010B0003B088316B50027088A117B268312031389
:1010C000BB01BC01BD018316B0013F3027028A1568
:1010D00003197028031C70284030A7020130B000AB
:1010E00083123B08031DA4288A116F264030831603
:1010F00003132704B2003208BB0030088A11E72529
:101100000310831203136F0C8316B1000310B10C8C
:101110000310B10CB8303104B2003208BB00300803
:101120008A11E7258A1175268316031330088A1160
:10113000252683160313AE0030088A112526831650
:101140000313AE008A15A7283B088316AE00201CA7
:10115000BC28073083126F058316AF002F08FE00EE
:101160000130A8007E08B7280310A80DFE03031D58
:10117000B4282808AE04D028073083126F058316E0
:10118000AF002F08FE000130A8007E08CA28031017
:10119000A80DFE03031DC7282809A9002908AE05CC
:1011A000A01CE9288A116F264030831603132704F8
:1011B000B1003108BB0030088A11E7258A11752675
:1011C000831603132E08BB0030088A11E7258A1501
:1011D000F7282E088312BB00831627088312BC0051
:1011E00003106F0CBD000310BD0C0310BD0C831267
:1011F0000313E70A67086502031D0029E701E60AF1
:1012000067086502831620130319201783126608E6
:1012100064028316A0130319A0172114201BA01F1A
:101220002110211C1529A0141629A0108312EB0AE5
:101230000319EC0A6B086802A0006C08690220041C
:101240008A11031DFA2F080000308A11AC2ED50038
:101250006430A400A5015B08A0005C08A1008A110D
:10126000A922831203132608E6006608A000A10144
:101270006430A200A3018A1196228312031324086A
:10128000DE005C08E0005E085B02DF00031CE00398
:101290000A30A400A5015F08A0006008A1008A111F
:1012A000A922831203132608E7006608A000A10103
:1012B0006430A200A3018A1196228312031324082A
:1012C000DE005C08E0005E085B02DF00031CE00358
:1012D0006708A000A1010A30A200A3018A1196228A
:1012E000831203132408E10061085F02E800303034
:1012F0006607EA005508EE0083162010A301A4013A
:10130000AA30A7000530A8001F3083126A028A1590
:1013100003198D2903188D29482A87306A02031979
:101320009429031C9429482A20306A028316AA00B3
:10133000AB012A088312A00083162B088312A10098
:101340000530A200A3018A119622831203132408F8
:101350008316AC00831225088316AD002D08A40760
:101360002C08A3070318A40AB1018A15432A2308ED
:101370008312A800831624088A11042083160313FD
:10138000A7008A15201CD4292308B6002408B7001A
:101390008A113E25831603132708B600B7018A1168
:1013A0003E250A308A1119258A116F264030831292
:1013B00003136E028A150319092A0318092A8316D2
:1013C000B301403083126E048316B4003408BB00AE
:1013D00033088A11E725031083120313570C831671
:1013E000B2000310B20C0310B20CB301B8303204D7
:1013F000B4003408BB0033088A11E7258A1175262A
:10140000831603132708BB0000308A11E7258A15CD
:101410003A2A80306E0203193A2A03183A2A4030D9
:101420006E028316B2000130B40040303204B500C1
:101430003508BB0034088A11E72503108312031313
:10144000570C8316B3000310B30C0310B30C013018
:10145000B400B8303304B5003508BB0034088A1135
:10146000E7258A117526831603132708BB00013070
:101470008A11E72583160313A30A0319A40A83120A
:10148000EE0A8316B10A310828028A15031DB7290E
:10149000063083125507DE0030306707DF005F0833
:1014A000EB005E08EE0083162010A301A401AA3011
:1014B000A7000530A8001F3083126B020319632AAE
:1014C0000318632A1E2B87306B0203196A2A031C38
:1014D0006A2A1E2B20306B028316AA00AB012A0851
:1014E0008312A00083162B088312A1000530A200EE
:1014F000A3018A1196228312031324088316AC00D9
:10150000831225088316AD002D08A4072C08A30715
:101510000318A40AB1018A15192B23088312A80005
:10152000831624088A11042083160313A7008A1542
:10153000201CAA2A2308B6002408B7008A113E25D9
:10154000831603132708B600B7018A113E250A3017
:101550008A1119258A116F264030831203136E02F7
:101560008A150319DF2A0318DF2A8316B3014030D6
:1015700083126E048316B4003408BB0033088A114A
:10158000E725031083120313570C8316B2000310D0
:10159000B20C0310B20CB301B8303204B4003408FA
:1015A000BB0033088A11E7258A11752683160313B9
:1015B0002708BB0000308A11E7258A15102B8030E0
:1015C0006E020319102B0318102B40306E02831685
:1015D000B2000130B40040303204B5003508BB0021
:1015E00034088A11E725031083120313570C83165E
:1015F000B3000310B30C0310B30C0130B400B830C7
:101600003304B5003508BB0034088A11E7258A1178
:101610007526831603132708BB0001308A11E725BE
:1016200083160313A30A0319A40A8312EE0A83166E
:10163000B10A310828028A15031D8D2A0C30831245
:101640005507DE0030306807DF005F08ED005E08F8
:10165000EE0083162010A301A401AA30A7000530D4
:10166000A8001F3083126D020319392B0318392B80
:10167000080087306D020319402B031C402B080023
:1016800020306D028316AA00AB012A088312A00045
:1016900083162B088312A1000530A200A3018A1132
:1016A00096228312031324088316AC0083122508A4
:1016B0008316AD002D08A4072C08A3070318A40A5D
:1016C000B1018A15EF2B23088312A8008316240882
:1016D0008A11042083160313A7008A15201C802B6F
:1016E0002308B6002408B7008A113E258316031389
:1016F0002708B600B7018A113E250A308A1119253C
:101700008A116F264030831203136E028A15031963
:10171000B52B0318B52B8316B301403083126E042A
:101720008316B4003408BB0033088A11E725031080
:1017300083120313570C8316B2000310B20C03106C
:10174000B20CB301B8303204B4003408BB00330823
:101750008A11E7258A117526831603132708BB0013
:1017600000308A11E7258A15E62B80306E020319B6
:10177000E62B0318E62B40306E028316B2000130D0
:10178000B40040303204B5003508BB0034088A117B
:10179000E725031083120313570C8316B3000310BD
:1017A000B30C0310B30C0130B400B8303304B500EF
:1017B0003508BB0034088A11E7258A11752683167F
:1017C00003132708BB0001308A11E7258316031392
:1017D000A30A0319A40A8312EE0A8316B10A310878
:1017E00028028A15031D632B0800D500E401EB2CA9
:1017F0005508E5006408A000A1010630A200A3017D
:101800008A119622831203132408E6006608E5076E
:101810005F08AB0064085E07AA000318AB0A2B132D
:101820002B088A11C92283120313E8006508EA0015
:101830006710EB01EC01AA308316A000053083127B
:10184000EE001F3068028A150319292C0318292C71
:10185000EA2C873068020319302C031C302CEA2C48
:10186000203068028316A300A40123088312A0007D
:10187000831624088312A1000530A200A3018A1157
:1018800096228312031324088316A50083122508C9
:101890008316A60026088312EC07831625088312F8
:1018A000EB070318EC0A8316AA018A15E42C6B08CF
:1018B000A8006C088A11042083160313A000831269
:1018C0008A15671C762C6B088316B60083126C0889
:1018D0008316B7008A113E25831603132008B6002D
:1018E000B7018A113E250A308A1119258A116F26FF
:1018F0004030831203136A028A150319AB2C0318B4
:10190000AB2C8316AF01403083126A048316B000FB
:101910003008BB002F088A11E72503108312031338
:10192000570C8316AE000310AE0C0310AE0CAF01C3
:10193000B8302E04B0003008BB002F088A11E7250C
:101940008A117526831603132008BB0000308A1104
:10195000E7258A15DC2C80306A020319DC2C031879
:10196000DC2C40306A028316AE000130B0004030FB
:101970002E04B1003108BB0030088A11E72503109E
:1019800083120313570C8316AF000310AF0C031020
:10199000AF0C0130B000B8302F04B1003108BB00EB
:1019A00030088A11E7258A1175268316031320084B
:1019B000BB0001308A11E72583120313EB0A0319D8
:1019C000EC0AEA0A8316AA0A2A0883126E028A150A
:1019D000031D572CE40A64085B02A0005C08200485
:1019E000031DF82B0800C7014708B0003008860027
:1019F0008316860187118710851287120712071038
:101A00008312311631088700AF122F088500B114F8
:101A1000310887003110310887008A116F26C030E5
:101A200083160313BB0000308A11E725C0308316EC
:101A30000313BB0001308A11E72583120313C7018A
:101A4000C801B8304804C90049088316BB00831296
:101A500047088A11E725013083120313C700C80124
:101A6000B8304804C90049088316BB0083124708F0
:101A70008A11E72583120313C701C80140304804C7
:101A8000C90049088316BB00831247088A11E7255D
:101A9000013083120313C700C80140304804C90055
:101AA00049088316BB00831247088A11E7258A116B
:101AB000622600308A11AC2683120313D7010D3041
:101AC000DB00DC015F30DE0002304038DF00003038
:101AD0008A15F523083083120313D7001430DB0076
:101AE000DC012330DE0002304038DF0000308A1590
:101AF000F523103083120313D7001430DB00DC0110
:101B00003830DE0002304038DF0000308A15F5231F
:101B1000183083120313D7001430DB00DC010E30C1
:101B2000DE0002304038DF0000308A15F523203017
:101B300083120313D7001130DB00DC014D30DE00CF
:101B400002304038DF0000308A15F5232830831238
:101B50000313D7000D30DB00DC016D30DE000230F6
:101B60004038DF0000308A15F52383120313BE01CD
:101B70003E09B9009730B907C7013130C800363087
:101B8000C9003908CA00CB019630CC00CD01C51779
:101B900047084902D2005203CE004A08A0004B0871
:101BA000A1006430A200A3018A11962283120313BC
:101BB0002408CF002508D0004C08A4004D08A5003B
:101BC0004F08A0005008A1008A11A9228312031314
:101BD0002608CF002708D0004F08A0005008A10019
:101BE0004E08A200A3018A1196228312031324082F
:101BF000CF002508D0006430A400A5014F08A00044
:101C00005008A1008A11A922831203132608CF00CD
:101C10002708D0008A15C51F3B2E01304F07D10081
:101C20000030031801305007D20005304807D300B8
:101C30004808D7005108DB005308DD008316201444
:101C4000831247088A11E02783120313480AD10040
:101C50004903D20005304807D3005108D700520885
:101C6000DB005308DD008316201083124F088A1111
:101C7000E0278A15672E01304F07D1000030031886
:101C800001305007D20005304807D3004808D7007C
:101C90005108DB005308DD0083162010831247082B
:101CA0008A11E02783120313480AD1004903D200A6
:101CB00005304807D3005108D7005208DB0053080D
:101CC000DD008316201483124F088A11E0270530A7
:101CD000831203134807D4004808D7004908DB00E3
:101CE0004808DD006A1447088A110C278312031381
:101CF0004808D7004908DB005408DD006A14490889
:101D00008A110C27831203135408D7004708DB00FD
:101D10005408DD006A1449088A110C278312031342
:101D20005408D7004708DB004808DD006A1447085C
:101D30008A110C270A3083120313D500D6018A11A9
:101D40000D2383120313BE0A96303E028A15031D2B
:101D5000B82D242183120313D7010C30DB00DC01E2
:101D60007B30DE0002304038DF0000308A15F5237A
:101D7000063083120313D500D6019030DB00023009
:101D80004038DC008A112525083083120313C10076
:101D90007E30C2001230C3003F30C4004408D70078
:101DA0004208DB004408DD006A1441088A110C2750
:101DB000831203134308D7004108DB004408DD0009
:101DC0006A1441088A110C2700308A1103248312F7
:101DD00003132008B4002108B5004008BA000330FE
:101DE0003F02B900031CBA0335083A028A15031DE5
:101DF000FB2E34083902C5120319002F0318C5162B
:101E00004008BA0003303F07B9000318BA0A350882
:101E10003A02031D0D2F3408390245130319122FFE
:101E2000031C45174512C51E451B4516451EE42ECD
:101E30000830D7003408DB003508DC0000302721EB
:101E4000831203133408BF003508C00000308A1124
:061E500014248A15E42EA3
:02400E00F22F8F
:02401000FF3F70
:00000001FF
