:020000040000FA
:060000000A128A11D72844
:08000800FF00030E8301B200AA
:100010000A08B3008A010408B8002008B0002108CB
:10002000B1000A128A11792D82073034313432340A
:100030003334343435343634373438343934413465
:1000400042344334443445344634820762346134A4
:10005000743474346534723469346A343A34203414
:100060008207663461346C347334653482077434C7
:100070007234753465341030B4000310A40DA50D2E
:100080000310A00DA10D031C4B282308A50722086F
:10009000A4070318A50AB40B3D2808000030A31FCD
:1000A0005D28A009A109A209A309A00A0319A10AB0
:1000B0000319A20A0319A30A0130B5000030AB1FCF
:1000C0006D28A809A909AA09AB09A80A0319A90A50
:1000D0000319AA0A0319AB0A0130B5067028B50145
:1000E0002030B400A401A501A601A7010310AC0DA6
:1000F000AD0DAE0DAF0D0310A00DA10DA20DA30D02
:10010000A40DA50DA60DA70D27082B02031D9228EF
:1001100026082A02031D922825082902031D922879
:1001200024082802031996280318A5282808A402E1
:100130002908031C290FA5022A08031C2A0FA6025E
:100140002B08031C2B0FA7022C14B40B76283508A0
:1001500003190800AC09AD09AE09AF09AC0A0319CF
:10016000AD0A0319AE0A0319AF0AA409A509A60925
:10017000A709A40A0319A50A0319A60A0319A70ABD
:100180000800B71BD228371BCD28360884008313FC
:10019000B708031D8317000808003608B5003708A4
:1001A0003F39D32808008A00031336088200050867
:1001B000C2000608C3000C298316D4005408031992
:1001C000080001305402031DEE28831203130A3085
:1001D000A0000A128A11A00BEB280800D403831296
:1001E00003130630A0000A128A11A00BF5280000A4
:1001F00000008316D5010729831203130D30A000D8
:100200000A128A11A00B022900008316D50A55088C
:100210005402031DFC28080065108D2B0D300313BC
:10022000A000031732080313B60003173308D320C6
:100230000A3083120313A000031732080313B60019
:10024000031733088A11D3283A08C2003B08C300B9
:10025000C8014429031741080313B70003174808CE
:1002600040070313B6000318B70AC1208312031313
:10027000A000031736080313B600031737088A11C6
:10028000D32083120317C80A480842020313A000B0
:1002900003174308031320048A11031D2A290800A9
:1002A000341C5F293008B6003108B7000430BA00AA
:1002B000BB013730C00000304038C100242930086D
:1002C000B6003108B7000530BA00BB013130C000BC
:1002D00000304038C10024298312651C7E2930304B
:1002E000A0006A08B6006B08D3207830831203138D
:1002F000A0006A08B6006B088A11D3208316031386
:100300003E0E0F39CD00CE010F304D05CF00D0018C
:1003100000308A004F088A11142083120313A000B2
:100320006A08B6006B088A11D320831603133E08AF
:10033000CD00CE010F304D05CF00D00100308A0036
:100340004F088A11142083120313A0006A08B60014
:100350006B088A11D3200310831603133E0CCE00C2
:100360003D0CCD0003308312A00003108316CE0C89
:10037000CD0C83128A11A00BB5290F3083164D05C1
:10038000CF00D00100308A004F08142083120313DD
:10039000A0006A08B6006B088A11D3200F308316BC
:1003A00003133D05CD00CE0100308A004D088A11AF
:1003B000142083120313A0006A08B6006B088A1188
:1003C000D32883120317B6000313651CFC293030B1
:1003D000A000031732080313B60003173308D32015
:1003E000783083120313A000031732080313B600FA
:1003F000031733088A11D32083120317360E0F39DF
:10040000B8000F303805B90000308A0039088A1169
:10041000142083120313A000031732080313B6003D
:10042000031733088A11D3200F30831203173605C0
:10043000B80000308A0038088A1114208312031390
:10044000A000031732080313B600031733088A11FC
:10045000D3283008B8003108B9003408BC0035088A
:10046000BD000030BD1BFF30BE00BF001030C40017
:100470002730C500C601C7010530622A3008CA000E
:100480003108CB003408CC003508CD00CE01CF01B7
:100490001030D0002730D100D201D3010530A92A75
:1004A0000317B4003008CA003108CB003408CC0070
:1004B000CD01CE01CF016430D000D101D201D301F2
:1004C0000330A92AC9003F08803A0313A0008030F6
:1004D0002002031D762A003003173E02031D762AF0
:1004E00000303D02031D762A00303C020319902A99
:1004F0000318902A0317BC09BD09BE09BF09BC0A2D
:100500000319BD0A0319BE0A0319BF0A2D300313CC
:10051000A000031738080313B60003173908D320C7
:10052000831203173808CA003908CB003C08CC00F6
:100530003D08CD003E08CE003F08CF004408D00063
:100540004508D1004608D2004708D30049088A115F
:10055000A92AD4004C084D044E044F04031DBA2AA6
:1005600030300313A00003174A080313B600031723
:100570004B08D32857145308803A0313A000803047
:100580002002031DCE2A003003175202031DCE2A7B
:1005900000305102031DCE2A003050020319522BA5
:1005A000031C522B031750080313A800031751080C
:1005B0000313A900031752080313AA0003175308D3
:1005C0000313AB0003174C080313A00003174D08D7
:1005D0000313A10003174E080313A20003174F08CB
:1005E0000313A3006F20831203132C080317D500F5
:1005F000031324080317CC00031325080317CD00A9
:10060000031326080317CE00031327080317CF0090
:100610000A300313A800A901AA01AB01031750086F
:100620000313A000031751080313A1000317520876
:100630000313A200031753080313A3008A114E20CB
:10064000831203132C080317D00003132D0803177C
:10065000D10003132E080317D20003132F0803172A
:10066000D3005508D7150319D7115712571C571621
:10067000D712D71D571AD7168A11D71E4F2B3030D5
:100680005504D60056080313A00003174A080313A5
:10069000B60003174B08D320831203175710D40357
:1006A0008A11BB2A08000A30831699001815080021
:1006B0005323831603138C120C1298169030831256
:1006C00098000800C1000C1A662B632B41089900A2
:1006D0000800831203138C1E732B1A080317B00033
:1006E00003138C12762B031732107C2B981C7A2B59
:1006F00018121816031732143218812B0313201006
:10070000832B0313201403173008080083120313EC
:100710002008C00040088A11622B58238A11DA2B66
:10072000080083164D1083126A08A0006B08A10010
:100730000A30A200A3013B2083120313240883166E
:10074000BD00831225088316BE0014308312A80052
:10075000A901AA01AB0183163D088312A0008316EC
:100760003E088312A100A201A3018A116F20831207
:1007700003132C08C400103044028316CD10031D4F
:100780000318CD143C308312440283164D118A1194
:100790000319CC2B031C4D15CD15CD184D1DCD11B6
:1007A000CD194D144D18D72B831220100800831239
:1007B0002014080083120313B901272CD100510D16
:1007C0008312A000A00DA00D3830A005C7301F0572
:1007D00020049F001F144508DC20831203131F15FB
:1007E0008A111F1DF42BF02B1E088316D200263011
:1007F000831244020319FE2B031C082C83120313DB
:10080000C630A0000A128A11A00B042C0000122C82
:10081000831203133330A0000A128A11A00B0E2C8E
:10082000000000001F1083165208080083160313EF
:10083000BD003D08DE2383120313EF0083161E085C
:100840008312EE006E08A0006F08A1000800C330FC
:10085000E705831685168514051405158515C3301F
:10086000831267052438E700670CA300660CA2001A
:10087000650CA100A30CA20CA10C2108A0000F3054
:10088000A0050F302005A100F03083161F0583124C
:10089000210483169F0023308312A0008623863014
:1008A00083120317B2000330B30009308A11E1212B
:1008B0005F3083120313A0008A11862386308312CF
:1008C0000313EA000330EB00670CA200660CA100E2
:1008D000650CA000A20CA10CA00C20088316BD0082
:1008E000831221088316BE000F30BD058A116C21CA
:1008F000831603139F17E3308312E7054030EA00A5
:10090000EB018A11912383120313E7122018E716D3
:100910008A11E71E902CE33067051838E700E22CB7
:100920002030EA00EB01912383120313E713201810
:10093000E7178A11E71FA12CE33067050838E700A5
:10094000E22C1030EA00EB01912383120313E8102C
:100950002018E8148A11E81CB22CE330670514381B
:10096000E700E22C0830EA00EB0191238312031325
:10097000E8112018E8158A11E81DC32CE33067053B
:100980000438E700E22C0430EA00EB0191238312E3
:100990000313E8122018E8168A11E81ED42CE3305D
:1009A00067051038E700E22C0230EA00EB019123E2
:1009B00083120313E8132018E8178A11E81FE22CAA
:1009C000E330E705670CA300660CA200650CA100EC
:1009D000A30CA20CA10C2108A0000330A005200C40
:1009E000A100A10C210CA100C030A1053F301F05C2
:1009F00021049F00671AFF2C83161F13012D8316F5
:100A00001F1715308312C500BD2D8B1283120313DF
:100A100046088316D500831247088316D6008B1626
:100A200055088312A000831656088312A1000800FF
:100A3000D5000230550203191F2D031C202D08007C
:100A40008B120310550DD9004830590784008313C9
:100A500057088000840A580880008B160800831607
:100A6000D500023055020319372D031C3A2D83128D
:100A7000201408000310550DD70048305707840094
:100A800083130008840A0004031D552D0310550D1F
:100A9000D80048305807840083130008840A0004F3
:100AA000031D552D83122014080083122010080006
:100AB000F830831601050438810063308312CC00BE
:100AC0008316811281110B118B168B170B17831252
:100AD000EA0103106A0DEC0048306C0784008313B0
:100AE0008001840A8001EA0A02306A02031D692D2E
:100AF00008000B1DB02D4C088100C60A0319C70A57
:100B0000BF0103103F0DBC0048303C078400831335
:100B10000008840A00040319AA2D03103F0DBD002C
:100B200003103F0DBE0048303E07840083130008C9
:100B3000A000840A0008A10049303D078400831307
:100B40002108800084030130200280000130840AE3
:100B5000031C8002BF0A02303F02031D812D0B11CE
:100B60003008A0003108A1003808840033088A004A
:100B7000320E8300FF0E7F0E090058258A11072EC2
:100B8000831603131114111CC62DC32D08008316E0
:100B900003139114911CCD2DCA2D08008316031345
:100BA0001115111DD42DD12D080083120317BA0081
:100BB00003138C1103173A08031393008C19E12DCA
:100BC000DE2D8316111BE72D8312201408008312DB
:100BD000941294162010080083160313911514180C
:100BE000F22DEF2D831203173C1CFA2D83160313ED
:100BF0009112FD2D8316031391161116111E012E4D
:100C0000FE2D831213080317BA003A080800831652
:100C1000861206120611861083120313C3124308AC
:100C20008600431243088600431143088600C31020
:100C3000430886008316071187108312BA0101301A
:100C4000BB00482EEA00BA010130BB003A0383160C
:100C50009200013083126A02031D322EFC3092058D
:100C60001215080004306A02031D3C2EFC301205E8
:100C7000013892001215080010306A02031D462E3A
:100C8000FC301205023892001215080012110800FB
:100C9000CD01CE01562EF030831203134E050C38D1
:100CA000CE004D0895004E0897000800CF01D001F6
:100CB000642EF0308312031350050C38D0004F0817
:100CC0009B0050089D000800013022268A114B2607
:100CD0008A11592683168613061386118A11AF2F9F
:100CE00083168615061786170530DC20C830831258
:100CF00006050313EA0051086A028A110319852EBA
:100D0000C8300605D1000A30D200520803198D2ED2
:100D1000D2036511E510E5119C2E083051026511D2
:100D20000319651540305102E5100319E5148030B0
:100D30005102E5110319E515651DA12E5230A000E1
:100D40008623831203138A11E51CA92E5330A000B9
:100D50008623831203138A11E51DB12E4C30A000A7
:100D60008623831686110613861308008630031720
:100D7000B6000330B7000A30BA00BB012630C0000D
:100D800000304038C100242102308A111624831219
:100D900003132008EA002108EB0086300317B00097
:100DA0000330B10003136A080317B40003136B0880
:100DB0000317B5008A113E2203308A1116248312CC
:100DC00003132008EA002108EB002030A0008A115C
:100DD0008623863083120317B0000330B10003135B
:100DE0006A080317B40003136B080317B5008A11D0
:100DF0003E2204308A111624831203132008EA00CD
:100E00002108EB002030A0008A118623863083124F
:100E10000317B0000330B10003136A080317B400CE
:100E200003136B080317B5008A113E222B3083127F
:100E30000313A0008A118623863083120317B200A1
:100E40000330B30003131F088A11E1212B308312F2
:100E50000313A0008A118623863083120317B20081
:100E60000330B300831603131F088A11E121863073
:100E700083120317B2000330B3008A110E29EA006F
:100E800000305802031D462F963057026C1003198C
:100E90004B2F03186C1400305A02031D512F96304B
:100EA0005902EC100319562F0318EC146C116C1C2A
:100EB000EC186C156C1D602FE830DB000330DC0093
:100EC0005B085C0403190800DB035B0A0319DC03FD
:100ED00000305802031D6E2F963057026C12031912
:100EE000732F03186C1600305A02031D792F9630A9
:100EF0005902EC1203197E2F031CEC166C176C1AA6
:100F0000EC1E6C136C1F882F9C30D300D401AC2FC7
:100F100000305802031D8E2F96305702EC13031930
:100F2000932F031CEC1700305A02031D992F9630A3
:100F300059026D1003199E2F03186D14ED14EC1B4C
:100F40006D1CED10ED1CA82FD3019C30D400AC2FEC
:100F50009C30D3009C30D4006A08D5000800FF30D4
:100F600083120313DD008A15E92883120313EA00B4
:100F7000E51CBC2FFF30DD00E51DC12F6516FA30E2
:100F8000DD00651DC62F6512FA30DD005D0803190E
:100F90000800FA305D020319FF2F031CFF2F0525FF
:100FA0008312031320088316BD00831221088316C1
:100FB000BE003D08BF00C001003040028A11031D81
:100FC000E32F0A303F020319F32F0318F32F831284
:100FD000C31543088600C317430886004317430818
:100FE00086008A1583288312C31143088600C31321
:100FF000430886004313430886008A15832800307F
:101000002F25831203138A152018092883165213DB
:101010000B2883165217521F36281430D700D801D8
:1010200000308A111825323083120313A800A90159
:10103000AA01AB015D08A000A101A201A3018A11D0
:101040006F20831203132408EC008316BD013D08B2
:101050008A15031D3428143083126C0203193428B6
:10106000031C34281E30DD028312DD03C8308312D6
:101070005D0203194728031C4728C315430886004F
:10108000C313430886004313430886008328963021
:101090005D0203195728031C5728C3114308860013
:1010A000C31743088600431343088600832864302F
:1010B0005D0203196728031C6728C31143088600D3
:1010C000C313430886004317430886008328323041
:1010D0005D0203197728031C7728C3114308860093
:1010E000C3174308860043134308860083285D081E
:1010F00003198328C31543088600C31743088600D5
:10110000431743088600D301D4016A08D5000800BC
:10111000831603130512831242124208850014300D
:101120008A11DC2000308A11162483120313200850
:10113000D7002108D80001308A1116248312031326
:101140002008D9002108DA0042164208850028301C
:101150008A11DC2000308A11162483120313200820
:10116000EA002108EB0058086B028A15031DBA2813
:1011700057086A020319C728031CC72858086B02BE
:10118000D80057086A02D700031CD803C928D70122
:10119000D80101308A111624831203132008EA00B3
:1011A0002108EB005A086B028A15031DD92859083B
:1011B0006A020319E628031CE6285A086B02DA00C3
:1011C00059086A02D900031CDA030800D901DA01C0
:1011D0000800DE01DF01F02A8A11C025A0308A1143
:1011E000D5258312031733080313A000A10120089B
:1011F0000317B80038088A11D5258312031732085F
:10120000B80038088A11D5258A11C725A1308A115E
:10121000D525831203173C108A11EC25831203177E
:10122000B6008A11CE258312031736080800DE01A6
:10123000DF0100305F02031D1F2920305E02031909
:101240004229031842295E080317B20003135F08FE
:101250000317B300EC2083120317B0008630B200EE
:101260000330B30030088A11E121203083120313C8
:10127000A0008A11862383120313DE0A0319DF0AF2
:101280008A15192986300317B2000330B3008A117A
:101290000E298A11692383120313EA006C102018A7
:1012A0006C148A156C1CEF2A64306A02031D5929DC
:1012B000172973306A02031DCE2A53308316BD00EE
:1012C0007430BE006130BF007430C0007530C100A2
:1012D0007330C2000D30C3000A30C4005730C5005F
:1012E0006930C6006E30C7006E30C8006530C90076
:1012F0007230CA003A30CB002030CC0086308312E6
:101300000317B6000330B7001030BA00BB01BD3080
:10131000C000C1018A112421863083120317B00056
:101320000330B100031356088A115022863083120D
:101330000317B2000330B3008A110E214430831624
:101340000313DA007230DB006130DC006130DD0055
:101350006930DE007230DF006930E0006330E100A8
:101360006830E2007430E3006930E4006E30E5007C
:101370006730E6003A30E7002030E800863083121C
:101380000317B6000330B7000F30BA00BB01DA30E4
:10139000C000C1018A112421863083120317B000D6
:1013A0000330B10003138A15651AD92903173410C5
:1013B000DB29031734148A11502186308312031756
:1013C000B2000330B3008A110E215030831603138C
:1013D000E9006330EA006630EB003A30EC00203080
:1013E000ED003030EE007830EF00863083120317C6
:1013F000B6000330B7000730BA00BB01E930C000C7
:10140000C1018A112421863083120317B2000330F0
:10141000B30000308A11E121863083120317B20035
:101420000330B3008A110E21563083120317900047
:101430006C3091006F3092006530930072309400F0
:1014400073309500653096006E30970073309800C9
:101450006F30990072309A0020309B0028309C0039
:101460004C309D002C309E0052309F002930A0004F
:101470003A30A1002030A2008630B6000330B70019
:101480001330BA00BB011030C0000130C1008A1116
:101490002421863083120317B0000330B1000313F8
:1014A00057080317B400031358080317B5008A112F
:1014B0003E22203083120313A0008A118623863037
:1014C00083120317B0000330B10003135908031748
:1014D000B40003135A080317B5008A113E22863060
:1014E00083120317B2000330B3008A110E214D306E
:1014F00083120317A3006F30A4007430A5006F306F
:10150000A6007230A7002030A8002830A9004C3077
:10151000AA002C30AB005230AC002930AD003A307C
:10152000AE002030AF008630B6000330B7000D307B
:10153000BA00BB012330C0000130C1008A11242150
:10154000863083120317B0000330B1000313530831
:101550000317B4000030B41BFF30B5008A112922F4
:10156000203083120313A0008A1186238630831251
:101570000317B0000330B100031354080317B4007D
:101580000030B41BFF30B5008A1129228630831247
:101590000317B2000330B3008A110E2942308316BC
:1015A000BD006130BE006430BF002030C000633039
:1015B000C1006D30C2006430C3000D30C4000A3079
:1015C000C500863083120317B6000330B700093018
:1015D000BA00BB01BD30C000C1018A112429080036
:1015E0000A308316A0005230A1006930A2006B308F
:1015F000A3006930A4007330A5006830A6006930EC
:10160000A7002030A8004E30A9004730AA002030A3
:10161000AB002830AC005630AD003230AE002E307A
:10162000AF003030B0002930B1000D30B2000A30C8
:10163000B300863083120317B6000330B7001430AE
:10164000BA00BB01A030C000C1018A11242183125D
:10165000031395019B018A15861E302BE512312B51
:10166000E5164312E51A431643088600061D3A2B79
:1016700065133B2B6517C310651BC3144308860015
:10168000FF30D600FF30E2008A11B6268A11052508
:10169000831203132008E3002108E40060086302BA
:1016A000A0006108640220048A150319462B8A11E0
:1016B0000525831203132008E0002108E1008A11A8
:1016C00070268A15882000308312031362028A155F
:1016D00003199F2B50308316B4006330B500663079
:1016E000B6004430B7006130B8007430B9006130E2
:1016F000BA003A30BB002030BC008630831203179A
:10170000B6000330B7000930BA00BB01B430C000E6
:10171000C1018A112421863083120317B2000330DD
:10172000B30000308A11E121863083120317B20022
:101730000330B3008A110E2183120313E201D30197
:10174000D401D501083055028A150319AC2B0318B2
:10175000AC2B09308A113F270F308A11B52783122D
:101760000313560855028A150319E72B57308316C1
:10177000B4006930B5006E30B6006E30B700653029
:10178000B8007230B9003A30BA002030BB00863061
:1017900083120317B6000330B7000830BA00BB014C
:1017A000B430C000C1018A1124218630831203178E
:1017B000B0000330B100031355088A11502286305F
:1017C00083120317B2000330B3008A110E21831273
:1017D00003135508D6000C3097005308803AA00038
:1017E000803020028A150319F72B031CFE2B0310EF
:1017F000530D9B00431143088600072C5309013EFB
:10180000E3000310630D9B00431543088600061D8B
:101810000B2C66120C2C6616C310661AC3144308F0
:1018200086000C309D005408803AA00080302002D1
:1018300003191C2C031C232C0310540D9500C312F8
:10184000430886002C2C5409013EE3000310630D6D
:101850009500C31643088600861E302C6613312C73
:1018600066174312661B43164308860000308A1130
:101870002F2583120313E6132018E6178A15E61F97
:101880005B2C64308316D700D80100308A111825EC
:101890000F308312031356028A150319592C861F21
:1018A000532CE710542CE714C313E718C31743084D
:0E18B00086008A11B6268A1549218A15462B14
:02400E007A3FF7
:00000001FF
