:020000040000FA
:1008000002EF04F07E6A7F6AC26AC16AC06A6D6ADA
:100810006B6A949C9498928694848288828C00015E
:10082000000E606F000E616F000E626F622F16EF98
:1008300004F0612F14EF04F0602F12EF04F00001B8
:10084000D70E606FAB0E616F530E626F622F26EF93
:1008500004F0612F24EF04F0602F22EF04F0000079
:1008600063816383639500018E0E606FA70E616FD5
:10087000A70E626F622F3AEF04F0612F38EF04F099
:10088000602F36EF04F000000000000080B64CEF4F
:1008900004F063914DEF04F0638182B453EF04F0F0
:1008A000639354EF04F0638363A160EF04F063B5D6
:1008B0005DEF04F0829861EF04F0828861EF04F04C
:1008C000829863A36DEF04F063B56AEF04F0829C35
:1008D0006EEF04F0828C6EEF04F0829C63A574EFDF
:0E08E00004F0639533EF04F0638533EF04F00A
:00000001FF
