:020000040000FA
:100000000A128A1157298207203461346E3464340D
:10001000203472346534703472346534733465342A
:100020006E3474347334203441345334433449349B
:100030004934203463346834613472346134633455
:100040007434653472342034820756346134723427
:100050006934613462346C3465342034783420344B
:1000600068346134733420346434653463346934FF
:100070006D3461346C342034763461346C347534CE
:1000800065342034820720342D34203454346534D0
:100090007334743420347034723469346E3474348C
:1000A0002E346A3461346C342D3420346234793423
:1000B0007434653473340D340A348207543465342F
:1000C0007334743420347034723469346E3474345C
:1000D0002E346A3461346C3420342D34203464344A
:1000E00077346F347234643473340D340A348207D5
:1000F0005434653473347434203470347234693455
:100100006E3474342E346A3461346C3420342D34BB
:10011000203477346F347234643473340D340A34D9
:100120008207543465347334743420347034723438
:1001300069346E3474342E346A3461346C3420344F
:100140002D3420346234693474340D340A34820717
:100150002034773468346934633468342034693443
:100160007334203468346534783420347634613420
:100170006C34753465342034820730343134323491
:100180003334343435343634373438343934413414
:10019000423443344434453446348207663461344F
:1001A0006C34733465348207743472347534653456
:1001B0008207683469346734683482076C346F347A
:1001C00077340030A31FF028A009A109A209A309D0
:1001D000A00A0319A10A0319A20A0319A30A0130EC
:1001E000B1000030AB1F0029A809A909AA09AB0971
:1001F000A80A0319A90A0319AA0A0319AB0A0130AC
:10020000B1060329B1012030B000A401A501A60167
:10021000A7010310AC0DAD0DAE0DAF0D0310A00D79
:10022000A10DA20DA30DA40DA50DA60DA70D2708C8
:100230002B02031D252926082A02031D252925082E
:100240002902031D25292408280203192929031836
:1002500038292808A4022908031C290FA5022A0806
:10026000031C2A0FA6022B08031C2B0FA7022C1419
:10027000B00B0929310803190800AC09AD09AE0912
:10028000AF09AC0A0319AD0A0319AE0A0319AF0A84
:10029000A409A509A609A709A40A0319A50A03190F
:1002A000A60A0319A70A08008A0032088200070874
:1002B000B6007E29C901CA017529831203135E3075
:1002C000A000FD30A1000330A2000A128A11A20B87
:1002D00065290A128A11A10B63290A128A11A00B3F
:1002E00061290000C90A0319CA0A49084702A00087
:1002F0004A0848022004031D5D2908009F010730B9
:1003000083169F0007309C009D290A30990018151C
:100310000800852183168C120C12981690308312D7
:1003200098000800B5000C1E9329350899000800B4
:1003300083122008B40034089229892183123710CF
:100340008D2D0D30A0004708B200480854210A3016
:100350008312A0004708B200480854295308E3005C
:100360005408E400E601CF295D0866078400831382
:100370005E1883170008031908005E08B3006608BA
:100380005D07B2000318B30A3313330854218312F4
:10039000A0004D08B2004E0854218312E60A6608F8
:1003A0006302A00064082004031DB4290800491C4E
:1003B000E6294708CD004808CE000430D300D40118
:1003C000D430DD0000304038DE00AE294708CD00D3
:1003D0004808CE000530D300D401CE30DD00003017
:1003E0004038DE00AE29491C022A4708CD004808E3
:1003F000CE000430D300D401D930DD0000304038C5
:10040000DE00AE294708CD004808CE000330D300F7
:10041000D401DE30DD0000304038DE00AE29491C5A
:10042000172A3130A0004708B2004808542930305C
:10043000A0004708B20048085429371C2C2A303045
:10044000A0004708B2004808542162308312A0007F
:100450004708B2004808542183124C08A000A101AB
:10046000A201A3012008D5004708DD004808DE00EE
:100470005508822283124B08A0004C08A100A2015B
:10048000A3012008D5004708DD004808DE00550814
:10049000822283124A08A0004B08A1004C08A20047
:1004A000A3012008D5004708DD004808DE005508F4
:1004B000822283124708DD004808DE004908822AAC
:1004C000371C6F2A3030A0004708B200480854217A
:1004D00062308312A0004708B200480854218312FA
:1004E0004A08A000A1012008CF004708DD00480805
:1004F000DE004F08822283124708DD004808DE0034
:100500004908822AE300371C922A3030A0005D0897
:10051000B2005E08542162308312A0005D08B20070
:100520005E0854218312E50180306305E600660809
:100530000319A12A3130A0005D08B2005E085421E1
:10054000A72A3030A0005D08B2005E0854210310D5
:100550008312E30DE50A08306502031D942A0800A2
:10056000371CBF2A3030A0004708B2004808542189
:1005700078308312A0004708B20048085421831243
:100580004C0E0F39D500D601D701D8010F305505D3
:10059000D900DA01DB01DC0100308A005908BC20F7
:1005A0008312A0004708B2004808542183124C0867
:1005B000D500D601D701D8010F305505D900DA0191
:1005C000DB01DC0100308A005908BC208312A00046
:1005D0004708B2004808542183124B08D5004C0844
:1005E000D600D701D8010430A0000310D60CD50CDA
:1005F000A00BF52A0F305505D900DA01DB01DC012B
:1006000000308A005908BC208312A0004708B200BD
:100610004808542183124B08D5004C08D600D70156
:10062000D8010F305505D900DA01DB01DC010030BB
:100630008A005908BC208312A0004708B20048086D
:10064000542183124A08D5004B08D6004C08D70025
:10065000D8010430A0000310D70CD60CD50CA00B89
:100660002B2B0F305505D900DA01DB01DC010030FE
:100670008A005908BC208312A0004708B20048082D
:10068000542183124A08D5004B08D6004C08D700E5
:10069000D8010F305505D900DA01DB01DC0100304B
:1006A0008A005908BC208312A0004708B2004808FD
:1006B0005421031083124C0CD8004B0CD7004A0C69
:1006C000D600490CD5000330A0000310D80CD70C7D
:1006D000D60CD50CA00B652B0F305505D900DA01CF
:1006E000DB01DC0100308A005908BC208312A00025
:1006F0004708B200480854210F3083124905D5003D
:10070000D601D701D80100308A005508BC208312D9
:10071000A0004708B20048085429371C9C2B3030F1
:10072000A0004708B2004808542178308312A00086
:100730004708B2004808542183124A0E0F39CF00EF
:10074000D0010F304F05D100D20100308A0051088E
:10075000BC208312A0004708B2004808542183122D
:100760004A08CF00D0010F304F05D100D201003030
:100770008A005108BC208312A0004708B200480834
:100780005421031083124A0CD000490CCF000330CF
:10079000A0000310D00CCF0CA00BC92B0F304F05BD
:1007A000D100D20100308A005108BC208312A00081
:1007B0004708B200480854210F3083124905CF0082
:1007C000D00100308A004F08BC208312A0004708E7
:1007D000B20048085429C900371CFB2B3030A00058
:1007E0004708B2004808542178308312A000470817
:1007F000B200480854218312490E0F39CD000F3042
:100800004D05CE0000308A004E08BC208312A000A7
:100810004708B200480854210F3083124905CD0023
:1008200000308A004D08BC208312A0004708B200A7
:10083000480854294708D5004808D6004908DF0071
:100840004A08E0004B08E1004C08E200E701CA302A
:10085000E8009A30E9003B30EA000A309B2C470858
:10086000D5004808D6004908DF004A08E0000030FB
:10087000E01BFF30E100E2001030E7002730E80025
:10088000E901EA0105309B2CC9004708D50048085A
:10089000D6004908DF000030DF1BFF30E000E10038
:1008A000E2006430E700E801E901EA0103309B2C33
:1008B0004708EC004808ED0049088316A0008312A1
:1008C0004A088316A10083124B088316A2008312E4
:1008D0004C088316A300A401CA30A5009A30A600D4
:1008E0003B30A7000A30E92C4708EC004808ED002F
:1008F00049088316A00083124A088316A100A201AA
:10090000A3011030A4002730A500A601A7010530DF
:10091000E92CC9004708EC004808ED004908831697
:10092000A000A101A201A3016430A400A501A601B9
:10093000A7010330E92CEB006208803AA000803068
:100940002002031DAD2C00306102031DAD2C0030D0
:100950006002031DAD2C00305F020319C22C031886
:10096000C22CDF09E009E109E209DF0A0319E00A04
:100970000319E10A0319E20A2D30A0005508B2005C
:100980005608542183125508EC005608ED005F0804
:100990008316A000831260088316A10083126108E9
:1009A0008316A200831262088316A30083126708CD
:1009B0008316A400831268088316A50083126908B1
:1009C0008316A60083126A088316A70083126B0899
:1009D000E92C8312EE00831620082104220423044C
:1009E000031DF92C30308312A0006C08B2006D0892
:1009F0005429291483162708803A8312A0008030D6
:100A00002002031D0E2D003083162602031D0E2D1D
:100A100000302502031D0E2D0030240203198C2DF9
:100A2000031C8C2D831624088312A8008316250826
:100A30008312A900831626088312AA0083162708AA
:100A40008312AB00831620088312A00083162108AE
:100A50008312A100831622088312A20083162308A2
:100A60008312A300022183122C08EF0024088316AE
:100A7000A000831225088316A1008312260883167E
:100A8000A200831227088316A3000A308312A8004D
:100A9000A901AA01AB01831624088312A0008316C2
:100AA00025088312A100831626088312A20083164C
:100AB00027088312A300E12083122C088316A400C8
:100AC00083122D088316A50083122E088316A60014
:100AD00083122F088316A70083126F088316A915A7
:100AE0000319A9112912291C2916A912A91D291AAD
:100AF000A916A91E892D303083126F048316A80011
:100B000028088312A0006C08B2006D0854218316D7
:100B100029108312EE03FA2C080083160711053002
:100B20008312C700C8015A21831236153608870080
:100B30000530C700C8015A218312361136088700D4
:100B40004130A000982198308312CD000130CE00B2
:100B50001A30D300D4014330DD0000304038DE00CD
:100B6000AE21D2308312B8009330B9009830C7005C
:100B70000130C8003808892498308312C70001303A
:100B8000C800A12198308312C7000130C80038087E
:100B9000EB2398308312C7000130C800A1219830A0
:100BA0008312DD000130DE00380882229830831283
:100BB000C7000130C800A12198308312C70001305E
:100BC000C8003908442498308312C7000130C80097
:100BD000A12198308312CD000130CE001830D3000F
:100BE000D4017830DD0000304038DE00AE216E30B8
:100BF0008312BA00B230BB009330BC008230BD001B
:100C00009830C7000130C8003A08C9003B08CA0044
:100C1000742498308312C7000130C800A121983095
:100C20008312C7000130C8003A08C9003B08CA0057
:100C30008D2398308312C7000130C800A12198305D
:100C40008312C7000130C8003A08C9003B08CA0037
:100C5000602298308312C7000130C800A12198306B
:100C60008312C7000130C8003C08C9003D08CA0013
:100C70002F2498308312C7000130C800A12198307A
:100C80008312CD000130CE001930D300D4015E3084
:100C9000DD0000304038DE00AE2186308312BE0019
:100CA000C830BF006330C000BF30C100C130C200D7
:100CB000D630C3003D30C4008230C5009830C70034
:100CC0000130C8003E08C9003F08CA004008CB00F8
:100CD0004108CC00582498308312C7000130C80066
:100CE000A12198308312C7000130C8003E08C90016
:100CF0003F08CA004008CB004108CC00B022983021
:100D00008312C7000130C800A12198308312C700A8
:100D10000130C8003E08C9003F08CA004008CB00A7
:100D20004108CC001D2298308312C7000130C80052
:100D3000A12198308312C7000130C8004208C900C1
:100D40004308CA004408CB004508CC001A24983058
:100D50008312C7000130C800A12198308312CD0052
:100D60000130CE001630D300D4019130DD000030C8
:100D70004038DE00AE218312B7149830C70001302E
:100D8000C8004910B71849140F2220308312A00060
:100D9000982198308312C7000130C8004910B71855
:100DA0004914F32120308312A00098219830831237
:100DB000C7000130C8004910B7184914D7212030A6
:100DC0008312A00098218312B7109830C700013019
:100DD000C8004910B71849140F2220308312A00010
:100DE000982198308312C7000130C8004910B71805
:100DF0004914F32120308312A000982198308312E7
:100E0000C7000130C8004910B7184914D7219830DD
:100E10008312C7000130C800A12179308312C600B7
:100E20009830CD000130CE001D30D300D4012530E4
:100E3000DD0000304038DE00AE2198308312C7005C
:100E40000130C8004608892498308312CD00013053
:100E5000CE001430D300D401A830DD00003040387B
:100E6000DE00AE2198308312C7000130C80046086A
:100E7000EB2398308312CD000130CE002030D30018
:100E8000D4010430DD0000304038DE00AE21831292
:100E90004608A000982198308312C7000130C8008E
:100EA000A12198308312C7000130C800A1218F2DE5
:02400E007A3FF7
:00000001FF
