:020000040000FA
:040000008331372BE6
:080008008331302B820709341B
:100010000234433400340234013400348034323446
:10002000093404340034003401340234023401341D
:1000300000340534243400341034013404342434BE
:1000400002340234053424340634003401340534D7
:100050002434013400340134073405348234033449
:1000600008340034023409340434013400340234D6
:100070000A340034003400340734053403340234C5
:10008000083400340034073405348334023408342F
:10009000003400348207363403344D34003469347C
:1000A000003463340034723400346F340034633409
:1000B000003468340034693400347034003420343F
:1000C000003454340034653400346334003468340C
:1000D00000346E3400346F3400346C3400346F34C8
:1000E000003467340034793400342C340034203444
:1000F0000034493400346E340034633400342E3418
:10010000003482071E3403344A340034413400344E
:100110004C3400344C34003449340034423400341C
:1001200020340034533400346534003472340034E5
:1001300069340034613400346C3400342E340034BB
:1001400082074534723472346F347234203473341D
:10015000743461347234743469346E3467342034E6
:10016000703472346F346734723461346D346D348A
:100170006534723421340D340A34820750347234B9
:100180006F346734723461346D346D346534723475
:1001900020346E346F3474342034793465347434DC
:1001A00020347234653461346434793421340D344C
:1001B0000A3482074A3441344C345034493443348D
:1001C00020344F346E346534203464346534623402
:1001D0007534673420346D346F34643465342034BE
:1001E0006F346E342E340D340A3482075234653441
:1001F0007334653474342E340D340A340D340A34B7
:10020000820720346934733420344F344B342E3415
:100210000D340A34820741346434643472346534F2
:10022000733473343A342034820764346F346E3458
:10023000653421340D340A34820744346134743413
:1002400061343A34203482070434033409340434EA
:1002500082074D34433448345034820721344234C9
:1002600046348207213445344634820721344534EC
:1002700045348207213442344534820721345434D2
:1002800082072134563482072134443482072134D2
:10029000503482072134523482072134413482079A
:1002A0005334820741348207233482074334820760
:1002B0004F34820754348207413482074434820722
:1002C0006434820742346C3461346E346B342034CD
:1002D00063346834653463346B3469346E34673442
:1002E000203445344534503452344F344D34203466
:1002F0002E342E342E342034820764346534763420
:1003000069346334653420346E346F34743420348B
:1003100065346D347034743479342134203452347B
:100320006534613464343A3420340D340A3482073D
:100330004434613474346134203470346134723440
:100340007334653464342034733475346334633403
:10035000653473347334663475346C342E340D3430
:100360000A34820742346C3461346E346B34203486
:1003700063346834653463346B3469346E346734A1
:10038000203466346C3461347334683420342E3451
:100390002E342E34203482076534723472346F3434
:1003A00072342034653472346134733469346E3499
:1003B00067342034643465347634693463346534A6
:1003C00021340D340A348207443465347634693478
:1003D00063346534203443346F346E3466346934A6
:1003E000673475347234653464342E340D340A3411
:100400008207533474346F3470342034703472344F
:100410006F346734723461346D346D3465347234E2
:100420002E340D340A340D340A34820753347434B4
:100430006134723474342034703472346F346734FD
:10044000723461346D346D34653472342E340D344D
:100450000A348207503472346F3467347234613432
:100460006D346D34653472342034453472347234F2
:100470006F34723421340D340A348207123401345B
:10048000003402340234003400340834D8340434E4
:100490000A340034013400340134023400340134AD
:1004A0008207503472346F346734723461346D347F
:1004B0006D3469346E34673420342E342E342E3447
:1004C00020340D340A348207443461347434613486
:1004D000203474346F342034703472346F346734A1
:1004E000723461346D343A34203482074E347534BA
:1004F0006D3462346534723420346F3466342034A1
:10050000623479347434653473343A342034820775
:100510004434653462347534673420346D346F3458
:100520006434653420346F34663466342E340D34CC
:100530000A348207453472346134733469346E345A
:100540006734203445344534503452344F344D34BC
:100550002E340D340A3482075634653472346934CB
:100560006634793469346E34673420342E342E3452
:100570002E3420340D340A34820720346934733425
:10058000203469346E3463346F34723472346534B9
:100590006334743421340D340A34820745347234A0
:1005A0006134733469346E346734203466346C34A7
:1005B0006134733468342E340D340A348207503475
:1005C0006134723473346534723420346534723477
:1005D00072346F34723421340D340A348207443457
:1005E000613474346134203476346534723469345F
:0C05F00066346934653464343A342034D5
:100600008207503461347234733465347234203468
:1006100065346E346434653464342E340D340A34F5
:100620008207643465347634693463346534203445
:1006300065346D347034743479342E340D340A34A6
:100640008207443465347634693463346534203445
:10065000493444343A3420348A002000510882005E
:1006600020004808CC004908CD009331942BFC3081
:10067000210099009513383024008C003F30210070
:100680008E002B0020108531AF2D0D302000C800CA
:100690002B0059082000D1002B005A082C230A30C7
:1006A0002000C8002B0059082000D1002B005A0858
:1006B00083312C2B5C08E2005D08E3006208E50052
:1006C0006308E600E4017F2B2B006008640720002C
:1006D000D1000030C9002B0061082000493DD20044
:1006E000521352082C232000C8002B005908200068
:1006F000D1002B005A0883312C232B00E40A640814
:1007000065022000C8002B006608200048048331E1
:10071000031D642B08002A00EF002B00201CA52BD2
:1007200030302000C8002A006D082000D1002A00C7
:100730006E082C2378302000C8002A006D082000A5
:10074000D1002A006E0883312C232A006F0E0F3946
:100750002B00AB000F302B052000C800F0302B0021
:100760002F05200048042B00AF000F302F05B000EC
:1007700030303007B3003930330283310319C42BD2
:10078000031CC42B0730B3073308AB002000C8009C
:100790002A006D082000D1002A006E082C230F309B
:1007A0002A006F052000C800F0302B002F05200024
:1007B00048042B00AF000F302F05B0003030300759
:1007C000B2003930320283310319EA2B031CEA2BC1
:1007D0000730B2073208AB002000C8002A006D08BD
:1007E0002000D1002A006E082C2B0310FA0DFB0DFF
:1007F000FC0DFD0D03107A0D2B00D1007B0DD200F6
:100800007C0DD3007D0DD4000310D10DD20DD30D7E
:10081000D40D5108FA075208FB3D5308FC3D54081B
:10082000FD3D08000130FA00FB01FC01FD01C8019B
:10083000C9017D083902031D272C7C083802031DDD
:10084000272C7B083702031D272C7A0836024C1010
:10085000031D03184C1400304902031D312C0A30CB
:100860004802CC100319362C031CCC144C154C1820
:10087000CC1C4C114C1D442C8331F5232B00C80A91
:100880000319C90A8431192C48084904031D4B2C4B
:100890000130C800C901C803480A0319C90301305F
:1008A000FA00FB01FC01FD014808CD004908CE001B
:1008B000CF01D001612C8331F5232B00CF0A03191E
:1008C000D00A4F084D022000C8002B0050084E02ED
:1008D000200048048431031D5B2C30302B00CB00FA
:1008E00039087D02031D7E2C38087C02031D7E2CF6
:1008F00037087B02031D7E2C36087A020319822CEE
:100900000318922C7A08B6027B08031C7B0FB702EF
:100910007C08031C7C0FB8027D08031C7D0FB90204
:10092000CB0A702C4B082000C8002B003308200095
:10093000D1002B00340883312C232B0048084904B4
:100940008431031D4B2C08002A00EF002B00AB0064
:10095000AC01AD01AE012A006D082B00B3002A00E6
:100960006E082B00B4002B08B6002C08B7002D0829
:10097000B8002E08B900122C9F151E1567309B0079
:100980009C0108006710111A67142100111ACB2C62
:100990002000E710CD2C2000E71467156718E71C2E
:1009A0006711671DED2C560855020319EB2CA0307A
:1009B000840001308500560884070008E600D60A46
:1009C000203056020319E62C031CE72CD6016608DA
:1009D00023009A00ED2C2100111220004C08C800C1
:1009E0004D08C90009002000911EC22C23009D184B
:1009F000FD2C2000E7108431FF2C2000E714853106
:100A000023001D19062D20006711082D20006715F1
:100A1000E711E71C6719E715E71D242D23001908C6
:100A20002000E60023009D1C1F2D1D121D16190815
:100A30002000E600230019082000E600122D200007
:100A4000D801D7018431C22C2030840002308500C7
:100A5000570884072300190880002000570AE60081
:100A6000403066020319362D031C372DE601660857
:100A7000580203193D2D6608D7008431C22C20008E
:100A800058085702031D462D4810592D2030840068
:100A9000023085005808840700082800EE00200076
:100AA000D80A403058020319572D031C582DD8017D
:100AB000481428006E080800F700550856027910FF
:100AC00003197914F910111AF91479157918F91C08
:100AD0007911791D712D21001112770823009A00D8
:100AE000922DA030840001308500550884077708D6
:100AF0008000550AF800203078020319812D031C6C
:100B0000822DF801780856020319892D7808D5003E
:100B1000902D78085602031D8E2D892D7808D5005A
:100B200021001116770808002000D501D601D70151
:100B3000D80123009E019D018431BC2421008E1622
:100B40000E1623009E169D171D16210091160B17D9
:100B50008B17080020004808F60085315C2D210025
:100B60008E1186313D2E2000A41FB72D08002300D2
:100B70005F085C020319C02D0318C02D5C08DF005C
:100B80005D085F022B00CB0023005E020319CD2D10
:100B90000318CD2D5E082B00CB00203023005D070D
:100BA0002000C8000030CA0001304A3DC900480892
:100BB000A6004908A7002B004B082000A500241F11
:100BC000E42D8830A400E62DC830A4002B004B088B
:100BD0002300DD075D085F0208000830DE00DD014C
:100BE000DF01DC0120002413B32D2B00CA002200FA
:100BF000A00008302300DE00DD010130DF000130FD
:100C0000DC0020002413B32D84302000A004080051
:100C100008302000A100A030A200A301033023006F
:100C20006102031D192E8C302B00BA002000A40194
:100C30001C2EC8302B00BA002B003A082000A00060
:100C400008002B00A9000310290DAF000310AF0D01
:100C50000310AF0D2F0AAB002030840085012B0854
:100C600084072A006F0880002030840085012B0053
:100C70002F0884078030800008002300E3012B0048
:100C800020112000E001E101E201E3011030E40065
:100C90008B315A2B200041082B00BA0021303A0238
:100CA000031D552E05302300E10008002000BC1B69
:100CB0005C2E2B004B105E2E2B004B144B1C612E18
:100CC0000800200060086102031D6C2E2B00201913
:100CD0006A2E0800BA017C2E600861020319772E83
:100CE0000318772E610860022B00BA007C2E610980
:100CF0002B00BA002130BA0708303A020319842EBB
:100D0000031C842E0830BA003A08C800BC01A12E8A
:100D1000200061082B003C07BB00A030840003309A
:100D200085003B08840700082000C800D8308400F4
:100D300085012B003C0884072000480880002B0018
:100D4000BC0A3C084802031D882ED8302000BE0093
:100D5000BF012B003A082000BD003C1FB22E883096
:100D6000BC00B42EC830BC0061082B003A07CA0092
:100D70001F304A020319BF2E031CBF2ECA014A08A6
:100D80002000E10008302B003A0220110319201541
:100D900008002A00ED002000600A2B00A900203086
:100DA00029020319A901A030840003308500200026
:100DB000600884072A006D0880002B0029082000A5
:100DC000E0000800603084000230850020006308E5
:100DD000840700082B00A9002000E40A630A2A0007
:100DE000EF0010306F020319EF016F082000E300DD
:100DF0002B00290808002000630862022B0029103C
:100E0000031D291487312918082F200048100800D5
:100E1000200048140800863156260830200064025D
:100E200087310319152F031C1D2FB81B1D2F0830E8
:100E30002A00EF0003308631212E08002000D9015E
:100E4000C230DA000130DB00DC01DD010830DF00F8
:100E5000DE01080020004108E50006306502031DA0
:100E6000EB2F43082B00BB00200042082B00BC00E6
:100E70002300DF012B003B03031D572F12302300FB
:100E8000DF002B00C800BA01512F20308400013050
:100E900085003A0884073A0882313D2280002B0001
:100EA000BA0A3A0848028731031D452FCD2F023078
:100EB0003B02031D742F43302300DF002B00C800CA
:100EC000BA016E2F20308400013085003A08840773
:100ED0003A088031062080002B00BA0A3A084802FE
:100EE0008731031D622FCD2F03303B02031DCB2F13
:100EF0003C08031D932F04302300DF002B00C800A3
:100F0000BA018E2F20308400013085003A08840712
:100F10003A088131232180002B00BA0A3A0848029E
:100F20008731031D822F3C03031DAE2F3630230073
:100F3000DF002B00C800BA01A92F20308400013047
:100F400085003A0884073A0880314A2080002B0047
:100F5000BA0A3A0848028731031D9D2F02303C022D
:100F6000031DCD2F1E302300DF002B00C800BA0167
:100F7000C52F20308400013085003A0884073A08E4
:100F80008031812080002B00BA0A3A08480287315C
:100F9000031DB92FCD2F22303B0223005F08031918
:100FA000E72F0830DE0020004708031DDB2F46082E
:100FB0002300DC00DE2FFF302300DC000330E100E3
:100FC000DD01200024138531B325883108008631E6
:100FD000042688310800053065028731031DFC2F87
:100FE00042082300E2000130E0008531ED250630A3
:100FF0002300E10088310800093065028831031DB3
:10100000352806302300E1008531ED253D00191615
:1010100019159914991540302000AC000830A9002A
:10102000B030AA00AB018030A8003D001A161A1596
:101030009A149A1540302000B4000830B100C03036
:10104000B200B3018030B0003D001B161B159B148D
:101050009B1540302000BC000830B900D030BA00E9
:10106000BB018030B800883108000A306502031DDA
:10107000412803302300E10001308531F525883116
:1010800008006508031D472800308531F52D08004C
:1010900003100F0C2B00A9000310A90C0310A90CBE
:1010A0003D000F1D5F2803102000240C2B00AB0017
:1010B0000310AB0C0F302B052A00EF006A28031039
:1010C0002000200C2B00AB000310AB0C0F302B05C5
:1010D0002A00EF002B0029088931031D96290D30C5
:1010E0002A006F02031D05292B00AF01A0308400E8
:1010F00085012F08840700082000C80040308400C4
:1011000085012B002F0884072000480880002B0051
:10111000AF0A08302F028831031D76283D000E12D9
:10112000863108263030200040052B00AB002B080C
:101130008831031D9F2887312A278A3108002030F3
:101140002B028831031DFE28200041082B00B0002F
:10115000233030028831031DB42806302300E1001B
:101160008531ED258931032920303002031DBD284A
:1011700002302300E1008831FC2821303002031DB9
:10118000EE28FF302300DC000730DF002B00B30027
:10119000B201DE2859308400850132088407000836
:1011A0002000C80020308400013085002B00320868
:1011B00084072000480880002B00B20A320833025E
:1011C000031DCA2808302300DE000330E100DD01E2
:1011D000200024138531B3258831FC2822303002C9
:1011E0008831031DFC2806302300E1008531ED2500
:1011F000200042082300E3008A31080040302B021F
:101200008A31031DA52A8A31080009306F02031DA7
:101210002F29033023006102031D12298531B325D4
:101220008A31080006306102031D2129E1016003B3
:101230008A31031DA52A62083D0096002300E001C3
:10124000080005306102031D27298A310800043097
:101250006102031D2D2986314A268A310800023099
:101260006F02031D4C29033023006102031D3C293A
:101270008531B3258A31080004306102031D4429F9
:1012800086314A2689314A29063061028A31031D96
:10129000A52AE1018A3108006F038A31031DA52ABE
:1012A0000530230061028931031D5B29E10186318C
:1012B00008268A31080002306102031D88292000B7
:1012C00041082B00AF0020302F02031D8429B001FC
:1012D000A030840085013008840700082000C80081
:1012E0005930840085012B0030088407200048080D
:1012F00080002B00B00A07303002031D6829063039
:101300002300E1008531ED258631082689319429B5
:1013100003306102031D9229863108262300E10172
:1013200089319429863108268A3108003D000F1D35
:10133000AE2903102B00290DAF000310AF0D0310D1
:10134000AF0D0430AF072F0AAB00033029028A31FA
:10135000031DA52A863156268A31080003102B006A
:10136000290DAF000310AF0D0310AF0D2F0AAB0016
:101370002030840085012B0884070008B00020304D
:10138000840085012F0884070008B2008A31B21B4F
:10139000A52A29088A31031D042A033029028A312B
:1013A000031DA52A3008B600B5018931FD292000AA
:1013B000620A2B00B300103033020319B301330863
:1013C0002000630289310319FB29A03084008501C4
:1013D0002B003508840700082000C8006030840016
:1013E0000230850062088407480880002B0033081B
:1013F0002000E200E4032B00B50A350836028931EB
:10140000031DD7298A31080029038A31031D3A2A8E
:1014100003302902031DA52A3008B600B501352A7C
:101420002000620A2B00B300103033020319B3010D
:101430003308200063020319332AB0308400850189
:101440002B003508840700082000C80060308400A5
:101450000230850062088407480880002B003308AA
:101460002000E200E4032B00B50A35083602031D14
:10147000102A080002302902031D702A03302902B5
:10148000031DA52A3008B600B5016B2A2000620AA8
:101490002B00B300103033020319B30133082000CE
:1014A00063020319692AC030840085012B003508C6
:1014B000840700082000C8006030840002308500E6
:1014C00062088407480880002B0033082000E200EF
:1014D000E4032B00B50A35083602031D462A08002E
:1014E00003302902031DA52A03302902031DA52A62
:1014F0003008B600B501A12A2000620A2B00B30013
:10150000103033020319B3013308200063020319BA
:101510009F2AD030840085012B00350884070008FD
:101520002000C80060308400023085006208840713
:10153000480880002B0033082000E200E4032B0061
:10154000B50A35083602031D7C2A08008A312000BE
:10155000121DF42A12112A00ED018A313D00901D5E
:10156000B52A883148203D0090112A00ED0A043048
:101570006D028A31031DAD2A3D00101CE62A93013D
:1015800090012300E2013D0099019A019B019C0119
:101590009D019E019F0116309800901DD12A901147
:1015A000CD2A2300E101E0013D000E1208302000A9
:1015B000A500A830A600A701A4010830A100A03012
:1015C000A200A3018C30A0003D001010901A9012D0
:1015D000101A1012101FF02A87310B273D0010132C
:1015E0008A31901CF42A901008008A31A622863194
:1015F000562E3D008E01143091006B309200210078
:10160000121187311E273D0090018E018B31210080
:10161000991F0D2B1A1B0D2B0A2B3D008E15080050
:101620002900EB00230063082A00EB006B08031D70
:101630001A2B08002000600A2900EF0020306F02FA
:101640000319EF0129006F0820006102031D2C2BF4
:101650008A31F5228B31222B29006B088631C92E65
:10166000230063082900EF006F08031D3A2B2000B8
:101670004810502B8631FB268B3120004818432B15
:101680002A00ED10452B2A00ED14ED184A2B2000FE
:101690004810502B8631E2262A00EB002000481427
:1016A0002A006B08080030232800EE0008002800FC
:1016B000EE00102B2300E401E501E601E70197317C
:1016C0001A2FAA30D9000530DA001130DC00DD0114
:1016D0007630E00002304038E10083315A23023096
:1016E00023005A022900EB00AA302A00ED00053041
:1016F000EE0029006B088431A424AA302B00D90005
:101700000530DA0083314523AA302B00D90005309B
:10171000DA000930DC00DD010B30E0000130403838
:10172000E10083315A23AA302A00ED000530EE0093
:101730002300410883318B23AA302A00ED000530B5
:10174000EE002300420883318B23AA302B00D900FE
:101750000530DA0083314523AA302B00D90005304B
:10176000DA000630DC00DD011D30E00001304038D9
:10177000E10083315A2302302800EE0002302300BA
:101780005A022A00EB002900EF018B31D92BAA3035
:10179000ED000530EE00C1308400013085002800E6
:1017A0006E088407000883318B232800EE0A290085
:1017B000EF0A6F082A006B028B31031DC72BAA307A
:1017C0002B00D9000530DA0083314523AA302B00E5
:1017D000D9000530DA008331452B2B00D9005E1487
:1017E00030305902DE10031D0318DE14393059025F
:1017F0005E11031D031C5E15DE15DE185E1DDE1175
:101800008C31DE1D072C30305902DB003A2C413080
:1018100059025E12031D03185E1646305902DE128D
:10182000031D031CDE165E175E1ADE1E5E135E1FAE
:10183000202C41305902DC000A305C07DB003A2CD6
:1018400061305902DE13031D0318DE17663059029A
:101850005F10031D031C5F14DF14DE1B5F1CDF1011
:10186000DF1C392C61305902DC000A305C07DB00D8
:101870003A2C5E105E183F2C20004810412C2000AE
:1018800048142B005B0808002B0055143A30260042
:101890002002031D5E2C2B00A01C602CAA30D90056
:1018A0000530DA000130DC00DD015030E0000130AD
:1018B0004038E10083315A238C31602C2B005510C5
:1018C0002B00551CA72C260021088B31ED232B0063
:1018D000B5008C3120004818702C2B005511722C4B
:1018E0002B005515260022088B31ED232B00BA0062
:1018F0008C31200048187F2C2B00D511812C2B0017
:10190000D51555165519D51D5512551EA62C350E33
:10191000F039BC003A07B500B000193035020319A0
:10192000932C031C942C5510A01CA72CAA30D90072
:101930000530DA000130DC00DD015430E000013018
:101940004038E10083315A238C31A72C55108D315A
:101950002B00551C252D260023088B31ED232B0051
:10196000BB008C3120004818B82C2B005513BA2C22
:101970002B005517260024088B31ED232B00BA00CD
:101980008C3120004818C72C2B00D513C92C2B00F4
:10199000D5175614551BD51F56108D31561C242DA6
:1019A0003B0EF039BC003A07BB00B0073B08A9006A
:1019B000AA01260025088B31ED232B00BB008C31BA
:1019C00020004818E62C2B00D610E82C2B00D6144B
:1019D000260026088B31ED232B00BA008C31200025
:1019E0004818F52C2B005611F72C2B005615D61540
:1019F000D618561DD6118D31D61D222D3B0EF0392D
:101A0000BC003A07BB00B0072908BD00BC013B0879
:101A1000BE00BF013C083E07A9003D083F3DAA00AB
:101A2000A01C252DAA30D9000530DA000130DC00D9
:101A3000DD015830E00001304038E10083315A23A5
:101A40008D31252D5510252D55102B00551C6C2D35
:101A5000260027088B31ED232B00AB008D312000B1
:101A60004818352D2B005612372D2B005616260000
:101A700028088B31ED232B00BA008D312000481847
:101A8000442D2B00D612462D2B00D6165617561A6B
:101A9000D61E5613561F6B2D2B0EF039BC003A077D
:101AA000AB00B007A01C622DAA30D9000530DA00C7
:101AB0000130DC00DD015A30E00001304038E10047
:101AC00083315A2309302B00B2000230B3003508AD
:101AD000B6008D316C2D55102B003608D617031922
:101AE000D61357145518D61F5710571CCD2D20301C
:101AF0008400033085003208840700088B31ED2311
:101B00002B00BB008D3120004818892D2B00D710E9
:101B10008B2D2B00D714320ABC00203084000330F8
:101B200085003C08840700088B31ED232B00BA00A8
:101B30008D31200048189F2D2B005711A12D2B000F
:101B40005715D715D718571DD711D71DCB2D3B0EBD
:101B5000F039BD003A07BB00B007C1308400013046
:101B60008500330884073B0880000230B207B30ABF
:101B7000B603A01C6C2DAA30D9000530DA00013064
:101B8000DC00DD016030E00001304038E1008331ED
:101B90005A238D316C2D55106C2D8E31551C242EF1
:101BA00020308400033085003208840700088B3120
:101BB000ED232B00AF008D3120004818E22D2B00C3
:101BC0005712E42D2B005716320ABC002030840037
:101BD000033085003C08840700088B31ED232B007F
:101BE000BA008D3120004818F92D2B00D7128D3105
:101BF000FB2D2B00D7165717571AD71E57138E31A8
:101C0000571F232E2F0EF039BD003A07AF00FF30CB
:101C10003006BC003C0AB0002F02031D212EA01C80
:101C2000242EAA30D9000530DA000130DC00DD01B5
:101C30005630E00001304038E10083315A238E31C4
:101C4000242E5510242E55108F312B00551C252F76
:101C500002302B028E31031D762E230043082B0009
:101C6000BC00BD01BE01BF013E08C3003D08C2006B
:101C70003C08C100C001230044082B00C400C5017A
:101C8000C601C701400844072300E4002B004108B7
:101C9000453D2300E5002B004208463D2300E600B9
:101CA0002B004308473D2300E7000430FF000310EA
:101CB000E40DE50DE60DE70DFF0B572E2B00A01CE4
:101CC0006F2EAA30D9000530DA000130DC00DD01CA
:101CD0005230E00001304038E10083315A232300C4
:101CE000DA0101302800EE008F311C2F04302B0266
:101CF000031DC02E230043082B00BC00BD01BE0104
:101D0000BF013E08C3003D08C2003C08C100C0013D
:101D1000230044082B00C400C501C601C7014008C8
:101D200044072300E4002B004108453D2300E50063
:101D30002B004208463D2300E6002B004308473DA8
:101D40002300E7006508E7006408E600E501E40118
:101D50002B00A01CB92EAA30D9000530DA000130C2
:101D6000DC00DD015C30E00001304038E10083310F
:101D70005A232300DA0101302800EE008F311C2F96
:101D80002B03031DCA2E2300DA0102302800EE00C7
:101D90008F311C2F2B088F31031D1B2F230064084C
:101DA0002B0029072900EB00230065082B002A3DA2
:101DB0002900EC0000302000C80023006608200045
:101DC000483D2900ED00230067082000483D290018
:101DD000EE000310EE0CED0CEC0CEB0C6C0820008C
:101DE000C80029006D082000C90029006E082000E5
:101DF000CA00CB0148082300C10029006B0823005A
:101E0000C2002B00A01C122FAA30D9000530DA0026
:101E10000130DC00DD015E30E00001304038E100DF
:101E200083315A2302302B0035072300DA002800C3
:101E3000EE018F311C2F55102B00A01C252FAA302E
:101E4000D9000530DA00833145238F312B00551836
:101E50002C2F200048102E2F2000481428006E0838
:101E600008002000960197013F309805CF301805F3
:101E70003038980018101110210011142000111092
:101E8000080071092000C8007209C90048089600BE
:101E90004908970011101814080084312000111C03
:101EA000F32C111018100C3025006F02031DF32CB9
:101EB00026006D082500EF0020009115F32C250069
:101EC000EF012600ED0121008E140E150E142200E4
:101ED0008E152300DB01E801E9012B00201224000C
:101EE00094012130950020009111210091150B17CC
:101EF0008B1708002500EF012600ED0121008E144C
:101F00000E150E142300DB01E801E9012B0020125D
:101F100022008E15080025006F0828006E14031D8E
:101F20006E106E18962F20004810080020004814EC
:101F30000800103025006F022A006B1003196B1483
:101F40006B18A52F20004810080020004814080036
:101F5000113025006F0228006E1003196E146E18E0
:101F6000B42F200048100800200048140800250065
:101F70006F0828006E14031D6E10103025006F02CC
:101F80002800EE100319EE146E116E1CEE186E157B
:101F9000113025006F022800EE110319EE156E12A4
:101FA0006E1DEE196E166E1AD82F2000481008000C
:101FB00020004814080001302500EF002000911592
:101FC000080003302500EF002000911508000310E1
:101FD0002300EA0DEB0DEC0DED0D080003102300BE
:101FE000ED0CEC0CEB0CEA0C0800201AFA2F200088
:101FF000481008002000481408002500D201D30131
:102000002B00201707302500EF000B302600ED00D5
:10201000200091150800F0302500D200D3012B00DC
:10202000201307302500EF000B302600ED002000C4
:10203000911508002500D201D301FF302600D200FF
:102040003F30D30007302500EF000F302600ED00B1
:102050002500EB018030EC002B002017201220001F
:1020600091150800F0302500D200D301FF30260082
:10207000D200D30107302500EF000F302600ED001D
:102080002500EB010130EC002B0020132012200072
:102090009115080080302500D2000630D3000730AB
:1020A000EF0009302600ED00EE0101302500EB00C5
:1020B000EC012B002017200091150800303026007D
:1020C000530228006E1003196E1474302600520259
:1020D0002800EE100319EE146E156E18EE1C6E112A
:1020E0006E197528200048100800200048140800C8
:1020F0002300E80A0A3068020319E8016808690247
:10210000031D862829006F109131F229D9308400EF
:1021100003308500680884075A08800029006F147E
:1021200023006808031DB4285A082A00ED00EB01BB
:10213000AE28C1308400013085006B088407000898
:102140002000C800C0308400033085002A006B08DE
:1021500084072000480880002A00EB0A6B086D0203
:10216000031D99289131F2296803031DD7285A08C5
:102170002A00ED00EB01D128C13084000130850038
:102180006B08840700082000C80020308400043059
:1021900085002A006B0884072000480880002A0078
:1021A000EB0A6B086D02031DBC289131F229023045
:1021B0006802031DFB285A082A00ED00EB01F528F0
:1021C000C1308400013085006B08840700082000BE
:1021D000C80039308400043085002A006B08840769
:1021E0002000480880002A00EB0A6B086D02031DDE
:1021F000E0289131F229033068029131031D212931
:102200005A082A00ED00EB011A29C1308400013080
:1022100085006B08840700082000C8005230840045
:10222000043085002A006B088407200048088000DD
:102230002A00EB0A6B086D029131031D05299131CB
:10224000F22904306802031D44295A082A00ED00CF
:10225000EB013F29C1308400013085006B08840701
:1022600000082000C800A0308400043085002A0047
:102270006B0884072000480880002A00EB0A6B08DE
:102280006D02031D2A29F22905306802031D672902
:102290005A082A00ED00EB016229C13084000130A8
:1022A00085006B08840700082000C800B93084004E
:1022B000043085002A006B0884072000480880004D
:1022C0002A00EB0A6B086D02031D4D29F229063026
:1022D0006802031D8A295A082A00ED00EB018529AE
:1022E000C1308400013085006B088407000820009D
:1022F000C800D2308400043085002A006B088407AF
:102300002000480880002A00EB0A6B086D02031DBC
:102310007029F22907306802031DAD295A082A00E6
:10232000ED00EB01A829C1308400013085006B0865
:10233000840700082000C800203084000530850094
:102340002A006B0884072000480880002A00EB0A56
:102350006B086D02031D9329F22908306802031DE2
:10236000D0295A082A00ED00EB01CB29C1308400A6
:10237000013085006B08840700082000C800393050
:102380008400053085002A006B0884072000480877
:1023900080002A00EB0A6B086D02031DB629F229A2
:1023A00009306802031DF2295A082A00ED00EB01EA
:1023B000EE29C1308400013085006B0884070008D5
:1023C0002000C80052308400053085002A006B08C8
:1023D00084072000480880002A00EB0A6B086D0281
:1023E000031DD92929006F18F8292000481008007A
:1023F0002000481408002300690868029231031D78
:10240000042A74109331502BE90A0A306902923180
:102410000319E901D9308400033085006908840775
:102420000008DB0074146908031D322A5B08F500FC
:10243000F3012C2AC0308400033085007308840720
:1024400000082000C800D2308400023085007308E4
:10245000840748088000F30A73087502031D1A2ACE
:102460009331502B6903031D512A5B08F500F301DA
:102470004B2A20308400043085007308840700084C
:102480002000C800D2308400023085007308840721
:1024900048088000F30A73087502031D392A933136
:1024A000502B02306902031D712A5B08F500F3010D
:1024B0006B2A3930840004308500730884070008D3
:1024C0002000C800D23084000230850073088407E1
:1024D00048088000F30A73087502031D592A9331D6
:1024E000502B03306902031D912A5B08F500F301AC
:1024F0008B2A52308400043085007308840700085A
:102500002000C800D23084000230850073088407A0
:1025100048088000F30A73087502031D792A933175
:10252000502B04306902031DB12A5B08F500F3014A
:10253000AB2AA030840004308500730884070008AB
:102540002000C800D2308400023085007308840760
:1025500048088000F30A73087502031D992A933115
:10256000502B05306902031DD12A5B08F500F301E9
:10257000CB2AB93084000430850073088407000832
:102580002000C800D2308400023085007308840720
:1025900048088000F30A73087502031DB92A9331B5
:1025A000502B06306902031DF12A5B08F500F30188
:1025B000EB2AD230840004308500730884070008B9
:1025C0002000C800D23084000230850073088407E0
:1025D00048088000F30A73087502031DD92A933155
:1025E000502B073069029331031D132B5B08F50054
:1025F000F3010C2B2030840005308500730884071C
:1026000000082000C800D230840002308500730822
:10261000840748088000F30A730875029231031D8D
:10262000FA2A9331502B08306902031D322B5B08C4
:10263000F500F3012D2B3930840005308500730837
:10264000840700082000C800D230840002308500D2
:102650007308840748088000F30A73087502031D95
:102660001B2B502B09306902031D502B5B08F50012
:10267000F3014C2B52308400053085007308840729
:1026800000082000C800D2308400023085007308A2
:10269000840748088000F30A73087502031D3A2B6B
:1026A00020004810741848140800031023005A0C26
:1026B0002800EE0020306E0229006B11031D031C60
:1026C0006B15903178209331200048186A2B29002F
:1026D000EB116C2B2900EB156B166B19EB1D6B12B4
:1026E0006B1E8B2B6B18772B2B00A011792B2B00DB
:1026F000A0158F319927933120004818822B29008B
:10270000EB12842B2900EB16EB1E882B2000911571
:102710002900EB148C2BEB10EB18912B20004810A8
:1027200008002000481408008F31911D4D2F911191
:10273000240011082000E60025006F0803194D2F22
:1027400011306F029331031DA72B8F314D2F1030A5
:102750006F02031DFF2B9131FB2120006B124818E3
:102760006B168F316B1E4D2F7F3025005202933137
:102770000319BC2B0318C52B2B002017A012CC303B
:102780002600EB001030EC00DC2B803052020319E5
:10279000CB2B0318D42B2B002017A016D0302600EB
:1027A000EB002030EC00DC2B2B002013A016D030E7
:1027B0002600EB002030EC00023023005B022000FA
:1027C000EA0003106A0C2300EE00EF01023026003D
:1027D000EF0002302700E3002B00A01DF52B0D3089
:1027E0002500EF002B00A012FB2B07302500EF0087
:1027F00008302600ED00200091158F314D2F6F031A
:102800009431031D222C21000E110E1022008E1176
:1028100001302600EF0002302500EF002000E930F3
:10282000C8000430C9009431C90B142C9431C80B72
:10283000112C00000000000000004D302400910029
:102840008F314D2F02306F02031D382C26006F0888
:1028500081312821240091002600EF0A04306F0204
:102860009631031D8A2E10302500EF008F314D2F39
:1028700003306F02031D452C22008E1521000E151A
:102880000E142500EF018F314D2F04306F02031D10
:10289000602CEA308400013085002700640884073A
:1028A00000082400910027006408031D5D2C260009
:1028B0006D082500EF0096318A2EE4038F314D2FED
:1028C00005306F02031D702C21000E150230270009
:1028D000E40006302500EF00240091018F314D2FD8
:1028E00006306F02031DB62CEA30840001308500EB
:1028F0002700640884072000660880002700640819
:10290000031DB12C8F31EE27523084000330850037
:1029100026006E08840723006A0880002600EE0A5D
:1029200094312B00201FA02C5230840003308500EE
:1029300026006E0884073F3023006B058000A82C1A
:10294000523084000330850026006E088407800121
:102950002600EE0A6D082500EF0020009115963143
:102960008A2EE403240091018F314D2F07306F022E
:10297000031DD32C21000E112300EC012500520869
:102980002300EB00250053082300EA008F31E727DE
:1029900002302700E40004302500EF0080302400DE
:1029A00091008F314D2F08306F029531031D3A2D64
:1029B00023006E086F040319332DEE036E0A03190A
:1029C000EF0321000E112300EC01D230840002300D
:1029D000850026006F08840700082300EA0026000F
:1029E000EF0A95312B00201F012DD23084000230D8
:1029F000850026006F0884073F3000052300EB00A8
:102A0000032D2300EB012600EF0A8F31E727023068
:102A10002700E40004302500EF0095312B00A01EB4
:102A2000152D0A302600ED00182D08302600ED0087
:102A300023006E086F042000ED15031DED116D16C7
:102A4000ED19272D2B00A01A272D20006D12200034
:102A50006D1E2E2D2400910196318A2E0230240005
:102A600091008F314D2F0A302500EF002000911585
:102A70008F314D2F09306F02031D5F2D6B086C04E1
:102A80000319592D21000E112500EB036B0A0319C0
:102A9000EC030530EF006B086C04031D542DFC3073
:102AA000240091008F314D2FFE30240091008F3192
:102AB0004D2F1030EF00200091158F314D2F0D302C
:102AC0006F02031D812D2B00A01E6B2D01302500F0
:102AD000ED00EE01752D023023005B022000EA00BC
:102AE00003106A0C2500ED00EE012600EE01073010
:102AF0002500EF000E302600ED00200091158F31EB
:102B00004D2F0E306F029631031D0E2E6D086E0490
:102B100095310319AF2DED036D0A0319EE03210062
:102B20000E1125006D086E042000EE15031DEE1138
:102B30006E16EE19A02D2B00A01AA02D20006E12EB
:102B400020006E1EA72DFC3024009100AA2DFE301F
:102B50002400910005302500EF0096318A2E2000D8
:102B60006B14E9012000690826006E022000EE12B5
:102B70000319BC2D0318EE166E17EE1A6B1C6E139C
:102B80006E1FDC2DD23084000230850027006308E0
:102B9000840700082000C8005230840003308500FC
:102BA00069088407480800020319D82D6B10B22D5C
:102BB000E90A2700E30AB22D96316B1C072E230089
:102BC0006E086F0420006F1403196F10EF10953119
:102BD0002B00A01EEE2D20006F18EF149631200060
:102BE000EF1C022E2500530A95310319F92DD30A43
:102BF000FB2DD20AD3010730EF0008302600ED008C
:102C000096310A2E10302500EF0096310A2E113031
:102C10002500EF00200091158F314D2F0F306F02EE
:102C2000031D5F2EFF302000E8002B00201F1C2E0C
:102C30003F302000E7001E2E2000E701260052084A
:102C4000200068026F12031D6F1626005308200033
:102C50006702EF12031DEF166F136F1EEF1A6F1747
:102C60006F1F392E11302500EF00200091158F3194
:102C70004D2F25006B086C040319562EEB036B0ACD
:102C80000319EC0321000E112600EE0123006E084B
:102C90006F04031D4F2EFC3024009100522EFE3095
:102CA0002400910005302500EF005D2E2B0020163A
:102CB00010302500EF00200091158F314D2F0A3084
:102CC0006F02031D732E0C30EF000D302600ED0057
:102CD0006B08F1006C08F2008F314127E0302400CE
:102CE00091008F314D2F0B306F02031D882E18304D
:102CF000240091000830F1005230F2008F3141275A
:102D00000C302500EF0010302600ED0096318A2EA1
:102D10000C306F028F314D2F2B00AF0061302F022E
:102D20000319942E031C982E20302F02B0000800A7
:102D30002F0808002B00A9012A00ED01FF017F08E0
:102D400028006F02031DA82E2B00290828006E0200
:102D50002B002B100319AE2E03182B142A006D081C
:102D6000230040022B00AB100319B82E0318AB143C
:102D70002B152B18AB1C2B112B1DEA2E2030840099
:102D8000033085002A006D08840700088C262A007D
:102D9000EF006B082B0029072000D1000030C9008C
:102DA0002A006C082000493DD2005213520883319A
:102DB0002C232000C8002A006F082000480296310A
:102DC000031DE52E2B00A90AE72E2B00A9012A00DE
:102DD000ED0A9E2E290828006E022000C800280057
:102DE0006F08200048042B002B1203192B162B1AF6
:102DF000FC2E200048100800200048140800230082
:102E0000C0012B00A11008002700EC01ED01FE011C
:102E1000E501E601E701E8012B00A0132110A11054
:102E20002112FF302700EE008F317A272B00A111ED
:102E3000A01008008C018E0121009D019E019F01C0
:102E400004302200910092010430930094018E110D
:102E500020007730C8008F30C9002D30CA0097316C
:102E6000CA0B302F9731C90B2D2F9731C80B2B2F41
:102E700020000130C8009731C80B3C2F22008E156E
:102E80008A31F922853194258F3131278F315F279F
:102E9000973104278A31F522230063082800EB00CC
:102EA0006B0897310319772F2B00211A772F2116E2
:102EB000A01C772FAA30D9000530DA001B30DC00C7
:102EC000DD01DA30E00000304038E10083315A2380
:102ED000AA302B00D9000530DA001430DC00DD0107
:102EE000E430E00001304038E10083315A2397316B
:102EF0002B00A11DC02F8B3153232700EA009731EF
:102F000020004818862F2B00A113882F2B00A11713
:102F1000A11FAA2F033027006A022B0022100319D9
:102F200022141B3027006A022B00A2100319A214DE
:102F30002211221CA2182215221DA42F973104272A
:102F40002700EE019731AA2F27006A082000C80049
:102F50008531AA2585313F252700EA0097312000D9
:102F60004818B52F2B00A211B72F2B00A2159831AE
:102F7000A21D212827006A088B3157239831212868
:102F80008B3153232700EA00973120004818CB2FBC
:102F90002B002212CD2F2B0022169831221E212821
:102FA0000D3027006A029731031DD92F2B00A0177F
:102FB000EF2F0A306A02031DE02F2B002114EF2FA0
:102FC00032307E020319EF2F0318EF2FA030840058
:102FD000023085007E0884076A088000FE0A2B0004
:102FE0002314A01B211C23109831231C21287E08A8
:102FF0002800EC002700EB011328A03084000230E9
:10300000850027006B08840700082000C8002030D6
:1030100084000330850027006B08840720004808DF
:1030200080002700EB0A6B0828006C029731031D13
:10303000FD2F7E082300C000FE012B00A114A01369
:10304000211027006C089931031D76299D312B0032
:10305000A11C6D2D02302800EE00EF0147302A0040
:10306000EB0001304038EC0096319A269831200070
:1030700048183D282B00A3113F282B00A315A31DA2
:103080004E2821112700E501E601E701E801EE01E4
:103090000C30EC000130ED0099317229033028002A
:1030A000EE00EF0132302A00EB0001304038EC0036
:1030B00096319A2698312000481861282B00231257
:1030C00063282B002316231E6C280C302700EC00ED
:1030D0000330ED009931722903302800EE00EF0132
:1030E00036302A00EB0001304038EC0096319A2649
:1030F0009831200048187F282B00A31281282B002C
:10310000A316A31E8A280C302700EC000430ED0023
:103110009931722902302800EE00EF0141302A0077
:10312000EB0001304038EC0096319A2698312000AF
:1031300048189D282B0023139F282B002317231F9B
:10314000AE2821152700E501E601E701E801EE01BF
:103150000C30EC000130ED00993172290330280069
:10316000EE00EF012E302A00EB0001304038EC0079
:1031700096319A26983120004818C1282B00A313B5
:10318000C3282B00A317A31FCC280C302700EC006A
:103190000630ED009931722903302800EE00EF016E
:1031A0003A302A00EB0001304038EC0096319A2684
:1031B000983120004818DF282B002410E1282B002C
:1031C0002414241CEA280C302700EC000730ED0002
:1031D0009931722902302800EE00EF014A302A00AE
:1031E000EB0001304038EC0096319A2698312000EF
:1031F0004818FD282B00A410FF282B00A414993197
:10320000A41C08290B302700EC00ED01993172292C
:1032100002302800EE00EF014D302A00EB000130B3
:103220004038EC0096319A269931200048181B2925
:103230002B0024111D292B002415241D25290C30B9
:103240002700EC000930ED00722902302800EE0062
:10325000EF013E302A00EB0001304038EC0096319F
:103260009A2699312000481838292B00A4113A29B0
:103270002B00A415A41D4029A1152700EE017229D9
:1032800002302800EE00EF0144302A00EB0001304C
:103290004038EC0096319A2699312000481853297D
:1032A0002B00241255292B002416241E6F29A01C44
:1032B0006A29A010AA30D9000530DA001130DC00EC
:1032C000DD018830E00002304038E10083315A23CC
:1032D00099316C29A01421122700EE0172290330C4
:1032E0002700EE009631FF269D316D2D6C03031DE6
:1032F000E3292B00A11CBD292700E501E601E70118
:10330000E8018C3144242700EF009931200048184F
:103310008C292B0024138E292B002417241FA52968
:10332000A01CA029AA30D9000530DA001930DC0031
:10333000DD019830E00001304038E10083315A234C
:1033400002302700EC009931B929A01CB529AA3018
:10335000D9000530DA000F30DC00DD01DF30E0009D
:1033600002304038E10083315A2301302700EE005B
:10337000EC019631FF269D316D2D20002730C800CD
:103380009931C80BC1292700E50A0319E60A031978
:10339000E70A0319E80A203065022000C800A130BE
:1033A000270066022000C8040730270067022000BB
:1033B000480427006804031DE1290230EE000D30A7
:1033C000EC009D316D2D02306C029A31031DF52AFF
:1033D0006F08031DD62A99312B00A01CF1298B31CF
:1033E00061238F31A827993120004818FA292B0032
:1033F0002511FC292B0025159A31251D832AA01C97
:103400007E2AAA30D9000530DA001330DC00DD0155
:103410002A30E00002304038E10083315A23AA30DC
:103420002B00D9000530DA001130DC00DD016430FA
:10343000E00002304038E10083315A2326006E0854
:103440002800EC002700E9019A313C2A02302700CD
:1034500069072800EB00AA302A00ED000530EE00D5
:10346000D23084000230850028006B0884070008F1
:1034700083318B232700E90A690828006C029A31FE
:10348000031D262AAA302B00D9000530DA0083312B
:103490004523AA302B00D9000530DA000F30DC00BC
:1034A000DD01EF30E00002304038E10083315A2383
:1034B00026006E082800ED002700E9019A31712AE4
:1034C000AA302A00ED000530EE00523084000330AF
:1034D0008500270069088407000883318B232700B3
:1034E000E90A690828006D029A31031D602AAA3092
:1034F0002B00D9000530DA00833145230D30270039
:10350000EC009D316D2D2119882A29006B108A2A23
:1035100029006B14933155239A3120004818932ABF
:103520002B00A512952A2B00A516A51EC12A013035
:103530002700EC009D312B00A01C6D2D9A31211D20
:10354000B12AAA30D9000530DA001030DC00DD01E4
:10355000AC30E00002304038E10083315A239D3125
:103560006D2DAA30D9000530DA001230DC00DD0103
:103570005130E00002304038E10083315A239D3160
:103580006D2DA01CD12AAA30D9000530DA001C30DC
:10359000DC00DD01A130E00000304038E100833183
:1035A0005A230D302700EC009D316D2D02306F0243
:1035B000031DF12A2B00A01CEB2AAA30D9000530EC
:1035C000DA000F30DC00DD010130E000033040386C
:1035D000E10083315A232700EE010D30EC009D31CC
:1035E0006D2D0130EC009D316D2D03306C029B314F
:1035F000031D232B8F3199279B3120004818032B63
:103600002B002610052B2B0026149D31261C6D2D1A
:103610009B31A01C192BAA30D9000530DA001030DC
:10362000DC00DD01CE30E00002304038E1008331C3
:103630005A238F31FD2705302700EC000D30ED00B7
:10364000EE019D316D2D04306C02031D502B8F3126
:1036500099279B3120004818302B2B002611322B44
:103660002B0026159D31261D6D2D9B31A01C462B50
:10367000AA30D9000530DA001130DC00DD019A30C3
:10368000E00002304038E10083315A2390310B20B2
:1036900005302700EC000D30ED00EE019D316D2D61
:1036A00005306C02031D9A2B8F31A8279B31200017
:1036B00048185D2B2B0026125F2B2B002616261E8A
:1036C000782BA01C712BAA30D9000530DA001730F6
:1036D000DC00DD01CC30E00001304038E100833116
:1036E0005A2301302700EE000D30EC009D316D2D86
:1036F0008F3199279B3120004818812B2B00A6126F
:10370000832B2B00A616A61E982BA01C952BAA3047
:10371000D9000530DA000730DC00DD011530E000AB
:1037200001304038E10083315A2327006D08EC0056
:103730009D316D2D06306C02031DC42B8F319927EE
:103740009B3120004818A72B2B00A613A92B2B0078
:10375000A6179D31A61F6D2D9B31A01CBD2BAA3035
:10376000D9000530DA001930DC00DD01B230E000AC
:1037700001304038E10083315A2390311A2008305B
:103780002700EC009D316D2D07306C02031DEE2BE0
:103790008F3199279B3120004818D12B2B00A7107F
:1037A000D32B2B00A7149D31A71C6D2D9B31A01C82
:1037B000E72BAA30D9000530DA001A30DC00DD0131
:1037C0006230E00001304038E10083315A2390310B
:1037D000322008302700EC009D316D2D08306C023E
:1037E0009C31031D542C8F31A8279B312000481891
:1037F000FC2B2B00A711FE2B2B00A7159C31A71D1E
:10380000312CA01C2A2CAA30D9000530DA001A303D
:10381000DC00DD017D30E00001304038E100833123
:103820005A23AA302A00ED000530EE002600520887
:1038300083318B23AA302A00ED000530EE002600EC
:10384000530883318B23AA302B00D9000530DA00CE
:10385000833145230D302700EC000130EE009D310F
:103860006D2D8F31F5279C31200048183A2C2B0004
:1038700027123C2C2B002716271E522CA01C4E2C46
:10388000AA30D9000530DA000F30DC00DD0111303C
:10389000E00003304038E10083315A230D30270027
:1038A000EC00EE019D316D2D09306C02031D7E2C64
:1038B0008F31B7279C3120004818612C2B0027132B
:1038C000632C2B0027179D31271F6D2D9C31A01CC9
:1038D000772CAA30D9000530DA000B30DC00DD018E
:1038E0002130E00003304038E10083315A23903129
:1038F0004A200A302700EC009D316D2D0A306C0201
:10390000031DE02C8F3199279C31200048188B2C07
:103910002B0028108D2C2B0028149D31281C6D2D78
:103920009C31A01CA52CAA302A00ED000530EE0029
:103930002600520883318B23AA302A00ED0005307F
:10394000EE002600530883318B2390315E209C319A
:1039500020004818AE2C2B00A810B02C2B00A81467
:10396000A81CC72C2700EE012B00A01CDB2CAA30C2
:10397000D9000530DA000930DC00DD010130E0005B
:1039800001304038E10083315A239C31DB2C013077
:103990002700EE002B00A01CDB2CAA30D90005303C
:1039A000DA001030DC00DD01BD30E00002304038CC
:1039B000E10083315A230D302700EC009D316D2D3D
:1039C0000B306C029D31031D0D2D9C312B00A01C72
:1039D000F72CAA30D9000530DA000A30DC00DD010E
:1039E000F630E00000304038E10083315A2397314F
:1039F000042722008E1120008130C8001D30C9002C
:103A00009D31C90B012D9C31C80BFE2C00002200FA
:103A10008E152700EE019D316D2D0C306C029D310D
:103A2000031D482D8F318B279D31200048181B2DF9
:103A30002B0028121D2D2B002816281E362DA01C09
:103A40002F2DAA30D9000530DA001330DC00DD015B
:103A50001630E00002304038E10083315A238F31C4
:103A6000DB2727006D08EC009D316D2DA01C462D35
:103A7000AA30D9000530DA001B30DC00DD01BE3091
:103A8000E00000304038E10083315A239D316D2D34
:103A90000D306C02031D6D2D8F31B7279D31200035
:103AA0004818552D2B002813572D2B002817281F99
:103AB0006D2DA01C692DAA30D9000530DA00143014
:103AC000DC00DD010130E00002304038E1008331EC
:103AD0005A238F31E1272700EC0127006E0A973126
:103AE00003194A2F30306E072800EB008B31572323
:103AF0000D308B3157230A308B315723FF3027008D
:063B0000EE0097314A2F90
:020000040001F9
:02000E00A2014D
:020010004F3B64
:00000001FF
