:020000040000FA
:040000008331682BB5
:080008008331612B82070934EA
:100010000234433400340234013400348034323446
:10002000093404340034003401340234023401341D
:1000300000340534243400341034013404342434BE
:1000400002340234053424340634003401340534D7
:100050002434013400340134073405348234033449
:1000600008340034023409340434013400340234D6
:100070000A340034003400340734053403340234C5
:10008000083400340034073405348334023408342F
:10009000003400348207363403344D34003469347C
:1000A000003463340034723400346F340034633409
:1000B000003468340034693400347034003420343F
:1000C000003454340034653400346334003468340C
:1000D00000346E3400346F3400346C3400346F34C8
:1000E000003467340034793400342C340034203444
:1000F0000034493400346E340034633400342E3418
:10010000003482071E3403344A340034413400344E
:100110004C3400344C34003449340034423400341C
:1001200020340034533400346534003472340034E5
:1001300069340034613400346C3400342E340034BB
:1001400082074534723472346F347234203473341D
:10015000743461347234743469346E3467342034E6
:10016000703472346F346734723461346D346D348A
:100170006534723421340D340A34820750347234B9
:100180006F346734723461346D346D346534723475
:1001900020347334743461347234743420347434DD
:1001A00069346D3465346F347534743421340D34EE
:1001B0000A348207503472346F34673472346134D5
:1001C0006D346D346534723420346E346F3474346D
:1001D00020347934653474342034723465346134B5
:1001E0006434793421340D340A348207523465344E
:1001F0007334653474342E340D340A340D340A34B7
:10020000820720346934733420344F344B342E3415
:100210000D340A34820741346434643472346534F2
:10022000733473343A342034820764346F346E3458
:10023000653421340D340A34820744346134743413
:1002400061343A34203482070434033409340434EA
:1002500082074D34433448345034820721344534C6
:1002600045348207213445344634820721344234F0
:1002700045348207213442344634820721345234D3
:1002800082072134543482072134413482072134D7
:100290005034820721344434820721345634820793
:1002A00053348207233482074F3482075434820741
:1002B0004334820741348207413482074434820741
:1002C000643482074A3441344C3450344934433422
:1002D00020344F346E3465342034643465346234F1
:1002E0007534673420346D346F34643465342034AD
:1002F0006F346E342E340D340A34820742346C3439
:1003000061346E346B342034633468346534633460
:100310006B3469346E34673420344534453450349A
:1003200052344F344D3420342E342E342E34203475
:100330008207643465347634693463346534203438
:100340006E346F347434203465346D3470347434E6
:1003500079342134203452346534613464343A348D
:1003600020340D340A34820742346C3461346E34E4
:100370006B34203463346834653463346B346934EB
:100380006E346734203466346C34613473346834CA
:1003900020342E342E342E342034820744346134F9
:1003A000743461342034703461347234733465349D
:1003B0006434203473347534633463346534733493
:1003C0007334663475346C342E340D340A34820739
:1003D000533474346134723474342034703472346D
:1003E0006F346734723461346D346D346534723413
:1003F000203464346F346E3465342E340D340A3452
:1004000082076534723472346F3472342034653448
:1004100072346134733469346E3467342034643434
:100420006534763469346334653421340D340A34E8
:100430008207443465347634693463346534203457
:1004400043346F346E3466346934673475347234CF
:10045000653464342E340D340A34820753347434D2
:100460006F3470342034703472346F3467347234C3
:1004700061346D346D34653472342E340D340A3485
:100480000D340A348207503472346F346734723456
:1004900061346D346D3465347234203445347234D3
:1004A00072346F34723421340D340A348207533479
:1004B00074346134723474342034703472346F3470
:1004C0006734723461346D346D34653472342E3473
:1004D0000D340A348207503472346F346734723406
:1004E00061346D346D3469346E34673420342E34A5
:1004F0002E342E3420340D340A3482071234013461
:10050000003402340234003400340834D834043463
:100510000A3400340134003401340234003401342C
:1005200082074E3475346D3462346534723420344D
:100530006F346634203462347934743465347334FF
:100540003A34203482074434653462347534673475
:1005500020346D346F346434653420346F34663441
:1005600066342E340D340A348207453472346134D3
:10057000733469346E346734203445344534503430
:1005800052344F344D342E340D340A3482074434FF
:10059000613474346134203474346F3420347034F2
:1005A00072346F346734723461346D343A342034C9
:1005B0008207563465347234693466347934693468
:1005C0006E34673420342E342E342E3420340D34DF
:1005D0000A348207203469347334203469346E3429
:1005E00063346F3472347234653463347434213458
:0405F0000D340A3488
:100600008207453472346134733469346E3467342C
:10061000203466346C346134733468342E340D34D1
:100620000A3482076434653476346934633465345B
:10063000203465346D347034743479342E340D3490
:100640000A3482075034613472347334653472343E
:10065000203465346E346434653464342E340D349F
:100660000A3482074434613474346134203476347B
:1006700065347234693466346934653464343A34C8
:1006800020348207503461347234733465347234E8
:1006900020346534723472346F34723421340D3442
:1006A0000A348207443465347634693463346534FB
:1006B0002034493444343A3420348A00200051082C
:1006C000820020004808CC004908CD009331CF2B90
:1006D000FC30210099009513383024008C003F3005
:1006E00021008E002B0020108531E02D0D302000E0
:1006F000C8002B005A082000D1002B005B085D23A6
:100700000A302000C8002B005A082000D1002B001E
:100710005B0883315D2B5D08E3005E08E40063083D
:10072000E6006408E700E501B02B2B0061086507CF
:100730002000D1000030C9002B0062082000493D94
:10074000D200521352085D232000C8002B005A0823
:100750002000D1002B005B0883315D232B00E50ACC
:10076000650866022000C8002B00670820004804C6
:100770008331031D952B08002A00EF002B00201C5D
:10078000D62B30302000C8002A006D082000D10090
:100790002A006E085D2378302000C8002A006D080A
:1007A0002000D1002A006E0883315D232A006F0EDD
:1007B0000F392B00AC000F302C052000C800F030A2
:1007C0002B003005200048042B00B0000F3030050E
:1007D000B10030303107B4003930340283310319AD
:1007E000F52B031CF52B0730B4073408AC002000B0
:1007F000C8002A006D082000D1002A006E085D2381
:100800000F302A006F052000C800F0302B003005A3
:10081000200048042B00B0000F303005B10030300C
:100820003107B30039303302843103191B2C031C08
:100830001B2C0730B3073308AC002000C8002A0087
:100840006D082000D1002A006E0883315D2B031053
:10085000FA0DFB0DFC0DFD0D03107A0D2B00D200DF
:100860007B0DD3007C0DD4007D0DD5000310D20D7F
:10087000D30DD40DD50D5208FA075308FB3D54088B
:10088000FC3D5508FD3D08000130FA00FB01FC016C
:10089000FD01C901CA017D083A02031D592C7C08DB
:1008A0003902031D592C7B083802031D592C7A0884
:1008B00037024D10031D03184D1400304A02031D6A
:1008C000632C0A304902CD100319682C031CCD1487
:1008D0004D154D18CD1C4D114D1D752C27242B0089
:1008E000C90A0319CA0A84314B2C49084A04031D5A
:1008F0007C2C0130C900CA01C903490A0319CA0383
:100900000130FA00FB01FC01FD014908CE004A0854
:10091000CF00D001D101912C27242B00D00A03193C
:10092000D10A50084E022000C8002B0051084F0287
:10093000200048048431031D8C2C30302B00CC0067
:100940003A087D02031DAE2C39087C02031DAE2C33
:1009500038087B02031DAE2C37087A020319B22C2B
:100960000318C22C7A08B7027B08031C7B0FB8025D
:100970007C08031C7C0FB9027D08031C7D0FBA02A2
:10098000CC0AA02C4C082000C8002B003408200002
:10099000D1002B00350883315D232B0049084A0420
:1009A0008431031D7C2C08002A00EF002B00AC00D2
:1009B000AD01AE01AF012A006D082B00B4002A0082
:1009C0006E082B00B5002C08B7002D08B8002E08C3
:1009D000B9002F08BA00442C9F151E1567309B00E4
:1009E0009C0108006710111A67142100111AFB2CD2
:1009F0002000E710FD2C2000E71467156718E71C9E
:100A000067118531671D1E2D5608550203191C2DCF
:100A1000A030840001308500560884070008E600F5
:100A2000D60A203056020319172D031C182DD601A3
:100A3000660823009A001E2D2100111220004C0888
:100A4000C8004D08C900090084312000911EF22C15
:100A5000853123009D182F2D2000E710312D200017
:100A6000E71423001D19372D20006711392D2000B0
:100A70006715E711E71C6719E715E71D552D2300DA
:100A800019082000E60023009D1C502D1D121D1684
:100A900019082000E600230019082000E600432D75
:100AA0002000D801D7018431F22C2030840002309C
:100AB0008500570884072300190880002000570A82
:100AC000E600403066020319672D031C682DE6011D
:100AD0006608580203196E2D6608D7008431F22C7F
:100AE000200058085702031D772D48108A2D20300A
:100AF0008400023085005808840700082800EE00B2
:100B00002000D80A403058020319882D031C892D73
:100B1000D801481428006E080800F700550856024E
:100B2000791003197914F910111AF9147915791833
:100B3000F91C7911791DA22D2100111277082300CB
:100B40009A00C32DA0308400013085005508840729
:100B500077088000550AF800203078020319B22D7A
:100B6000031CB32DF801780856020319BA2D780832
:100B7000D500C12D78085602031DBF2DBA2D780867
:100B8000D50021001116770808002000D501D601F4
:100B9000D701D80123009E019D018431EC2421005E
:100BA0008E160E1623009E169D171D1621009116F7
:100BB0000B178B17080020004808F60085318D2D93
:100BC00021008E118631722E2000A41FE92D86315E
:100BD000080023005F085C020319F22D0318F22DB0
:100BE0005C08DF005D085F022B00CC0023005E0282
:100BF0000319FF2D0318FF2D5E082B00CC002030B9
:100C000023005D072000C8000030CA0001304A3DC3
:100C1000C9004808A6004908A7002B004C0820007E
:100C2000A5008631241F172E8830A400192EC83045
:100C3000A4002B004C082300DD075D085F020800BC
:100C40000830DE00DD01DF01DC01200024138531E6
:100C5000E42D2B00CB002200A00008302300DE0092
:100C6000DD010130DF000130DC002000241385317C
:100C7000E42D84302000A004080008302000A100EA
:100C8000A030A200A301033023006102031D4E2EF9
:100C90008C302B00BB002000A401512EC8302B004B
:100CA000BB002B003B082000A00008002B00AA007E
:100CB00003102A0DB0000310B00D0310B00D300A60
:100CC000AC002030840085012C0884072A006F08BE
:100CD00080002030840085012B003008840780309C
:100CE000800008002300E3012B0020112000E00118
:100CF000E101E201E3011030E4008B31942B20008C
:100D000041082B00BB0021303B02031D8A2E053019
:100D10002300E10008002000BC1B912E2B004C108A
:100D2000932E2B004C144C1C962E080020006008BB
:100D30006102031DA12E2B0020199F2E0800BB016C
:100D4000B12E600861020319AC2E0318AC2E6108A5
:100D500060022B00BB00B12E61092B00BB002130CB
:100D6000BB0708303B020319B92E031CB92E08300B
:100D7000BB003B08C900BD01D62E200061082B0036
:100D80003D07BC00A0308400033085003C08840788
:100D900000082000C800D830840085012B003D08E1
:100DA00084072000480880002B00BD0A3D08490246
:100DB000031DBD2ED8302000BE00BF012B003B0814
:100DC0002000BD003C1FE72E8830BC00E92EC83053
:100DD000BC0061082B003B07CB001F304B020319FE
:100DE000F42E031CF42ECB014B082000E100083048
:100DF0002B003B0220110319201508002A00ED00EA
:100E00002000600A2B00AA0020302A028731031933
:100E1000AA01A03084000330850020006008840708
:100E20002A006D0880002B002A082000E00008003E
:100E300060308400023085002000630884070008C9
:100E40002B00AA002000E40A630A2A00EF001030F9
:100E50006F020319EF016F082000E3002B002A083E
:100E600008002000630862022B002A10031D2A14C8
:100E70002A183D2F200048100800200048140800C0
:100E800086318B26083020006402873103194A2FEF
:100E9000031C522FB81B522F08302A00EF000330DA
:100EA0008631562E08002000D901C230DA00013008
:100EB000DB00DC01DD010830DF00DE01080020007E
:100EC0004108E500063065028831031D2A284308E1
:100ED0002B00BC00200042082B00BD002300DF01D6
:100EE0002B003C038731031D8F2F12302300DF00BE
:100EF0002B00C900BB01882F203084000130850001
:100F00003B0884073B0882317D2280002B00BB0A0E
:100F10003B0849028731031D7C2F88310B280230A2
:100F20003C02031DAD2F43302300DF002B00C9001E
:100F3000BB01A62F20308400013085003B088407C8
:100F40003B088031062080002B00BB0A3B08490289
:100F50008731031D9A2F88310B2803303C028831DA
:100F6000031D09283D088731031DCE2F04302300BF
:100F7000DF002B00C900BB01C92F203084000130E5
:100F800085003B0884073B088131232180002B002A
:100F9000BB0A3B0849028731031DBD2F3D03031DDA
:100FA000E92F36302300DF002B00C900BB01E42FFE
:100FB00020308400013085003B0884073B088031E5
:100FC0004A2080002B00BB0A3B0849028731031DE1
:100FD000D82F02303D028831031D0B281E3023001C
:100FE000DF002B00C900BB018831022820308400BB
:100FF000013085003B0884073B0880318120800058
:101000002B00BB0A3B0849028731031DF62F8831AC
:101010000B2822303C0223005F0888310319262860
:101020000830DE0020004708031D1A284608230068
:10103000DC001D28FF302300DC000330E100DD016F
:10104000200024138531E4258831080086313926B3
:101050008831080005306502031D3A284208230044
:10106000E2000130E0008631202606302300E10056
:101070008831080009306502031D722806302300FC
:10108000E100863120263D0019161915991499158D
:1010900040302000AC000830A900B030AA00AB01FD
:1010A0008030A8003D001A161A159A149A1540307F
:1010B0002000B4000830B100C030B200B30180306D
:1010C000B0003D001B161B159B149B1540302000E3
:1010D000BC000830B900D030BA00BB018030B80085
:1010E000883108000A306502031D7E280330230082
:1010F000E100013086312926883108006508031D8A
:10110000842800308631292E080003100F0C2B0094
:10111000AA000310AA0C0310AA0C3D000F1D9C2866
:1011200003102000240C2B00AC000310AC0C0F307B
:101130002C052A00EF00A72803102000200C2B000C
:10114000AC000310AC0C0F302C052A00EF002B0074
:101150002A088931031DD4290D302A006F02031D8E
:1011600043292B00B001A03084008501300884079A
:1011700000082000C8004030840085012B003008A2
:1011800084072000480880002B00B00A0830300295
:101190008831031DB3283D000E1286313D26603094
:1011A000200040052B00AC002C088831031DDC28F2
:1011B00087315F278A31080020302C028931031DD6
:1011C0003C29200041082B00B10023303102883136
:1011D000031DF12806302300E100863120268931E5
:1011E000412920303102031DFA2802302300E1009A
:1011F00089313A29213031028931031D2D29FF30EF
:101200002300DC000730DF002B00B400B3011C29F1
:101210005930840085013308840700082000C80085
:1012200020308400013085002B0033088407200023
:10123000480880002B00B30A330834028931031DAB
:10124000082908302300DE000330E100DD01200022
:1012500024138531E42589313A2922303102031DD6
:101260003A2906302300E10086312026200042087A
:101270002300E3008A31080040302C028A31031D2C
:10128000DC2A8A31080009306F02031D6D29033002
:1012900023006102031D50298531E4258A310800AD
:1012A00006306102031D5F29E10160038A31031DDD
:1012B000DC2A62083D0096002300E00108000530AA
:1012C0006102031D65298A31080004306102031D93
:1012D0006B2986317F268A31080002306F02031D98
:1012E0008A29033023006102031D7A298531E42510
:1012F0008A31080004306102031D822986317F266D
:1013000089318829063061028A31031DDC2AE10116
:101310008A3108006F038A31031DDC2A053023005F
:1013200061028931031D9929E10186313D268A3107
:10133000080002306102031DC629200041082B006D
:10134000B00020303002031DC229B101A03084005A
:1013500085013108840700082000C8005930840046
:1013600085012B00310884072000480880002B00ED
:10137000B10A07303102031DA62906302300E1001F
:101380008631202686313D268931D22903306102FB
:10139000031DD02986313D262300E1018931D22960
:1013A00086313D268A3108003D000F1DEC290310CF
:1013B0002B002A0DB0000310B00D0310B00D043047
:1013C000B007300AAC0003302A028A31031DDC2A40
:1013D00086318B268A31080003102B002A0DB000BD
:1013E0000310B00D0310B00D300AAC0020308400A3
:1013F00085012C0884070008B10020308400850195
:10140000300884070008B3008A31B31BDC2A2A089D
:10141000031D3C2A03302A02031DDC2A3108B700D1
:10142000B601372A2000620A2B00B40010303402C3
:101430000319B4013408200063020319352AA030CF
:10144000840085012B003608840700082000C800AE
:1014500060308400023085006208840748088000FC
:101460002B0034082000E200E4032B00B60A360803
:101470003702031D122A08002A03031D712A0330B4
:101480002A02031DDC2A3108B700B6016C2A2000AD
:10149000620A2B00B400103034020319B40134087E
:1014A0002000630203196A2AB030840085012B00F2
:1014B0003608840700082000C8006030840002302D
:1014C000850062088407480880002B00340820004B
:1014D000E200E4032B00B60A36083702031D472A50
:1014E000080002302A02031DA72A03302A02031D26
:1014F000DC2A3108B700B601A22A2000620A2B00BC
:10150000B400103034020319B4013408200063021F
:101510000319A02AC030840085012B0036088407F7
:1015200000082000C8006030840002308500620896
:101530008407480880002B0034082000E200E40300
:101540002B00B60A36083702031D7D2A0800033037
:101550002A02031DDC2A03302A02031DDC2A31087B
:10156000B700B601D82A2000620A2B00B400103060
:1015700034020319B4013408200063020319D62A87
:10158000D030840085012B00360884070008200035
:10159000C800603084000230850062088407480873
:1015A00080002B0034082000E200E4032B00B60A80
:1015B00036083702031DB32A08008B312000121DA4
:1015C0002F2B12112A00ED018A313D00901DEC2ACB
:1015D000883185203D0090112A00ED0A04306D020B
:1015E0008A31031DE42A8B313D00101C202B93010E
:1015F00090012300E2013D0099019A019B019C01A9
:101600009D019E019F01163098008B31901D0B2B80
:1016100090118B31052B2300E101E0013D000E12FA
:1016200008302000A500A830A600A701A4010830BA
:10163000A100A030A200A3018C30A0003D0010103A
:101640008B31901A9012101A1012101F2B2B873109
:1016500040273D0010138B31901C2F2B9010080059
:101660008A31DD2286318B2E3D008E0114309100AF
:101670006B30920021001211873153273D009001F9
:101680008E018B312100991F482B1A1B482B452BAB
:101690003D008E1508002900EB00230063082A0096
:1016A000EB006B08031D552B08002000600A290081
:1016B000EF0020306F020319EF0129006F082000AE
:1016C0006102031D662B30238B315D2B29006B08D3
:1016D0008631FE2E230063082900EF006F08031DEA
:1016E000742B200048108A2B873131278B31200042
:1016F00048187D2B2A00ED107F2B2A00ED14ED18E1
:10170000842B200048108A2B873118272A00EB00F1
:10171000200048142A006B0808006A232800EE0005
:1017200008002800EE004B2B2300E401E501E60150
:10173000E7019731582FDB30DA000530DB0011303C
:10174000DD00DE019130E10002304038E2008331FB
:101750008B23023023005A022900EB00DB302A00E1
:10176000ED000530EE0029006B088431D424DB3015
:101770002B00DA000530DB0083317623DB302B00D1
:10178000DA000530DB000930DD00DE010B30E1005E
:1017900001304038E20083318B23DB302A00ED003A
:1017A0000530EE00230041088331BC23DB302A00E2
:1017B000ED000530EE00230042088331BC23DB300E
:1017C0002B00DA000530DB0083317623DB302B0081
:1017D000DA000530DB000630DD00DE011D30E100FF
:1017E00001304038E20083318B2302302800EE00C4
:1017F000023023005A022A00EB002900EF018C314D
:10180000132CDB30ED000530EE00C13084000130D8
:10181000850028006E08840700088331BC23280057
:10182000EE0A2900EF0A6F082A006B028C31031DB3
:10183000012CDB302B00DA000530DB00833176230E
:10184000DB302B00DA000530DB008331762B2B00F8
:10185000DA005F1430305A02DF10031D0318DF1462
:1018600039305A025F11031D031C5F15DF15DF18A5
:101870005F1DDF11DF1D402C30305A02DC00732C5D
:1018800041305A025F12031D03185F1646305A0298
:10189000DF12031D031CDF165F175F1ADF1E5F13C5
:1018A0005F1F592C41305A02DD000A305D07DC0011
:1018B000732C61305A02DF13031D0318DF176630E3
:1018C0005A026010031D031C6014E014DF1B601C2F
:1018D000E010E01C722C61305A02DD000A305D0716
:1018E000DC00732C5F105F18782C200048107A2CD5
:1018F000200048142B005C0808002B0056143A30D6
:1019000026002002031D972C2B00A01C992CDB30F5
:10191000DA000530DB000130DD00DE015030E1008F
:1019200001304038E20083318B238C31992C2B001D
:1019300056102B00561CDE2C2600210827242B00D5
:10194000B6008C3120004818A82C2B005611AA2C68
:101950002B0056152600220827242B00BB008C31B3
:1019600020004818B62C2B00D611B82C2B00D61509
:1019700056165619D61D5612561EDD2C360EF03947
:10198000BD003B07B600B100193036020319CA2C5E
:10199000031CCB2C5610A01CDE2CDB30DA000530EB
:1019A000DB000130DD00DE015230E1000130403863
:1019B000E20083318B238C31DE2C56108D312B00CD
:1019C000561C5A2D260023088C3127242B00BC00DE
:1019D0008C3120004818EF2C2B005613F12C2B00D3
:1019E00056172600240827242B00BB008C3120002A
:1019F0004818FD2C2B00D613FF2C2B00D61757149C
:101A0000561BD61F57108D31571C592D3C0EF039DF
:101A1000BD003B07BC00B1073C08AA00AB01260093
:101A200025088C3127242B00BC008D31200048185C
:101A30001C2D2B00D7101E2D2B00D7142600260896
:101A40008C3127242B00BB008D31200048182B2D12
:101A50002B0057112D2D2B005715D715D718571DB3
:101A6000D711D71D572D3C0EF039BD003B07BC00E8
:101A7000B1072A08BE00BD013C08BF00C0013D08F7
:101A80003F07AA003E08403DAB00A01C5A2DDB30AA
:101A9000DA000530DB000130DD00DE015430E1000A
:101AA00001304038E20083318B238D315A2D56109E
:101AB0005A2D56102B00561CA12D260027088C31BC
:101AC00027242B00AC008D31200048186A2D2B00F4
:101AD00057126C2D2B005716260028088C3127240E
:101AE0002B00BB008D3120004818792D2B00D71218
:101AF0007B2D2B00D7165717571AD71E5713571F72
:101B0000A02D2C0EF039BD003B07AC00B107A01C86
:101B1000972DDB30DA000530DB000130DD00DE011F
:101B20005630E10001304038E20083318B23093028
:101B30002B00B3000230B4003608B7008D31A12D60
:101B400056102B003708D7170319D71358145618F7
:101B5000D71F58108E31581C062E203084000330B9
:101B600085003308840700088C3127242B00BC0033
:101B70008D3120004818BF2D2B00D810C12D2B000F
:101B8000D814330ABD0020308400033085003D089E
:101B9000840700088C3127242B00BB008D312000E6
:101BA0004818D52D2B005811D72D2B005815D815B6
:101BB000D818581DD8118E31D81D032E3C0EF0397F
:101BC000BE003B07BC00B107C13084000130850076
:101BD000340884073C0880000230B307B40AB70316
:101BE0008D31A01CA12DDB30DA000530DB00013087
:101BF000DD00DE016030E10001304038E200833179
:101C00008B238D31A12D56108D31A12D561C5A2EAE
:101C100020308400033085003308840700088C31AD
:101C200027242B00B0008E31200048181A2E2B00DC
:101C300058121C2E2B005816330ABD002030840089
:101C4000033085003D08840700088C3127242B00D1
:101C5000BB008E3120004818302E2B00D812322EB7
:101C60002B00D8165817581AD81E5813581F592E1B
:101C7000300EF039BE003B07B000FF303106BD002A
:101C80003D0AB1003002031D572EA01C5A2EDB3036
:101C9000DA000530DB000130DD00DE015830E10004
:101CA00001304038E20083318B238E315A2E56109A
:101CB0005A2E56108F312B00561C5A2F02302C02F0
:101CC0008E31031DAC2E230043082B00BD00BE0146
:101CD000BF01C0013F08C4003E08C3003D08C20068
:101CE000C101230044082B00C500C601C701C8017B
:101CF000410845072300E4002B004208463D23002D
:101D0000E5002B004308473D2300E6002B00440874
:101D1000483D2300E7000430FF000310E40DE50D0B
:101D2000E60DE70DFF0B8D2E2B00A01CA52EDB3042
:101D3000DA000530DB000130DD00DE015A30E10061
:101D400001304038E20083318B232300DA01013077
:101D50002800EE008F31512F04302C02031DF62E87
:101D6000230043082B00BD00BE01BF01C0013F0896
:101D7000C4003E08C3003D08C200C101230044085E
:101D80002B00C500C601C701C80141084507230053
:101D9000E4002B004208463D2300E5002B004308E9
:101DA000473D2300E6002B004408483D2300E700A0
:101DB0006508E7006408E600E501E4012B00A01CCB
:101DC000EF2EDB30DA000530DB000130DD00DE0114
:101DD0005C30E10001304038E20083318B23230086
:101DE000DA0101302800EE008F31512F2C038F31A2
:101DF000031D002F2300DA0102302800EE00512FCE
:101E00002C08031D502F230064082B002A072900EB
:101E1000EB00230065082B002B3D2900EC0000306F
:101E20002000C800230066082000483D2900ED007E
:101E3000230067082000483D2900EE000310EE0C47
:101E4000ED0CEC0CEB0C6C082000C80029006D08B0
:101E50002000C90029006E082000CA00CB014808F4
:101E60002300C10029006B082300C2002B00A01C26
:101E7000472FDB30DA000530DB000130DD00DE010A
:101E80005E30E10001304038E20083318B230230C4
:101E90002B0036072300DA002800EE018F31512F86
:101EA00056102B00A01C5A2FDB30DA000530DB0067
:101EB000833176238F312B005618612F2000481074
:101EC000632F2000481428006E08080020009601A7
:101ED00097013F309805CF3018053038980018101A
:101EE00011102100111420001110080071092000A8
:101EF000C8007209C90048089600490897001110E7
:101F00001814080085312000111C242D1110181000
:101F10000C3025006F02031D242D26006D082500BE
:101F2000EF0020009115242D2500EF012600ED0182
:101F300021008E140E150E1422008E152300DB01D5
:101F4000E801E9012B0020122400940121309500C2
:101F500020009111210091150B178B170800250007
:101F6000EF012600ED0121008E140E150E14230042
:101F7000DB01E801E9012B00201222008E15080088
:101F800025006F0828006E14031D6E106E18CB2FED
:101F900020004810080020004814080010302500D8
:101FA0006F022A006B1003196B146B18DA2F2000D4
:101FB00048100800200048140800113025006F0266
:101FC00028006E1003196E146E18E92F20004810B7
:101FD000080020004814080025006F0828006E142F
:101FE000031D6E10103025006F022800EE1003193B
:101FF000EE146E116E1CEE186E15113025006F0276
:102000002800EE110319EE156E126E1DEE196E16F4
:1020100090316E1A0E282000481008002000481445
:10202000080001302500EF00200091150800033062
:102030002500EF0020009115080003102300EA0D91
:10204000EB0DEC0DED0D080003102300ED0CEC0C76
:10205000EB0CEA0C0800201A302820004810080079
:102060002000481408002500D201D3012B002017BE
:1020700007302500EF000B302600ED002000911501
:102080000800F0302500D200D3012B0020130730C8
:102090002500EF000B302600ED0020009115080010
:1020A0002500D201D301FF302600D2003F30D300FB
:1020B00007302500EF000F302600ED002500EB0172
:1020C0008030EC002B002017201220009115080012
:1020D000F0302500D200D301FF302600D200D3011A
:1020E00007302500EF000F302600ED002500EB0142
:1020F0000130EC002B002013201220009115080065
:1021000080302500D2000630D3000730EF000930C0
:102110002600ED00EE0101302500EB00EC012B0064
:1021200020172000911508003030260053022800A7
:102130006E1003196E147430260052022800EE103F
:102140000319EE146E156E18EE1C6E116E19AB2885
:102150002000481008002000481408002300E80A66
:102160000A3068020319E80168086902031DBC28E7
:1021700029006F109231302AD93084000330850055
:10218000680884075A08800029006F142300680833
:10219000031DEA285A082A00ED00EB01E428C130AB
:1021A0008400013085006B08840700082000C80007
:1021B000C0308400033085002A006B0884072000AB
:1021C000480880002A00EB0A6B086D02031DCF2827
:1021D0009231302A68039131031D10295A082A00D0
:1021E000ED00EB0191310929C130840001308500F7
:1021F0006B08840700082000C800203084000430E9
:1022000085002A006B0884072000480880002A0007
:10221000EB0A6B086D029031031DF4289231302ACD
:1022200002306802031D34295A082A00ED00EB0130
:102230002E29C1308400013085006B088407000816
:102240002000C80039308400043085002A006B0863
:1022500084072000480880002A00EB0A6B086D0202
:10226000031D19299231302A03306802031D5829B1
:102270005A082A00ED00EB015229C13084000130D8
:1022800085006B08840700082000C80052308400D5
:10229000043085002A006B0884072000480880006D
:1022A0002A00EB0A6B086D02031D3D299231302A8A
:1022B00004306802031D7C295A082A00ED00EB0156
:1022C0007629C1308400013085006B08840700083E
:1022D0002000C800A0308400043085002A006B086C
:1022E00084072000480880002A00EB0A6B086D0272
:1022F000031D61299231302A05306802031DA0298F
:102300005A082A00ED00EB019A29C13084000130FF
:1023100085006B08840700082000C800B9308400DD
:10232000043085002A006B088407200048088000DC
:102330002A00EB0A6B086D02031D85299231302AB1
:1023400006306802031DC4295A082A00ED00EB017B
:10235000BE29C1308400013085006B088407000865
:102360002000C800D2308400043085002A006B08A9
:1023700084072000480880002A00EB0A6B086D02E1
:10238000031DA9299231302A07306802031DE8296C
:102390005A082A00ED00EB01E229C1308400013027
:1023A00085006B08840700082000C80020308400E6
:1023B000053085002A006B0884072000480880004B
:1023C0002A00EB0A6B086D02031DCD299231302AD9
:1023D000083068029231031D0E2A5A082A00ED00C7
:1023E000EB01072AC1308400013085006B088407A7
:1023F00000082000C80039308400053085002A001C
:102400006B0884072000480880002A00EB0A6B084C
:102410006D029131031DF2299231302A0930680290
:10242000031D302A5A082A00ED00EB012C2AC13086
:102430008400013085006B08840700082000C80074
:1024400052308400053085002A006B088407200084
:10245000480880002A00EB0A6B086D02031D172A4A
:1024600029006F18362A2000481008002000481460
:102470000800230069086802031D412A7410933183
:102480008B2BE90A0A3069020319E901D93084006B
:1024900003308500690884070008DB0074146908AC
:1024A000031D6E2A5B08F500F301682AC030840022
:1024B000033085007308840700082000C800D2306C
:1024C0008400023085007308840748088000F30AFE
:1024D00073087502031D562A93318B2B6903031D64
:1024E0008D2A5B08F500F301872A20308400043030
:1024F00085007308840700082000C800D2308400DB
:10250000023085007308840748088000F30A7308C6
:102510007502031D752A93318B2B02306902031D4E
:10252000AD2A5B08F500F301A72A39308400043096
:1025300085007308840700082000C800D23084009A
:10254000023085007308840748088000F30A730886
:102550007502031D952A93318B2B03306902031DED
:10256000CD2A5B08F500F301C72A523084000430FD
:1025700085007308840700082000C800D23084005A
:10258000023085007308840748088000F30A730846
:102590007502031DB52A93318B2B04306902031D8C
:1025A000ED2A5B08F500F301E72AA030840004302F
:1025B00085007308840700082000C800D23084001A
:1025C000023085007308840748088000F30A730806
:1025D0007502031DD52A93318B2B05306902933187
:1025E000031D102B5B08F500F3019331092BB93063
:1025F0008400043085007308840700082000C800A8
:10260000D2308400023085007308840748088000B7
:10261000F30A730875029231031DF72A93318B2B4D
:1026200006306902031D2F2B5B08F500F3012A2BEE
:10263000D23084000430850073088407000820002D
:10264000C800D2308400023085007308840748082F
:102650008000F30A73087502031D182B8B2B0730BB
:102660006902031D4E2B5B08F500F301492B203056
:102670008400053085007308840700082000C80026
:10268000D230840002308500730884074808800037
:10269000F30A73087502031D372B8B2B0830690270
:1026A000031D6D2B5B08F500F301682B39308400A6
:1026B000053085007308840700082000C800D23068
:1026C0008400023085007308840748088000F30AFC
:1026D00073087502031D562B8B2B09306902031DED
:1026E0008B2B5B08F500F301872B523084000530FB
:1026F00085007308840700082000C800D2308400D9
:10270000023085007308840748088000F30A7308C4
:102710007502031D752B200048107418481408001A
:10272000031023005A0C2800EE0020306E0229000E
:102730006B11031D031C6B159031AE2093312000EB
:102740004818A52B2900EB11A72B2900EB156B16B8
:102750006B19EB1D6B126B1EC62B6B18B22B2B006B
:10276000A011B42B2B00A0158F31CE279331200060
:102770004818BD2B2900EB12BF2B2900EB16EB1ECE
:10278000C32B200091152900EB14C72BEB10EB187D
:10279000CC2B2000481008002000481408008F317E
:1027A000911D822F9111240011082000E6002500C0
:1027B0006F080319822F11306F029331031DE22B32
:1027C0008F31822F10306F029431031D402C9231D3
:1027D000392220006B1248186B168F316B1E822F26
:1027E0007F302500520293310319F92B94310318DD
:1027F000032C2B002017A012CC302600EB00103049
:10280000EC0094311D2C80305202943103190B2CB2
:1028100094310318152C2B002017A016D030260059
:10282000EB002030EC0094311D2C2B002013A0165F
:10283000D0302600EB002030EC00023023005B0299
:102840002000EA0003106A0C2300EE00EF010230C2
:102850002600EF0002302700E3002B00A01D362CDD
:102860000D302500EF002B00A0123C2C0730250076
:10287000EF0008302600ED00200091158F31822FE7
:102880006F03031D622C21000E110E1022008E1109
:1028900001302600EF0002302500EF002000E93073
:1028A000C8000430C9009431C90B542C9431C80BB2
:1028B000512C00000000000000004D302400910069
:1028C0008F31822F02306F02031D782C26006F0893
:1028D00081312821240091002600EF0A04306F0284
:1028E0009631031DC62E10302500EF008F31822F48
:1028F00003306F02031D852C22008E1521000E155A
:102900000E142500EF018F31822F04306F02031D5A
:10291000A02CEA3084000130850027006408840779
:1029200000082400910027006408031D9D2C260048
:102930006D082500EF009631C62EE4038F31822FFB
:1029400005306F02031DB02C21000E150230270048
:10295000E40006302500EF00240091018F31822F22
:1029600006306F02031DF62CEA308400013085002A
:102970002700640884072000660880002700640898
:10298000031DF12C90312420523084000330850047
:1029900026006E08840723006A0880002600EE0ADD
:1029A00094312B00201FE02C52308400033085002E
:1029B00026006E0884073F3023006B058000E82C5A
:1029C000523084000330850026006E0884078001A1
:1029D0002600EE0A6D082500EF00200091159631C3
:1029E000C62EE403240091018F31822F07306F023D
:1029F0009531031D142D21000E112300EC0125003B
:102A000052082300EB00250053082300EA00903110
:102A10001D2002302700E40004302500EF00803044
:102A2000240091008F31822F08306F02031D792D11
:102A300023006E086F040319722DEE036E0A03194A
:102A4000EF0321000E112300EC01D230840002308C
:102A5000850026006F08840700082300EA0026008E
:102A6000EF0A2B00201F402DD23084000230850059
:102A700026006F0884073F3000052300EB00422D3D
:102A80002300EB012600EF0A90311D2002302700C1
:102A9000E40004302500EF0095312B00A01E542DDA
:102AA0000A302600ED00572D08302600ED002300E7
:102AB0006E086F042000ED15031DED116D16ED1964
:102AC000662D2B00A01A662D20006D1220006D1EB1
:102AD0006D2D240091019631C62E02302400910004
:102AE0008F31822F0A302500EF00200091158F31A1
:102AF000822F09306F02031D9E2D6B086C04031991
:102B0000982D21000E112500EB036B0A0319EC032D
:102B10000530EF006B086C04031D932DFC3024007E
:102B200091008F31822FFE30240091008F31822F4F
:102B30001030EF00200091158F31822F0D306F0281
:102B4000031DC02D2B00A01EAA2D01302500ED0075
:102B5000EE01B42D023023005B022000EA000310D6
:102B60006A0C2500ED00EE012600EE01073025007D
:102B7000EF000E302600ED00200091158F31822FDE
:102B80000E306F029631031D4A2E6D086E0495318A
:102B90000319EE2DED036D0A0319EE0321000E114A
:102BA00025006D086E042000EE15031DEE116E1653
:102BB000EE19DF2D2B00A01ADF2D20006E12200051
:102BC0006E1EE62DFC3024009100E92DFE3024001D
:102BD000910005302500EF009631C62E20006B14C1
:102BE000E9012000690826006E022000EE12031998
:102BF000FB2D0318EE166E17EE1A6B1C6E13963132
:102C00006E1F1E2ED230840002308500270063081C
:102C1000840700082000C80052308400033085007B
:102C200069088407480800020319192E6B109531B2
:102C3000F12DE90A2700E30A9531F12D6B1C432E93
:102C400023006E086F0420006F1403196F10EF103B
:102C50002B00A01E2E2E20006F18EF142000EF1C5A
:102C60003F2E2500530A0319372ED30A392ED20AD4
:102C7000D3010730EF0008302600ED00462E10305B
:102C80002500EF00462E11302500EF0020009115A1
:102C90008F31822F0F306F02031D9B2EFF302000DB
:102CA000E8002B00201F582E3F302000E7005A2E4E
:102CB0002000E70126005208200068026F12031D61
:102CC0006F162600530820006702EF12031DEF164F
:102CD0006F136F1EEF1A6F176F1F752E11302500BF
:102CE000EF00200091158F31822F25006B086C04B6
:102CF0000319922EEB036B0A0319EC0321000E114A
:102D00002600EE0123006E086F04031D8B2EFC309D
:102D1000240091008E2EFE30240091000530250005
:102D2000EF00992E2B00201610302500EF00200018
:102D300091158F31822F0A306F02031DAF2E0C3098
:102D4000EF000D302600ED006B08F1006C08F2007A
:102D50008F317627E030240091008F31822F0B30A5
:102D60006F02031DC42E1830240091000830F100BA
:102D70005230F2008F3176270C302500EF001030F2
:102D80002600ED009631C62E0C306F028F31822F57
:102D90002B00B000613030020319D02E031CD42E5A
:102DA00020303002B1000800300808002B00AA01D2
:102DB0002A00ED01FF017F0828006F02031DE42EA9
:102DC0002B002A0828006E022B002C100319EA2E73
:102DD00003182C142A006D08230040022B00AC10AD
:102DE0000319F42E0318AC142C152C18AC1C2C1140
:102DF00097312C1D292F20308400033085002A00B4
:102E00006D08840700089631C8262A00EF006B0879
:102E10002B002A072000D1000030C9002A006C08CE
:102E20002000493DD2005213520883315D23200017
:102E3000C8002A006F08200048029731031D232F85
:102E40002B00AA0A252F2B00AA012A00ED0A963191
:102E5000DA2E2A0828006E022000C80028006F0819
:102E6000200048042B002C1203192C162C1A3B2F7F
:102E70002000481008002000481408002300C0016A
:102E80002B00211008002700EC01ED01FE01E501F7
:102E9000E601E701E8012B00A0132110A111FF308A
:102EA0002700EE008F31AF272B002111A010080062
:102EB0008C018E0121009D019E019F0104302200A2
:102EC000910092010430930094018E11200077301C
:102ED000C8008F30C9002D30CA009731CA0B6E2F41
:102EE0009731C90B6B2F9731C80B692F2000013028
:102EF000C8009731C80B7A2F22008E158B313423EE
:102F00008531C5258F3166278F3194279731432727
:102F10008B313023230063082800EB006B089731C6
:102F20000319B52F2B00A119B52FA115A01CB52F82
:102F3000DB30DA000530DB001B30DD00DE01623003
:102F4000E10001304038E20083318B23DB302B007D
:102F5000DA000530DB001430DD00DE011930E1005D
:102F600002304038E20083318B2397312B00211D42
:102F7000FD2F8B318D232700EA0097312000481860
:102F8000C42F2B002113C62F2B002117211FE72F41
:102F9000033027006A022B00A1130319A1171B306D
:102FA00027006A022B00221003192214A210A11F6D
:102FB0002218A214A21CE12F43272700EE0197310B
:102FC000E72F27006A082000C8008531DB258531FE
:102FD00070252700EA00973120004818F22F2B00B7
:102FE0002211F42F2B0022159831221D642827006E
:102FF0006A088B319123983164288B318D23270007
:10300000EA0098312000481808282B00A2110A284D
:103010002B00A2159831A21D6428203027006A02D7
:103020009831031D1528983139280D306A029831DE
:10303000031D20287E08031939282B00A0173928E2
:103040000A306A02031D2A287E08031939282B003A
:10305000A017392832307E0203193928031839287D
:10306000A0308400023085007E0884076A08800052
:10307000FE0A2B00A01F64287E082800EC00270011
:10308000EB015828A03084000230850027006B082F
:10309000840700082000C800203084000330850029
:1030A00027006B0884072000480880002700EB0AEF
:1030B0006B0828006C02031D42287E082300C00014
:1030C000FE012B002114A01327006C089931031D69
:1030D000AD299E312B00211C192E02302800EE0054
:1030E000EF0147302A00EB0001304038EC00963108
:1030F000D62698312000481880282B0023128228D9
:103100002B002316231E8C28A1100C302700EC0066
:103110000130ED009931A92903302800EE00EF01BC
:1031200032302A00EB0001304038EC009631D626D0
:103130009831200048189F282B00A312A1282B00AB
:10314000A316A31EAA280C302700EC000330ED00C4
:103150009931A92903302800EE00EF012E302A0012
:10316000EB0001304038EC009631D6269831200033
:103170004818BD282B002313BF282B002317231F1B
:10318000C8280C302700EC000430ED009931A92943
:1031900002302800EE00EF014D302A00EB00013034
:1031A0004038EC009631D626983120004818DB28AC
:1031B0002B00A313DD282B00A317A31FE728A114BE
:1031C0000C302700EC000130ED009931A9290330C3
:1031D0002800EE00EF013A302A00EB0001304038C1
:1031E000EC009631D626983120004818FA282B009A
:1031F0002410FC282B0024149931241C05290C30A0
:103200002700EC000630ED00A92903302800EE006D
:10321000EF0136302A00EB0001304038EC009631E7
:10322000D62699312000481818292B00A4101A29F5
:103230002B00A4149931A41C23290C302700EC0086
:103240000730ED00A92902302800EE00EF013E30E2
:103250002A00EB0001304038EC009631D626993137
:103260002000481836292B00241138292B0024155A
:10327000241D3F290B302700EC00ED01A929023065
:103280002800EE00EF0144302A00EB000130403806
:10329000EC009631D62699312000481852292B008F
:1032A000A41154292B00A415A41D5C290C3027005F
:1032B000EC000930ED00A92902302800EE00EF01F2
:1032C00041302A00EB0001304038EC009631D62620
:1032D0009931200048186F292B00241271292B00E6
:1032E0002416241E772921152700EE01A929023072
:1032F0002800EE00EF014A302A00EB000130403890
:10330000EC009631D6269931200048188A292B00E6
:10331000A4128C292B00A416A41EA629A01CA12946
:10332000A010DB30DA000530DB001130DD00DE01FB
:10333000A330E10002304038E20083318B23993121
:10334000A329A014A1112700EE01A9290330270009
:10335000EE0097313E279E31192E6C039A31031DE2
:103360001D2A99312B00211CF6292700E501E601D1
:10337000E701E8018C317D242700EF00993120001E
:103380004818C5292B00A413C7292B00A417A41F74
:10339000DE29A01CD929DB30DA000530DB0019302A
:1033A000DD00DE01CE30E10001304038E200833143
:1033B0008B2302302700EC009931F229A01CEE2962
:1033C000DB30DA000530DB000F30DD00DE0142309B
:1033D000E10003304038E20083318B2301302700C5
:1033E000EE00EC0197313E279E31192E2000273048
:1033F000C8009931C80BFA292700E50A0319E60A23
:103400000319E70A0319E80A403065022000C800E2
:103410004230270066022000C8040F3027006702F0
:1034200020004804270068049A31031D1B2A02303B
:10343000EE000E30EC009E31192E02306C029B31F2
:10344000031D312B6F089B31031D112B9A312B006B
:10345000A01C2C2A8B319B238F31DD279A31200031
:103460004818352A2B00A511372A2B00A515A51DB4
:10347000BD2AA01CB82ADB30DA000530DB0013308F
:10348000DD00DE014330E10002304038E2008331EC
:103490008B23DB302B00DA000530DB001130DD0040
:1034A000DE01C730E10002304038E20083318B2377
:1034B00026006E082800EC002700E9019A31762AE0
:1034C0000230270069072800EB00DB302A00ED00FE
:1034D0000530EE00D23084000230850028006B08F1
:1034E000840700088331BC232700E90A6908280003
:1034F0006C029A31031D602ADB302B00DA000530A4
:10350000DB0083317623DB302B00DA000530DB0073
:103510000F30DD00DE013230E10003304038E200E0
:1035200083318B2326006E082800ED002700E90177
:103530009A31AB2ADB302A00ED000530EE00523024
:103540008400033085002700690884070008833160
:10355000BC232700E90A690828006D029A31031D7F
:103560009A2ADB302B00DA000530DB00833176232A
:103570000E302700EC009E31192EA118C22A290016
:103580006B10C42A29006B14933190239A312000C8
:103590004818CD2A2B002513CF2A2B002517251FCD
:1035A000FB2A01302700EC009E312B00A01C192EB5
:1035B0009A31A11CEB2ADB30DA000530DB00103039
:1035C000DD00DE01D930E10002304038E200833115
:1035D0008B239E31192EDB30DA000530DB001230F0
:1035E000DD00DE016B30E10002304038E200833163
:1035F0008B239E31192E9B31A01C0C2BDB30DA0063
:103600000530DB001C30DD00DE01A130E1000030C0
:103610004038E20083318B230E302700EC009E31CE
:10362000192E02306F029B31031D2D2B2B00A01C85
:10363000272BDB30DA000530DB000F30DD00DE0148
:103640002230E10003304038E20083318B23270031
:10365000EE010E30EC009E31192E0130EC009E314F
:10366000192E03306C02031D5E2B8F31CE279B3148
:10367000200048183E2B2B00A610402B2B00A61430
:103680009E31A61C192E9B31A01C542BDB30DA0076
:103690000530DB001030DD00DE010130E1000330D9
:1036A0004038E20083318B239031332005302700EE
:1036B000EC000E30ED00EE019E31192E04306C024C
:1036C000031D8B2B8F31CE279B31200048186B2B8D
:1036D0002B00A6116D2B2B00A6159E31A61D192EB1
:1036E0009B31A01C812BDB30DA000530DB00113070
:1036F000DD00DE01B530E10002304038E200833108
:103700008B239031412005302700EC000E30ED0076
:10371000EE019E31192E05306C02031DD52B8F3121
:10372000DD279B3120004818982B2B00A6129A2BDE
:103730002B00A616A61EB32BA01CAC2BDB30DA0088
:103740000530DB001730DD00DE010130E100023022
:103750004038E20083318B2301302700EE000E3029
:10376000EC009E31192E8F31CE279B312000481856
:10377000BC2B2B002613BE2B2B002617261FD32B6A
:10378000A01CD02BDB30DA000530DB000730DD0079
:10379000DE011530E10001304038E20083318B2337
:1037A00027006D08EC009E31192E06306C02031DB7
:1037B000FF2B8F31CE279B3120004818E22B2B00A6
:1037C0002710E42B2B0027149E31271C192E9B3128
:1037D000A01CF82BDB30DA000530DB001930DD00EF
:1037E000DE01B430E10001304038E20083318B2348
:1037F0009031502008302700EC009E31192E073000
:103800006C029C31031D2A2C8F31CE279C31200065
:1038100048180D2C2B0027110F2C2B0027159E313B
:10382000271D192E9C31A01C232CDB30DA0005301B
:10383000DB001A30DD00DE017E30E100013040386F
:10384000E20083318B239031682008302700EC00A0
:103850009E31192E08306C02031D8E2C8F31DD270E
:103860009C3120004818372C2B002712392C2B00B4
:103870002716271E6B2CA01C642CDB30DA000530C9
:10388000DB001A30DD00DE019930E1000130403804
:10389000E20083318B23DB302A00ED000530EE009F
:1038A000260052088331BC23DB302A00ED000530AE
:1038B000EE00260053088331BC23DB302B00DA00F6
:1038C0000530DB00833176230E302700EC00013019
:1038D000EE009E31192E90312B209C31200048188B
:1038E000742C2B00A712762C2B00A716A71E8C2C4D
:1038F000A01C882CDB30DA000530DB000F30DD0047
:10390000DE011230E10003304038E20083318B23C6
:103910000E302700EC00EE019E31192E09306C02AA
:10392000031DB82C8F31EC279C31200048189B2CAC
:103930002B00A7139D2C2B00A7179E31A71F192E14
:103940009C31A01CB12CDB30DA000530DB000B30E1
:10395000DD00DE015230E10003304038E200833107
:103960008B23903180200A302700EC009E31192EE5
:103970000A306C029D31031D1E2D8F31CE279C31E4
:1039800020004818C62C2B00A810C82C2B00A81407
:103990009E31A81C192E9C31A01CE02CDB302A0083
:1039A000ED000530EE00260052088331BC23DB30E9
:1039B0002A00ED000530EE00260053088331BC23B9
:1039C000903194209C3120004818E92C2B002811BC
:1039D000EB2C2B0028159D31281D042D2700EE010E
:1039E0009D312B00A01C192DDB30DA000530DB00E7
:1039F0000930DD00DE010130E10001304038E20035
:103A000083318B239D31192D01302700EE009D312C
:103A10002B00A01C192DDB30DA000530DB00103044
:103A2000DD00DE01EA30E10002304038E20083319F
:103A30008B230E302700EC009E31192E0B306C02C8
:103A40009D31031D4A2D2B00A01C342DDB30DA00E4
:103A50000530DB000A30DD00DE01F630E100003029
:103A60004038E20083318B239731432722008E11A7
:103A700020008130C8001D30C9009D31C90B3E2D8A
:103A80009D31C80B3B2D000022008E152700EE0152
:103A90009E31192E0C306C02031D882D8F31C027EA
:103AA0009D3120004818572D2B00A812592D2B00AE
:103AB000A816A81E762DA01C6B2DDB30DA00053071
:103AC000DB001330DD00DE015730E100023040380A
:103AD000E20083318B23903111202700E501E601BC
:103AE000E701E8010D30EC009E31192EA01C862D57
:103AF000DB30DA000530DB001B30DD00DE01DA30C0
:103B0000E10000304038E20083318B239E31192ED2
:103B10000D306C02031DF12D8F31CE279D31200019
:103B20004818952D2B00A813972D2B00A817A81F18
:103B3000B62DA01CA92DDB30DA000530DB001830D3
:103B4000DD00DE01E830E10001304038E200833181
:103B50008B232700E501E601E701E8016D039D31B4
:103B60000319EE016D08EC009E31192E200027305C
:103B7000C8009D31C80BBA2D2700E50A0319E60AD3
:103B80000319E70A0319E80A403065022000C8005B
:103B90004230270066022000C8040F302700670269
:103BA00020004804270068049E31031D192E0230AE
:103BB000EE000E30EC009D312B00A01CEF2DDB3011
:103BC000DA000530DB001B30DD00DE01BE30E10035
:103BD00000304038E20083318B239E31192E9E3114
:103BE000192E0E306C029E31031D192E8F31EC27D9
:103BF0009E3120004818002E2B00A9119E31022E64
:103C00002B00A9159E31A91D192EA01C152EDB30E5
:103C1000DA000530DB001430DD00DE012E30E1007B
:103C200002304038E20083318B2390311720270087
:103C3000EC0127006E0A97310319882F30306E0788
:103C40002800EB008B3191230D308B3191230A300A
:0E3C50008B319123FF302700EE009731882F33
:020000040001F9
:02000E00A2014D
:020010004F3B64
:00000001FF
