:020000040000FA
:040800000AEF04F007
:08080800E950776FEA50786FA8
:1008100057EF09F0B7EF04F01201000202000008E0
:10082000D8040A000100010200010902430002018C
:1008300000803209040000010202010005240010BA
:100840000104240202052406000105240100010719
:1008500005820308000209040100020A00000007E3
:1008600005030208000007058302080000000403D6
:10087000090436034D006900630072006F006300D5
:100880006800690070002000540065006300680083
:100890006E006F006C006F00670079002C00200074
:1008A00049006E0063002E001E034A0041004C0008
:1008B0004C004900420020005300650072006900AE
:1008C00061006C002E00200E726F646B656B666BAE
:1008D000676BD8906C376D376E376F37D89060374D
:1008E0006137623763376437653766376737675113
:1008F0006B5DD8A488EF04F066516A5DD8A488EFD8
:1009000004F06551695DD8A488EF04F06451685D16
:10091000D8B48EEF04F0D8B09CEF04F0D8806451C6
:100920006855646F65516955656F66516A55666FA4
:1009300067516B55676F6C81722F69EF04F012007D
:1009400076BFB6EF04F076BDACEF04F07451E96EFB
:100950007551EA6EEF5012007451F66E7551F76ED4
:1009600076513F0BF86E0800F5501200120094EF1C
:1009700005F0DD6FD651E16ED751E26EDE6BD1EF3F
:1009800004F0D951DE25746F000E5E6EDA515E20E0
:10099000756FDB515E20766FA0EC04F0E66E00010F
:1009A000DE2BDE51DD5DD8A4C1EF04F012000201A0
:1009B00004BF120000018D518A5DD8B4E5EF04F048
:1009C000D8B0E5EF04F08A518D6FD8808D518B55EA
:1009D000D86FD8518C5DD8B4F3EF04F0D8B0F3EFF2
:1009E00004F08C51D86F780E8B25606F000E5E6E10
:1009F000020E5E20616F60510201066F00016151BD
:100A00000201076F0001D8510201056F04AD0DEF1F
:100A100005F0880E046F0FEF05F0C80E046F00019B
:100A2000D8518B278B518D5D1200080E8C6F8B6B0C
:100A30008D6B8A6B0201049DD7EF04F0D66FD651FF
:100A40000201786F080E00018C6F8B6B010E8D6FA9
:100A5000010E8A6F0201049DD7EF04F00F01548943
:100A6000548554835487400E02010C6F080E096FA1
:100A7000300E0A6F020E0B6F800E086F0F01558942
:100A8000558555835587400E0201146F080E116F6E
:100A9000400E126F020E136F800E106F0F015689F9
:100AA000568556835687400E02011C6F080E196F3B
:100AB000500E1A6F020E1B6F800E186F1200840EFC
:100AC000020100131200080E0201016F200E026FD6
:100AD000020E036F030E00018F5DD8A476EF05F0C0
:100AE0008C0ED16F0201046B78EF05F0C80ED16F48
:100AF0000001D1510201006F1200C66FD890C635B7
:100B0000C96FD890C937D890C937C929C86F02EEC4
:100B100000F0C851E926C751EF6E02EE00F0C9514E
:100B2000E926800EEF6E1200916BC491806B816B91
:100B3000826B836B100E846FEBEF09F00201F951A9
:100B40000001D16F210ED15DD8A4A9EF05F0050EEB
:100B50008F6F120002011CBFB2EF05F00001D991A6
:100B6000B4EF05F00001D981D9B112008051815D47
:100B7000D8A4C0EF05F0C4A11200D16BD2EF05F0EC
:100B80008051815DD8B4CEEF05F0D8B0CEEF05F03E
:100B9000D88080518155D16FD2EF05F0D880200EDA
:100BA0008155D16F080ED15DD8B4DCEF05F0D8A027
:100BB000DCEF05F0080ED16FD66BEFEF05F0815139
:100BC000D625D56F00EE92F0D551E926EF50606F33
:100BD00002EE58F0D651E9266051EF6ED62BD65171
:100BE000D15DD8A4DFEF05F0580E02011E6F020E92
:100BF0001F6F0001D15102011D6F1CAD04EF06F003
:100C0000880E1C6F06EF06F0C80E1C6F00018151A4
:100C1000D125D86F1F0ED85DD8B413EF06F0D8A039
:100C200013EF06F0D86BD851816F080ED15DC491D7
:100C3000D8B4C4811200886F8029896F200E895D25
:100C4000D8B4896B00EE92F08051E9268851EF6E9E
:100C50008951806F120000EEB2F08351E926EF5007
:100C6000CA6F842B8329CC6F100ECC5DD8B4CC6BAB
:100C7000CC51836FCA5112008351825DCA91D8A4AE
:100C8000CA816091CAB160811200AAEC05F0080E19
:100C90000001845DD8B450EF06F0D8A05AEF06F0FA
:100CA000020118BF5AEF06F0080E0001C76F030ECD
:100CB0007DEF05F012000001796BC20E7A6F010E14
:100CC0007B6F7C6B7D6B080E7F6F7E6B1200020169
:100CD000F9510001856F060E855DD8A40DEF07F070
:100CE0000201FB510001D16F0201FA510001D56FE1
:100CF0008D6B010ED15DD8A490EF06F0120E8D6FB2
:100D0000780ED66F020ED76F180ED96F080EDA6FF5
:100D1000000E4009DB6F8D51B9EC04F0F0EF06F0E6
:100D2000020ED15DD8A4A7EF06F0430E8D6F780EAA
:100D3000D66F020ED76F2A0ED96F080EDA6F000E2B
:100D40004009DB6F8D51B9EC04F0F0EF06F0030EB3
:100D5000D15DD8A4EEEF06F0D551D8A4C0EF06F0CF
:100D6000040E8D6F780ED66F020ED76F6E0ED96F90
:100D7000080EDA6F000E4009DB6F8D51B9EC04F0FC
:100D8000010E0001D55DD8A4D6EF06F0360E8D6FAA
:100D9000780ED66F020ED76F720ED96F080EDA6F0B
:100DA000000E4009DB6F8D51B9EC04F0020E00011A
:100DB000D55DD8A4F0EF06F01E0E8D6F780ED66FBD
:100DC000020ED76FA80ED96F080EDA6F000E400919
:100DD000DB6F8D51B9EC04F0F0EF06F0220ED15D1F
:100DE00000018D51D8B40BEF07F0080E8C6F020193
:100DF000FF51D8A401EF07F0FE5100018A6F04EF04
:100E000007F0FF0E00018A6F030E8F6F8B6B0201DC
:100E1000049DD7EF04F05FEF05F0050E855DD8A4C3
:100E20001EEF07F00201FA510001906F010E8E6F64
:100E300015EC05F0060E00018F6F1200090E855D9E
:100E4000D8A429EF07F0060E8F6F15EC05F02EEFF2
:100E500005F00A0E855DD8A433EF07F0030E8F6FFF
:100E6000010E1EEF05F08551D8A43AEF07F0000EF1
:100E70001EEF05F01200D8906330C66FD890C633CD
:100E8000D890C63363A451EF07F0D8900201043123
:100E90000001C86FD890C8330F0EC815C76F5BEF3D
:100EA00007F0D890020100310001C86FD890C83314
:100EB0000F0EC815C76FC651D8A45CEF08F00D0E11
:100EC000C75DD8A4DEEF07F0C96B02EE20F0C95170
:100ED000E926EF50606F02EEF8F0C951E926605143
:100EE000EF6EC92B080EC95DD8A465EF07F06498B2
:100EF00063EC05F00201F8390F0B0001C86FD890C0
:100F0000C833030EC815CA6FCA51D8B467EF06F0CC
:100F1000010ECA5DD8A4D8EF07F00201F951000113
:100F2000CC6F200ECC5DD8A4ACEF07F0CD6B02EEF9
:100F300020F0CD51E926EF50606F07EE00F0CD5163
:100F4000E9266051EF6ECD2B070ECD5DD8A497EF4B
:100F500007F0020E8F6F1200210ECC5DD8A4CAEFED
:100F600007F0FF0E8A6F070E8D6F780ED66F020E98
:100F7000D76F790ED96FDA6BDB6B8D51B9EC04F05A
:100F8000080E00018C6F030E8F6F8B6B0201049DA6
:100F9000D7EF04F0220ECC5DD8A4D7EF07F0060EF1
:100FA0008F6F15EC05F00201FA510001916F1200EC
:100FB000100ECA5DD8A4CCEF08F01200090EC75D70
:100FC000D8A403EF08F0030E8F5DD8B4D7EF04F078
:100FD000060E8F5DD8A4F9EF07F08F6B010E8E5DC2
:100FE000D8A4CCEF08F090510F015C6F00018E6B1C
:100FF0001200050E8F5DD8B41200040E8F5DD8B4B8
:101000009EEF05F01200020EC75DD8A419EF08F09C
:10101000030E8F5DD8B4D7EF04F0040E8F5DD8B403
:101020009EEF05F0060E8F5DD8A4CCEF08F08F6B15
:101030001200010EC75DD8A4CCEF08F0050E8F5D3D
:10104000D8A426EF08F08F6B63EF05F0020E8F5DDA
:10105000D8A450EF08F00201F9510001C96F200E29
:10106000C95DD8A44EEF08F0CA6B02EE20F0CA5159
:10107000E926EF50606F00EE79F0CA51E926605121
:10108000EF6ECA2B070ECA5DD8A435EF08F0C2EC8C
:1010900009F0060E00018F6F15EC05F063EF05F007
:1010A000030E8F5DD8A45AEF08F063EC05F0000141
:1010B0008F6B120063EF05F063A483EF08F0D89004
:1010C000C635C96FD890C937D890C937040EC9271B
:1010D000020EC925C86F02EE00F0C851E926EF5094
:1010E000CA6F030EC925C86F02EE00F0C851E92689
:1010F000EF50CB6FC929C86F030EC65DD8A4CCEFE3
:1011000008F0AAEF05F0D890C635C96FD890C93756
:10111000D890C937020EC925C86F02EE00F0C85139
:10112000E926EF50CA6F030EC925C86F02EE00F022
:10113000C851E926EF50CB6FC929C86F02EE00F005
:10114000C851E926EF50CD6F030EC65DD8A4CCEF91
:1011500008F0CA51E16ECB51E26ECF6BC7EF08F0D9
:101160008229CE6F100ECE5DD8B4CE6BCE51835D8A
:10117000D8B4C6EF08F0E650D06F00EEB2F082515E
:10118000E926D051EF6ECE51826F8407CF2BCF511D
:10119000CD5DD8A4B0EF08F012000F015F6B626A5A
:1011A0000001906B0F01546B556B566B576B586B6E
:1011B000596B5A6B160E536F62A6E2EF08F06296F7
:1011C000DCEF08F000018F6B8E6B6498080E020153
:1011D000056F280E066F020E076F046B080E016F75
:1011E000200E026F020E036F8C0E006F1200A1A47E
:1011F0001EEF09F0A1940001C56B62A603EF09F090
:101200003BEC07F062960001C52B040EC55DD8A427
:10121000FDEF08F062A010EF09F0CDEC08F062904D
:1012200062BA629A62B8629862AC1AEF09F045EC51
:1012300006F0629C62A21EEF09F062921200646ADC
:10124000140E616E606A608A60866080608CA09413
:101250001200F7EC08F0AAEF05F01FEC09F05BECC8
:1012600006F0626A646A648612009151C86FC851C0
:10127000D8A43EEF09F060914FEF09F03CEC06F086
:101280000001C99360B1C983C9B34AEF09F0609105
:101290004FEF09F02BEC06F00001C76F6081C751DA
:1012A000120035EC09F00001C56FC55112009EAA6D
:1012B00074EF09F000018693ABB286838695ABB4D8
:1012C0008685869786A386B5868786A76FEF09F001
:1012D000ABA274EF09F0AB98AB8868EF09F0AE50A1
:1012E000876F87511BEC06F000017751E96E78514A
:1012F000EA6E1100D96B1B0EDA6FB70EDB6FDC6B79
:10130000D151686FD251696FD3516A6FD4516B6FED
:10131000D951606FDA51616FDB51626FDC51636FDD
:1013200063EC04F000016C51DE6F6D51DF6F6E51A4
:10133000E06F6F51E16FE151E56FE051E46FDF5114
:10134000E36F010EDE5DE26F010ED8A0E35FD8A06F
:10135000E45FD8A0E55FE251E66FE351E76FAC844C
:10136000B886E751B06EE651AF6E1200AB6AAB8E35
:10137000AB88040EAC6EAC8AAC84B8869D8AF28CC5
:10138000F28E1200000E7C5DD8A4D3EF09F0010E9E
:101390007B5DD8A4D3EF09F0C20E7A5DD8A4D3EF59
:1013A00009F0000E795DD8B4DFEF09F0D8A0DFEFC7
:1013B00009F0796BC20E7A6F010E7B6F7C6B7951ED
:1013C000D16F7A51D26F7B51D36F7C51D46F7AEC4D
:1013D00009F0B6EF09F07E6A7F6AC26AC16AC06A24
:1013E0006D6A6B6A2DEC09F029EC09F0000191514E
:1013F000C36FC351D8B4F4EF09F051EC09F0000108
:10140000C26FC49560B1C485C4A5F4EF09F0C251A0
:0C141000AD6E9EB8FDEF09F009EF0AF088
:00000001FF
