:020000040000FA
:0400000021EF00F0FC
:08000800C5EF03F01201000234
:1000100000000008D8040B000100000000010902E4
:1000200020000101008064090400000200000000BB
:10003000070581024000000705010240000004039B
:100040000904BEEF03F0846F7E51E16E7F51E26ED2
:10005000856B41EF00F081518525606F000E5E6E6B
:1000600082515E20616F83515E20626F6051F66E37
:100070006151F76E6251F86EF89C0900F550E66E1A
:10008000852B8551845DD8A42BEF00F0120002016E
:1000900004BF120000016D516A5DD8B455EF00F045
:1000A000D8B055EF00F06A516D6FD8806D516B5527
:1000B000806F80516C5DD8B463EF00F0D8B063EF0F
:1000C00000F06C51806F780E6B25606F000E5E6ED5
:1000D000020E5E20616F60510201066F00016151E6
:1000E0000201076F000180510201056F04AD7DEF31
:1000F00000F0880E046F7FEF00F0C80E046F00015F
:1001000080516B276B516D5D1200080E6C6F6B6B2D
:100110006D6B6A6B0201049D47EF00F07E6F7E51AC
:100120000201786F080E00016C6F6B6B010E6D6F32
:10013000010E6A6F0201049D47EF00F0840E020178
:1001400000131200080E0201016F100E026F020E62
:10015000036F030E00016F5DD8A4B5EF00F08C0EA5
:100160007C6F0201046BB7EF00F0C80E7C6F0001DA
:100170007C510201006F12007C6FD8907C35806F3B
:10018000D8908037D890803780297E6F02EE00F0BB
:100190007E51E9267D51EF6E02EE00F08051E92696
:1001A000800EEF6E12000CADD9EF00F0880E0C6FD0
:1001B0001200C80E0C6F1200550EA76EAA0EA76E85
:1001C000A68212002451F86E2351F76E2251F66E6A
:1001D00012000201F9510001696F060E695DD8A491
:1001E00063EF01F00201FB5100017C6F0201FA5143
:1001F00000017D6F6D6B010E7C5DD8A412EF01F0E4
:10020000120E6D6F780E7E6F020E7F6F0C0E816F77
:10021000000E826F000E4009836F6D5123EC00F0D9
:1002200046EF01F0020E7C5DD8A429EF01F0200E0C
:100230006D6F780E7E6F020E7F6F1E0E816F000E47
:10024000826F000E4009836F6D5123EC00F046EF82
:1002500001F0030E7C5DD8A444EF01F07D51D8A4D9
:1002600046EF01F0040E6D6F780E7E6F020E7F6F09
:100270003E0E816F000E826F000E4009836F6D513C
:1002800023EC00F046EF01F0220E7C5D00016D5181
:10029000D8B461EF01F0080E6C6F0201FF51D8A4D1
:1002A00057EF01F0FE5100016A6F5AEF01F0FF0EA7
:1002B00000016A6F030E6F6F6B6B0201049D47EFC5
:1002C00000F09EEF00F0050E695DD8A474EF01F018
:1002D0000201FA510001706F010E6E6F85EC00F0A3
:1002E000060E00016F6F1200090E695DD8A48EEF33
:1002F00001F0060E6F6F85EC00F00F0154895485F4
:1003000054835487400E02010C6F400E096F200E7B
:100310000A6F020E0B6F800E086F12000A0E695DE5
:10032000D8A498EF01F0030E6F6F010E8EEF00F06E
:100330006951D8A49FEF01F0000E8EEF00F012007B
:10034000D8906330736FD8907333D890733363A4AD
:10035000B6EF01F0D890020104310001756FD8901A
:1003600075330F0E7515746FC0EF01F0D890020150
:1003700000310001756FD89075330F0E7515746FCD
:100380007351D8A445EF02F00D0E745DD8A4F2EFBE
:1003900001F0766B02EE10F07651E926EF50606FB7
:1003A00002EEF8F07651E9266051EF6E762B080EDA
:1003B000765DD8A4CAEF01F06498A2EC00F0300E8C
:1003C0000201F8150001756F7551D8B4E9EF00F01E
:1003D000200E755DD8B41200000E755D606F020EC0
:1003E00060111200090E745DD8A414EF02F0030E20
:1003F0006F5DD8B447EF00F0060E6F5DD8A40DEF27
:1004000002F06F6B010E6E5DD8A413EF02F0705115
:100410000F015C6F00016E6B1200050E6F5DD8B4AA
:100420001200040E6F5D1200020E745DD8A427EF57
:1004300002F0030E6F5DD8B447EF00F0040E6F5D5D
:10044000D8B41200060E6F5DD8B46F6B1200010EA7
:10045000745DD8A472EF03F0050E6F5DD8A434EF7D
:1004600002F06F6BA2EF00F0020E6F5DD8B4A2EF46
:1004700000F0030E6F5DD8A443EF02F0A2EC00F091
:1004800000016F6B1200A2EF00F063B41200D8906D
:100490007335766FD8907637D8907637020E7625FA
:1004A000756F02EE00F07551E926EF50776F030E7D
:1004B0007625756F02EE00F07551E926EF50786FE2
:1004C0007629756F02010D6B2051D8A470EF02F0F0
:1004D000140E226F010E236F040E0D6F67EF03F0F1
:1004E000040E205DD8A492EF02F0A69EA69C000107
:1004F0007A6B87EF02F0225100017A25A96EA6805F
:1005000002EE25F07A51E926A850EF6E7A2B7A5147
:100510000201215DD8A47BEF02F0050E21250D6FAD
:1005200067EF03F0010E205DD8B49CEF02F0060ED9
:10053000205DD8A4B6EF02F0E2EC00F000017A6B87
:10054000ABEF02F0090002EE25F000017A51E92636
:10055000F550EF6E7A2B7A510201215DD8A4A2EFFB
:1005600002F0050E21250D6F67EF03F0020E205DEE
:10057000D8A4E4EF02F0840EA66EE2EC00F0F00ED8
:10058000F6160001686BDAEF02F002EE25F00001CA
:100590006851E926EF50F56E0D000F0E6815796F62
:1005A0000F0E795DD8A4D8EF02F00A00DCEC00F061
:1005B0000001682B68510201215DD8A4C5EF02F04B
:1005C000010E0D6F67EF03F0030E205DD8A404EF5A
:1005D00003F0940EA66EE2EC00F000017A6BFAEFE5
:1005E00002F0DCEC00F0200EF626F650D8B4F72A24
:1005F00000017A2B7A510201215DD8A4F1EF02F0BB
:10060000010E0D6F67EF03F0050E205DD8A428EFF3
:1006100003F000017A6B1EEF03F0225100017A25EE
:10062000A96E02EE25F07A51E926EF50A86EDCECB7
:1006300000F0A6B219EF03F000017A2B7A51020103
:10064000215DD8A40DEF03F0010E0D6F67EF03F0ED
:10065000070E205DD8A44CEF03F0840EA66EE2ECEA
:1006600000F000017A6B42EF03F002EE25F000018A
:100670007A51E926EF50F56E0C00DCEC00F00D002D
:1006800000017A2B7A510201215DD8A435EF03F0E5
:10069000010E0D6F67EF03F0320E205DD8B467EFE7
:1006A00003F0FF0E205DD8A467EF03F0FF0E0001FA
:1006B0007A6F7B6F646A7A517B11D8B466EF03F06E
:1006C0007A077A29D8B47B075BEF03F0FF000201B9
:1006D0000D51D8A4D3EC00F0400E00017D6F735192
:1006E000BCEF00F01200A1A4BDEF03F0A194000143
:1006F000726B62A67FEF03F0A0EC01F0629600013E
:10070000722B040E725DD8A479EF03F062A0B3EFF0
:1007100003F00F015F6B626A0001706B0F01546B95
:10072000556B566B576B586B596B5A6B160E536F54
:1007300062A69EEF03F0629698EF03F000016F6BE4
:100740006E6B6498080E0201056F180E066F020E9C
:10075000076F046B080E016F100E026F020E036F1D
:100760008C0E006F629062BA629A62B8629862BC44
:10077000629C62A2BDEF03F062921200F29E94842A
:100780007E50716F7E6AC8EF03F004EF04F0110031
:1007900082A4CFEF03F071517E6E00EF04F0646A23
:1007A000140E616E6B0E606EA094626A646A648659
:1007B000200E02010E6F020E0F6F73EC03F0DDEFDF
:0207C00003F044
:020000040030CA
:0E0000000032211E0080C90003C003E003404F
:00000001FF
