:020000040000FA
:0400000080313328F0
:080008008031312882070D341C
:100010000A34483465346C346C346F3420346634BC
:1000200072346F346D3420346134703470346C3415
:10003000693463346134743469346F346E34203419
:10004000503449344334313436344634313438341E
:1000500038343534373421340D340A348A002508D5
:10006000820040016B2881314F299F151E152A30CF
:100070009B009C0108004E010F1A412840012E10E0
:10008000432840012E144E01191A49284001AE1090
:100090004B284001AE142E152E18AE1C2E112E1D0D
:1000A0006A282A0829020319682833308400850148
:1000B0002A0884070008AD00AA0A20302A02031982
:1000C0006328031C6428AA012D0842019A00090034
:1000D0004E01191209004E018F1E3B2842019D1846
:1000E00074284001AE1076284001AE1442011D195B
:1000F0007C2840012E117E2840012E15AE11AE1C29
:100100002E19AE15AE1D9928420119084001AD0007
:1001100042019D1C95281D121D1619084001AD00B5
:10012000420119084001AD0088284001AC01AB0133
:100130003B28A030840085012B0884074201190860
:10014000800040012B0AAD0040302D020319AA287F
:10015000031CAB28AD012D082C020319B1282D0872
:10016000AB003B282C082B02031DB8282010C82800
:10017000A030840085012C0884070008D700AC0A51
:1001800040302C020319C628031CC728AC012014D8
:1001900057080800B00029082A0232100319321447
:1001A0004E010F1AD6284001B210D8284001B214CF
:1001B00032153218B21C3211321DE6284E011912C6
:1001C0004001300842019A0081310929333084000E
:1001D00085012908840730088000290AB1002030F1
:1001E00031020319F528031CF628B10131082A024F
:1001F0000319FE283108A9008131072931082A0294
:100200008131031D05298031FE283108A9004E01E6
:1002100019164001300808004001A901AA01AB01EC
:10022000AC0142019E019D018031352040019317B0
:10023000131742019E169D171D164E0199160B1796
:100240008B17080040012008AF008031CA285908E8
:10025000DD005A08DE005D08E0005E08E100DF0115
:1002600046295B085F07A5000030A1005C08213D1E
:10027000A6002613260880312E204001A000570832
:10028000A500580880312E204001DF0A5F08600277
:10029000A000610820048131031D31290800561097
:1002A0006B29571C602955307D018F00AA308F00C3
:1002B0000F14400156185E298B135F298B17080015
:1002C00056108B1B56148B1355307D018F00AA30AE
:1002D0008F000F1008007E01B801C301CE0141015B
:1002E0009301940195010430530190009101043071
:1002F00094009501400111105710512110307E01DA
:10030000A60017307D01CB004001571481315121E7
:1003100081310C214001D614D301D4014001EE30CB
:10032000A0000530A1008131A10B94298131A00BDF
:1003300091298031B2204001D50056112018561560
:100340008131561DA9295508A00022214001D30161
:10035000D401D30A0319D40A88305302A000133001
:10036000540220048131031DC929D61CB929D61095
:10037000BA29D614D301D4012230D7000130D800D5
:100380002730D900DA010730DB0000304038DC00CC
:10039000272181314001D618CF291610D0291614F3
:0203A0008E29A4
:020000040001F9
:02000E00FA1FD7
:080010003F3F9F3FFF3FFF3F10
:00000001FF
