:020000040000FA
:100000000A128A11042800000508AD002328B50053
:10001000F0302D05B7000F303505B800380837042B
:10002000AD002D08850008008312B400F03083165F
:1000300005058312B5000F303405B60036083504C7
:100040008316850008008F3083160F0570388F00E7
:100050009B0183129F0183169F0107309C000513AB
:100060008513003014204128B4003408072083127F
:10007000AD172D08850000000000AD132D08850088
:1000800008008312AB016528083083169900181503
:100090000800442083168C120C129816903083129C
:1000A0009800080083128C1E59281A08B4008C127C
:1000B0005B2835106028981C5F2818121816351414
:1000C0002010351820143408080049208312AE018E
:1000D000AF0194288312B4003408AE002E089500B6
:1000E0002F08970008000C308312AF042F089700E8
:1000F00008008312B400FF3083169200013083128F
:100100003402031D862804309200080004303402B3
:10011000031D8D2805309200080010303402031DA5
:1001200093280730920008008316061001307920CA
:10013000732000306A2052208312AC003310201844
:100140003314331C9B28AC1AB52810302C05B00092
:100150003008B3150319B3112D13B3192D172D083A
:1001600085002C081F3934209B28AC1EE2281F3044
:100170002C05A0000310200DB0000310B00D0310DB
:10018000B00D1F302C05A0002008A100A201A30182
:10019000A401A5010310250CAA00240CA900230C1E
:1001A000A800220CA700210CA6000310AA0CA90C81
:1001B000A80CA70CA60C2608B10031083007B20025
:0601C00032086A209B28B2
:02400E00783FF9
:02401000FF3F70
:00000001FF
