:020000040000FA
:100000007E6A7F6AC26AC16AC06A6D6A6B6A7E6A0A
:100010007F6A949C9498928694848B888B8C000140
:10002000000E606F000E616F000E626F622F16EFA0
:1000300000F0612F14EF00F0602F12EF00F00001CC
:10004000D70E606FAB0E616F530E626F622F26EF9B
:1000500000F0612F24EF00F0602F22EF00F000008D
:1000600063816383639500018E0E606FA70E616FDD
:10007000A70E626F622F3AEF00F0612F38EF00F0A9
:10008000602F36EF00F000000000000080B64CEF5B
:1000900000F063914DEF00F0638182B453EF00F004
:1000A000639354EF00F0638363A160EF00F063B5E6
:1000B0005DEF00F08B9861EF00F08B8861EF00F04E
:1000C0008B9863A36DEF00F063B56AEF00F08B9C33
:1000D0006EEF00F08B8C6EEF00F08B9C63A574EFDD
:0E00E00000F0639533EF00F0638533EF00F01E
:020000040030CA
:0E0000000032211E0000C90003C003E00340CF
:00000001FF
