:020000040000FA
:100000007E6A7F6AC26AC16AC06A6D6A6B6A949CC2
:100010009498928694848B888B8C0001000E606F7C
:10002000000E616F000E626F622F14EF00F0612FFF
:1000300012EF00F0602F10EF00F00001D70E606F9C
:10004000AB0E616F530E626F622F24EF00F0612FD1
:1000500022EF00F0602F20EF00F000006381638347
:10006000639500018E0E606FA70E616FA70E626F21
:10007000622F38EF00F0612F36EF00F0602F34EF81
:1000800000F000000000000080B64AEF00F063912D
:100090004BEF00F0638182B451EF00F0639352EFB5
:1000A00000F0638363A15EEF00F063B55BEF00F0E7
:1000B0008B985FEF00F08B885FEF00F08B9863A365
:1000C0006BEF00F063B568EF00F08B9C6CEF00F015
:1000D0008B8C6CEF00F08B9C63A572EF00F0639546
:0A00E00031EF00F0638531EF00F00E
:020000040030CA
:0E0000000032211E0000C90003C003E00340CF
:00000001FF
