:020000040000FA
:060000000A128A11C1285A
:08000800FF00030E8301B000AC
:100010000A08B1008A010408B6008A11F72B82078A
:100020005634633478346F342034563430342E34BC
:1000300031340A3482074534723472346F34723486
:1000400020348207473450344734533456348207BF
:1000500047345034473447344134820747345034AE
:100060005634543447348207473450344734533479
:10007000413482074734503447344C344C3482077F
:100080004734503452344D34433482074D34733442
:10009000673420340030A31F5928A009A109A20900
:1000A000A309A00A0319A10A0319A20A0319A30AA2
:1000B0000130B3000030AB1F6928A809A909AA09BB
:1000C000AB09A80A0319A90A0319AA0A0319AB0A5A
:1000D0000130B3066C28B3012030B200A401A501A1
:1000E000A601A7010310AC0DAD0DAE0DAF0D0310B1
:1000F000A00DA10DA20DA30DA40DA50DA60DA70D7C
:1001000027082B02031D8E2826082A02031D8E288D
:1001100025082902031D8E28240828020319922885
:100120000318A1282808A4022908031C290FA502E6
:100130002A08031C2A0FA6022B08031C2B0FA70258
:100140002C14B20B7228330803190800AC09AD094E
:10015000AE09AF09AC0A0319AD0A0319AE0A0319B7
:10016000AF0AA409A509A609A709A40A0319A50AA3
:100170000319A60A0319A70A08008A000313340802
:1001800082000508C20083160511831203179E0121
:100190009F0103139F0183169F0183120317990187
:1001A0009A0183168113043003139500F2299B15DD
:1001B00018150830990002309A0008003B100C1AFC
:1001C0003B1483160C1AE7288312BB10E92883120C
:1001D000BB143B153B18BB1C3B113B1D0A295008A7
:1001E0004F0203190A29A030500784008313000826
:1001F000BA00D00A5030500203190029031C01290B
:10020000D00150084F02031D072983160C128312D8
:100210003A0899003608840031088A00300E8300BD
:10022000FF0E7F0E09008C1EDE28BC109818BC142F
:100230003C1118193C15BC11BC1C3C19BC15BC1D4B
:1002400030291A08BA00981C2C29181218161A08F6
:10025000BA001A08BA002329D201D1016B10DE2896
:1002600043305107840083131A088000510ABA00F2
:100270000C303A0203193E29031C3F29BA013A08FF
:100280005202031945293A08D1006B18DE2851089B
:10029000520203195529031855295109BB000D3085
:1002A000BB0752083B07BA00582951085202BA004E
:1002B00011303A0203196029031860296B14DE28F3
:1002C000DE288312031352085102031D69292010EE
:1002D000982943305207840083130008EE00D20AA5
:1002E0000C30520203197629031C7729D2016B1CAA
:1002F00096295108520203198A2903188A2951099B
:100300000317A2000D30A207031352080317220798
:10031000A0008E29510852020317A00011302002BC
:1003200003199429031C962903136B10031320143B
:100330006E080800BF00EB144F085002411003196B
:100340004114C1100C1AC11441154118C11C4111AE
:10035000411DB02983160C1283123F089900CE2943
:10036000A0304F07840083133F0880004F0AC0006D
:10037000503040020319BE29031CBF29C0014008A8
:1003800050020319C6294008CF00CC29400850026A
:100390000319C6294008CF0083160C1683123F08A4
:1003A00008008312CF01D001D101D2019801981722
:1003B0001816831698019816D720831603138C16E7
:1003C0000B178B1783126B1008008312031320087E
:1003D000BE00EB1083120313EB18F1293E089A219B
:1003E000EA290800D1210A2B0D30A0006E08B400C4
:1003F0006F08BD200A3083120313A0006E08B400FA
:100400006F08BD282208AC002308AD00AE01202AE9
:10041000031727080313B50003172E082607031335
:10042000B4000318B50A35133508BD208312031331
:10043000A0006E08B4006F08BD2083120317AE0A37
:100440002E082C020313A00003172D080313200409
:10045000031D082A08000317A20003136E080317E0
:10046000A40003136F080317A5002208A800A90120
:10047000AA01AB016430AF00B001B101B201033099
:10048000412AB300280829042A042B04031D522AF8
:1004900030300313A000031724080313B40003171C
:1004A0002508BD2836143208803A0313A000803096
:1004B0002002031D662A003003173102031D662A3D
:1004C00000303002031D662A00302F020319E72A8C
:1004D000031CE72A03172F080313A800031730088B
:1004E0000313A900031731080313AA0003173208E6
:1004F0000313AB00031728080313A00003172908F0
:100500000313A10003172A080313A20003172B08E3
:100510000313A3006B20831203132C080317B400EA
:10052000031324080317A800031325080317A900C1
:10053000031326080317AA00031327080317AB00A9
:100540000A300313A800A901AA01AB0103172F0861
:100550000313A000031730080313A1000317310889
:100560000313A200031732080313A3004A208312C7
:1005700003132C080317AF0003132D080317B00053
:1005800003132E080317B10003132F080317B2003B
:100590003408B6150319B6113612361C3616B612C3
:1005A000B61D361AB616B61EE52A30303404B5002C
:1005B00035080313A000031724080313B40003171E
:1005C0002508BD20831203173610B303532A0800F1
:1005D0000317A201A301FE2A831203132330A000F4
:1005E0000D30A1000A128A11A10BF22A0A128A11F7
:1005F000A00BF02A0317A20A0319A30A2208031367
:100600006E02A0000317230803136F022004031DCA
:10061000EC2A0800013083120313E900A82BEE0036
:100620002C306E02031D162B2014080013306702B5
:1006300003191C2B031C1F2BC930E9000800533081
:100640006707840083136E088000E70A533067074A
:1006500084008313800120100800A40121080313E3
:10066000B5000317240820070313B4000318B50AC4
:1006700035133508BD2083120313A0005330031730
:1006800024078400831303132008000203194A2B54
:10069000201008000317A40A05302402031D2E2B86
:1006A00003132014080028300317A000003040383E
:1006B000A1002D23831203136E1020186E146E18E0
:1006C00001343A300317A00000304038A1002D2338
:1006D00083120313EE102018EE14EE180234343097
:1006E0000317A00000304038A1002D23831203130C
:1006F0006E1120186E156E19033422300317A000F6
:1007000000304038A1002D2383120313EE1120186E
:10071000EE15EE19043440300317A00000304038C5
:10072000A1002D23831203136E1220186E166E1A69
:1007300005342E300317A00000304038A1002D23CF
:1007400083120313EE122018EE16EE1A063400344C
:1007500087309205FC3092051215F930831692000D
:100760003F3083129705F03017050C389700831639
:1007700087128C148B170B178312B801B901E5305F
:10078000EE000130EF000A300317A200A301103081
:10079000A60000304038A70002220A2C03306F0266
:1007A000031DD42BE7306E020319DF2B031CDF2B54
:1007B000E730EE000330EF004530A000E5210310E4
:1007C000831203136F0CA1006E0CA0000310A10C88
:1007D000A00C2008950003306E05A000200EA1009B
:1007E0003030A105CF3017052104970008008C1C7C
:1007F00013298C10B80A0319B90A27303902031DCE
:10080000032C0F30380203191329031C1329B801D4
:10081000B901132983120313EA01051D112C6B1171
:10082000122C6B1542116B194215420885003230AB
:10083000EE00EF01E82283120313EA0A08306A028D
:10084000031D0D2CF430EE000130EF00CE236121AA
:1008500083120313ED006B1220186B166B1E272CEE
:10086000013069020319572C031C572CE530EE00A8
:100870000130EF0006300317A200A3011B30A600D1
:1008800000304038A7000222E53083120313EE0047
:100890000130EF0069082B22E53083120313EE00CC
:1008A0000130EF00F421013083120313E9002430FA
:1008B0006D02031D602CB701E801E701E901272C57
:1008C0006908031D272C6D080F23831203136C1175
:1008D00020186C156C1D942C6808031D902C532354
:1008E00083120313B700E530EE000130EF0004304F
:1008F0000317A200A3014630A60000304038A7002D
:100900000222E53083120313EE000130EF003708B6
:100910002B22E53083120313EE000130EF00F421A7
:0A09200083120313E701E80A272CF5
:02400E00F63F7B
:00000001FF
