:020000040000FA
:100000000508A30005108316051083129F01073011
:1000100083169F0007309C00831223142308850059
:1000200083120313A730A0000930A100A530A2005D
:100030000A128A11A20B18280A128A11A10B16287B
:100040000A128A11A00B14280000000023102308B4
:10005000850083120313A730A0000930A100A5304A
:10006000A2000A128A11A20B31280A128A11A10BCE
:100070002F280A128A11A00B2D28000000000C283E
:02400E00FE3F73
:00000001FF
