:020000040000FA
:0400000021EF00F0FC
:08000800D5EF03F01201000224
:1000100000000008D8040B000100000000010902E4
:1000200020000101008064090400000200000000BB
:10003000070581024000000705010240000004039B
:100040000904CEEF03F0846F7E51E16E7F51E26EC2
:10005000856B41EF00F081518525606F000E5E6E6B
:1000600082515E20616F83515E20626F6051F66E37
:100070006151F76E6251F86EF89C0900F550E66E1A
:10008000852B8551845DD8A42BEF00F0120002016E
:1000900004BF120000016D516A5DD8B455EF00F045
:1000A000D8B055EF00F06A516D6FD8806D516B5527
:1000B000806F80516C5DD8B463EF00F0D8B063EF0F
:1000C00000F06C51806F780E6B25606F000E5E6ED5
:1000D000020E5E20616F60510201066F00016151E6
:1000E0000201076F000180510201056F04AD7DEF31
:1000F00000F0880E046F7FEF00F0C80E046F00015F
:1001000080516B276B516D5D1200080E6C6F6B6B2D
:100110006D6B6A6B0201049D47EF00F07E6F7E51AC
:100120000201786F080E00016C6F6B6B010E6D6F32
:10013000010E6A6F0201049D47EF00F00F01548920
:10014000548554835487400E02010C6F400E096F92
:10015000200E0A6F020E0B6F800E086F1200840EC5
:10016000020100131200080E0201016F100E026F4F
:10017000020E036F030E00016F5DD8A4C6EF00F0FE
:100180008C0E7C6F0201046BC8EF00F0C80E7C6F10
:1001900000017C510201006F12007C6FD8907C3509
:1001A000806FD8908037D890803780297E6F02EE9C
:1001B00000F07E51E9267D51EF6E02EE00F0805195
:1001C000E926800EEF6E12000CADEAEF00F0880E0B
:1001D0000C6F1200C80E0C6F1200550EA76EAA0EFF
:1001E000A76EA68212002451F86E2351F76E225199
:1001F000F66E12000201F9510001696F060E695D89
:10020000D8A474EF01F00201FB5100017C6F0201E0
:10021000FA5100017D6F6D6B010E7C5DD8A423EF58
:1002200001F0120E6D6F780E7E6F020E7F6F0C0E56
:10023000816F000E826F000E4009836F6D5123ECB9
:1002400000F057EF01F0020E7C5DD8A43AEF01F008
:10025000200E6D6F780E7E6F020E7F6F1E0E816F07
:10026000000E826F000E4009836F6D5123EC00F089
:1002700057EF01F0030E7C5DD8A455EF01F07D51DE
:10028000D8A457EF01F0040E6D6F780E7E6F020E4A
:100290007F6F3E0E816F000E826F000E4009836FEC
:1002A0006D5123EC00F057EF01F0220E7C5D000150
:1002B0006D51D8B472EF01F0080E6C6F0201FF515E
:1002C000D8A468EF01F0FE5100016A6F6BEF01F0F6
:1002D000FF0E00016A6F030E6F6F6B6B0201049DCE
:1002E00047EF00F0AFEF00F0050E695DD8A485EF91
:1002F00001F00201FA510001706F010E6E6F85EC82
:1003000000F0060E00016F6F1200090E695DD8A49F
:1003100090EF01F0060E6F6F85EC00F09EEF00F09D
:100320000A0E695DD8A49AEF01F0030E6F6F010EFB
:100330008EEF00F06951D8A4A1EF01F0000E8EEF0E
:1003400000F01200D8906330736FD8907333D89058
:10035000733363A4B8EF01F0D890020104310001B7
:10036000756FD89075330F0E7515746FC2EF01F06D
:10037000D890020100310001756FD89075330F0ECF
:100380007515746F7351D8A449EF02F00D0E745DAA
:10039000D8A4F6EF01F0766B02EE10F07651E92664
:1003A000EF50606F02EEF8F07651E9266051EF6E83
:1003B000762B080E765DD8A4CCEF01F06498B3ECF0
:1003C00000F00201F8390F0B0001756FD8907533FA
:1003D000030E7515776F7751D8B4FAEF00F0010E60
:1003E000775DD8B41200100E775D1200090E745DAF
:1003F000D8A418EF02F0030E6F5DD8B447EF00F0F9
:10040000060E6F5DD8A411EF02F06F6B010E6E5DEA
:10041000D8A417EF02F070510F015C6F00016E6BF2
:100420001200050E6F5DD8B41200040E6F5D12004D
:10043000020E745DD8A42BEF02F0030E6F5DD8B4EA
:1004400047EF00F0040E6F5DD8B41200060E6F5D2A
:10045000D8B46F6B1200010E745DD8A475EF03F071
:10046000050E6F5DD8A438EF02F06F6BB3EF00F0AC
:10047000020E6F5DD8B4B3EF00F0030E6F5DD8A429
:1004800047EF02F0B3EC00F000016F6B1200B3EF26
:1004900000F063B41200D8907335766FD890763739
:1004A000D8907637020E7625756F02EE00F0755102
:1004B000E926EF50776F030E7625756F02EE00F098
:1004C0007551E926EF50786F7629756F02010D6B33
:1004D0002051D8A474EF02F0140E226F010E236F86
:1004E000040E0D6F6AEF03F0040E205DD8A496EFA2
:1004F00002F0A69EA69C00017A6B8BEF02F02251BF
:1005000000017A25A96EA68002EE25F07A51E9262F
:10051000A850EF6E7A2B7A510201215DD8A47FEFAB
:1005200002F0050E21250D6F6AEF03F0010E205D2C
:10053000D8B4A0EF02F0060E205DD8A4BAEF02F006
:10054000F3EC00F000017A6BAFEF02F0090002EE6D
:1005500025F000017A51E926F550EF6E7A2B7A5199
:100560000201215DD8A4A6EF02F0050E21250D6F32
:100570006AEF03F0020E205DD8A4E8EF02F0840ECB
:10058000A66EF3EC00F0F00EF6160001686BDEEFDD
:1005900002F002EE25F000016851E926EF50F56EF9
:1005A0000D000F0E6815796F0F0E795DD8A4DCEF82
:1005B00002F00A00EDEC00F00001682B6851020126
:1005C000215DD8A4C9EF02F0010E0D6F6AEF03F0B0
:1005D000030E205DD8A408EF03F0940EA66EF3EC92
:1005E00000F000017A6BFEEF02F0EDEC00F0200E5F
:1005F000F626F650D8B4F72A00017A2B7A51020178
:10060000215DD8A4F5EF02F0010E0D6F6AEF03F043
:10061000050E205DD8A42CEF03F000017A6B22EFC9
:1006200003F0225100017A25A96E02EE25F07A51DD
:10063000E926EF50A86EEDEC00F0A6B21DEF03F036
:1006400000017A2B7A510201215DD8A411EF03F049
:10065000010E0D6F6AEF03F0070E205DD8A450EF76
:1006600003F0840EA66EF3EC00F000017A6B46EF07
:1006700003F002EE25F000017A51E926EF50F56E05
:100680000C00EDEC00F00D0000017A2B7A51020114
:10069000215DD8A439EF03F0010E0D6F6AEF03F06E
:1006A000320E205DD8B46AEF03F0FF0E205DD8A4AF
:1006B0006AEF03F0FF0E00017A6F7B6F646A7A5174
:1006C0007B11D8B46AEF03F07A077A29D8B47B0794
:1006D0005FEF03F002010D51D8A4E4EC00F0400EEE
:1006E00000017D6F7351CDEF00F012000F015F6BC1
:1006F000626A0001706B0F01546B556B566B576B40
:10070000586B596B5A6B160E536F62A68BEF03F042
:10071000629685EF03F000016F6B6E6B6498080EB4
:100720000201056F180E066F020E076F046B080EAC
:10073000016F100E026F020E036F8C0E006F12001D
:10074000A1A4C3EF03F0A1940001726B62A6ACEF09
:1007500003F0A2EC01F062960001722B040E725DB0
:10076000D8A4A6EF03F062A0B9EF03F076EC03F093
:10077000629062BA629A62B8629862BC629C62A23B
:10078000C3EF03F062921200646A140E616E606A35
:10079000608A60866080608CA0941200F29E9484CF
:1007A0007E50716F7E6AD8EF03F004EF04F0110001
:1007B00082A4DFEF03F071517E6E00EF04F0C4EC11
:1007C00003F0626A646A6486200E02010E6F020EF4
:0A07D0000F6FA0EC03F0E9EF03F057
:020000040030CA
:0E0000000032211E0080C90003C003E003404F
:00000001FF
